:020000040800F2
:10000000A87F0020510300085D3B0008112E000866
:10001000C5390008D9220008775700080000000001
:10002000000000000000000000000000B90200080D
:10003000F929000800000000FD0200080542000840
:100040006B0300086B0300086B0300086B030008D8
:100050006B0300086B0300086B0300086B030008C8
:100060006B0300086B0300086B0300086B030008B8
:10007000BD2600086B030008F52600086B03000886
:100080006B0300082D2700086B0300086B030008B2
:100090006B0300086B0300086B030008552A000877
:1000A0006B030008094500086B0300086B03000898
:1000B0006B0300086B0300086B0300086B03000868
:1000C0006B0300086B0300086B0300086B03000858
:1000D0006B03000869510008955200082D54000870
:1000E000FD2900086B0300086B0300086B03000880
:1000F0006B0300086B0300086B0300086B03000828
:100100006B0300086B0300086B0300086B03000817
:100110006B030008395100086B0300086B030008EB
:100120006B0300086B0300086B0300086B030008F7
:1001300000F002F800F0B0F80AA090E8000C824449
:100140008344AAF10107DA4501D100F0A5F8AFF226
:10015000090EBAE80F0013F0010F18BFFB1A43F0A5
:100160000103184768EC000088EC00000A444FF0D7
:10017000000C10F8013B13F0070408BF10F8014B06
:100180001D1108BF10F8015B641E05D010F8016B4B
:10019000641E01F8016BF9D113F0080F1EBF10F8AF
:1001A000014BAD1C0C1B09D16D1E58BF01F801CBD2
:1001B000FAD505E014F8016B01F8016B6D1EF9D555
:1001C0009142D6D37047000000230024002500266A
:1001D000103A28BF78C1FBD8520728BF30C148BFAA
:1001E0000B6070476E2900F0D484702900F0FD8107
:1001F00066290DF0A68265290DF0A38267290DF00E
:10020000A0826129AFF3008003681B0A28BF41F078
:100210008001692900F06E81642900F06B817529E5
:1002200000F068816F2900F0E287782900F0C98129
:10023000E92900F07D87E42900F07A87F52900F0AC
:100240007787EF2900F0DF87F82900F0C88103687D
:10025000DB0928BF41F08001632900F0EC86732997
:1002600000F0F186E32901F0D380F32901F0D88072
:10027000002070471FB501F037F80400002000216E
:100280000CF086F8401C6060002000210CF06AF839
:10029000E0601FBD10B510BD01F0ACF91146FFF7CD
:1002A000E9FF07F037FA01F0D8F903B4FFF7F2FFDE
:1002B00003BC05F050FC0000224B19680868B0E848
:1002C000F00F80F30988BFF36F8F4FF0000080F3C9
:1002D00011884EF00D0E70470000000006480068BF
:1002E000006880F3088862B661B6BFF34F8FBFF332
:1002F0006F8F00DF00BF00BF08ED00E0EFF3098063
:10030000BFF36F8F0F4B1A6820E9F00F106008B52C
:100310004FF0500080F31188BFF34F8FBFF36F8F02
:100320000AF04AFD4FF0000080F31188BDE8084054
:1003300019680868B0E8F00F80F30988BFF36F8F81
:10034000704700BF3C050020EFF3058070470000B8
:100350000948804709480047FEE7FEE7FEE7FEE759
:10036000FEE7FEE7FEE7FEE7FEE7FEE70448054995
:10037000054A064B7047000015420008310100088D
:10038000A8790020A87F0020A87B0020A87B00205F
:10039000704710B54C1084EA530404D54042C1F1B3
:1003A000000138BF491E1B4204D55242C3F100036D
:1003B00038BF5B1E00F000FB14F0804F04D04042B9
:1003C000C1F1000138BF491E14F0004F04D0524261
:1003D000C3F1000338BF5B1E10BD00007CB51D4695
:1003E00016460C00009001D02044401E074B7B4471
:1003F0002A4669460190304600F0F3FD05461CB1DF
:100400000020694600F000FE28467CBD210C00005B
:100410000FB4044910B503AA029800F019FE10BCED
:100420005DF814FB200500200FB41CB5084B06AA8C
:100430007B4469460090059800F0D3FD04460020F7
:10044000694600F0E1FD20461CBC5DF814FB00008D
:10045000D50B000070B5044685690068C10601D55A
:10046000302600E02026C00707D070BDD4E9012166
:1004700030469047206A401C20626D1EF6D570BD44
:1004800070B5044685690078C00707D170BDD4E90E
:10049000012120209047206A401C20626D1EF6D565
:1004A00070BD70B50C460546012A05D02878800637
:1004B00000D5EA69002302E0012305E05B1C9342BA
:1004C00002D2E05C0028F9D1A869E618C01AA86138
:1004D000286A184428622846FFF7BCFF04E0D5E9E3
:1004E000012114F8010B9047B442F8D32846FFF7D6
:1004F000C7FF70BD2DE9F04106460024106875293C
:10050000314616A510D000F0D9FA002802DA404290
:1005100013A507E031688A0701D512A502E0490753
:1005200004D511A5012401E000F0D1FA00210A222E
:1005300006F1240709E0B0FBF2FCB0FBF2F302FB8A
:100540001C00303078541846491C0028F3D123464B
:100550002A463046BDE8F04100F0C2BA0000000073
:100560002D0000002B00000020000000F0B40D461C
:100570000188090502D5214C7C4402E01F4C7C44D3
:100580000E34002100F1240608E002F00F071209E2
:10059000E75D42EA03721B097754491C52EA0307DC
:1005A000F3D102780023120704D5702D06D009B1CB
:1005B000022311342246F0BC00F092BA0123103419
:1005C000F8E770B504460D462146106800F07FFA42
:1005D000024629462046BDE870400023C6E7D21DEA
:1005E00022F00703D3E90023C0E70368126843F051
:1005F000200303600823C3610023B7E736E6000049
:100600002DE9F05F894604464FF0000ADFF874B127
:10061000FB44C0F820A02046E1688847002874D039
:10062000252806D0D4E901219047206A401C206289
:10063000F1E700265F462046E16888472028054606
:1006400007DB312D05D2781910F8200C08B10643CC
:10065000F1E7B00701D526F00406C4F81CA0002776
:10066000C4F818A02A2D09D0284605F06DFA38B331
:1006700004EB8708303DC8F8185019E059F8041BFE
:10068000204604EB87029161E1688847012F054607
:1006900018D1E069002820DA26F020061DE0D8F8FD
:1006A000180000EB800005EB40003038C8F8180057
:1006B0002046E1688847054605F046FA0028EED155
:1006C000012F0AD02E2D08D12046E16888477F1CD3
:1006D0000546022F46F02006C4DBA069002803DA95
:1006E000404246F00106A061F00701D026F0100656
:1006F0006C2D0BD0682D09D04C2D39D06A2D35D0FA
:10070000742D35D07A2D33D016E038E0E1682F46CD
:1007100020468847B842054609D16C2F26D04FF4B1
:100720008060E168064320468847054604E06C2F58
:100730001AD04FF4807006430DB3A5F1410019287B
:1007400002D8203546F400664A46294620462660EF
:100750004E46FFF747FD80B101280BD0F61D26F06D
:10076000070000F1080956E74020E4E78020D8E7B9
:100770000020D6E706F104094DE7284652E7206A33
:10078000BDE8F09FC6E5000070B5064600F010F920
:100790000468054630460A22002100F03FFD2C6027
:1007A00070BD30B505460B462A4613F8014B12F8CA
:1007B000010B08B1A042F8D01CB1002802D06D1C7A
:1007C000F1E7284630BD40EA010310B59B070FD181
:1007D000042A0DD310C808C9121F9C42F8D020BAB1
:1007E00019BA884201D9012010BD4FF0FF3010BD69
:1007F0001AB1D30703D0521C07E0002010BD10F837
:10080000013B11F8014B1B1B07D110F8013B11F8FC
:10081000014B1B1B01D1921EF1D1184610BD10B522
:10082000431C02E010F8011B71B18107FAD14FF0AF
:10083000013202C88C1A8C4314EAC211F9D0C01AD2
:100840000A0603D0C01E10BDC01A10BD0A0401D094
:10085000801E10BD0902FCD0401E10BD032A40F2CC
:10086000308010F0030C00F0158011F8013BBCF152
:10087000020F624498BF11F801CB00F8013B38BF6A
:1008800011F8013BA2F1040298BF00F801CB38BF78
:1008900000F8013B11F0030300F02580083AC0F096
:1008A000088051F8043B083A51F804CBA0E808103E
:1008B000F5E7121D5CBF51F8043B40F8043BAFF371
:1008C0000080D20724BF11F8013B11F801CB48BFCB
:1008D00011F8012B24BF00F8013B00F801CB48BF01
:1008E00000F8012B704710B5203AC0F00B80B1E83A
:1008F0001850203AA0E81850B1E81850A0E8185055
:10090000BFF4F5AF5FEA027C24BFB1E81850A0E85D
:10091000185044BF18C918C0BDE810405FEA827C77
:1009200024BF51F8043B40F8043B08BF7047D2078E
:1009300028BF31F8023B48BF11F8012B28BF20F82F
:10094000023B48BF00F8012B704702F0FF0343EA67
:10095000032242EA024200F09BBC4FF0000200B5C5
:10096000134694469646203922BFA0E80C50A0E8D2
:100970000C50B1F12001BFF4F7AF090728BFA0E880
:100980000C5048BF0CC05DF804EB890028BF40F84C
:10099000042B08BF704748BF20F8022B11F0804F8E
:1009A00018BF00F8012B70477047704770477047B9
:1009B000004870474879002053EA020C00F0698033
:1009C0002DE9F04B4FF00006002B1FBFB3FA83F563
:1009D00003FA05F424FA05F65E4012BF1643B2FA94
:1009E00082F502FA05F4C5F120051EBF22FA05FCC6
:1009F00044EA0C04203556EA044C4FEA144418BF6C
:100A0000641C4FF000084FF00009904271EB030C9A
:100A100039D3002919BFB1FA81F701FA07F6B0FA04
:100A200080F700FA07F6C7F120071EBF20FA07FC7F
:100A300046EA0C062037B6FBF4FCA7EB0507103F8F
:100A400007F01F0BCBF120060CFA0BFB2CFA06F675
:100A500044BFB3460026202FA4BF5E464FF0000BD4
:100A60005BEA060C08BF4FF0010B19EB0B09ABFB5F
:100A7000027C48EB0608C01B06FB02CC0BFB03CC38
:100A800071EB0C01C1E70B46024641464846BDE802
:100A9000F08B13B54FF000004FF00001AFF3008072
:100AA000BDE81C40704710B5FFF782FF006810BD1D
:100AB00010B50446FFF77CFF046010BD09684A05C5
:100AC00001D540B27047C905FCD500B2704709682E
:100AD0004A0501D5C0B27047C905FCD580B2704740
:100AE0002DE9F0470D4699469246044600F1240848
:100AF0000168880604D5E06921F01001216000E05A
:100B00000120A84201DD471B00E00027A1697A19F6
:100B100002EB0900081AA0612078C00602D4204622
:100B2000FFF798FC002608E0D4E901211AF8060036
:100B30009047206A401C761C20624E45F4DB2078EA
:100B4000C0060AD52046FFF785FC06E0D4E901215E
:100B500030209047206A401C2062381EA7F1010710
:100B6000F4DC07E0D4E9012118F805009047206A79
:100B7000401C2062281EA5F10105F3DC2046FFF78A
:100B80007FFC2078000602D50220BDE8F087012016
:100B9000FBE711680268006A530501D508700AE096
:100BA000D30501D5088006E0130603D5C217C1E9B5
:100BB000000200E008600120704770472DE9FF4FF8
:100BC0000C461E464FF0FF378BB0D2E90001DDF82E
:100BD00060800A908A46C1F30A5505B93D46002156
:100BE00008464FF00000BAF1000F00F4400005DAAB
:100BF00000EB80004FF4400101EA50004FEA9059A9
:100C0000B9F1010F00DDB9460A9850EA4A000ED04A
:100C100044F61050A5F2FF3545432F14B8F1000FEC
:100C20001ED07542291E1EDDC9F100021CE0B8F17C
:100C3000010F4FF0000001D0302103E0F24305E046
:100C40002154401CB042FBDB3046002200212154DD
:100C50000B99C1F80880C1E900200FB0BDE8F08F02
:100C6000BD1B6D1CDEE74A4600DA694206A800F0AB
:100C70002BFC06AB93E8070003AB83E80700504664
:100C80000A9900F033FD8DE80700A0F500501F38E9
:100C900000900398002D0ADD42F21F014A460844E5
:100CA000002303A90390684600F09CFF09E0A0F52B
:100CB00000504A461F38002303A90390684600F0FD
:100CC000A6FF8DE807000004000C03D04FF0FF30B2
:100CD000410800E01046B8F1000F03D00022009256
:100CE00015461EE0751E05D400F002FB3032625539
:100CF0006D1EF9D5B3460122084302D000227F1CA5
:100D000004E02078302801D100227F1E002A0997B4
:100D100084D01DE0112D07DA00F0EAFA3032625576
:100D20006D1C50EA0102F5D1084302D00098C8B109
:100D30000EE00021681E05E0235C625C63542254CF
:100D4000401E491C8142F7DBAB46A81B401E0990A0
:100D5000002004F80B000B98099AC0F80880C0E93D
:100D6000002B7AE711264FF0000857E72DE9F04FE6
:100D700088460446D21D22F0070191B0D1E9000156
:100D8000CDE90A0104F064FE02460B98C00F01D0C1
:100D90002D2007E02068810701D52B2002E02021CB
:100DA00001EAC000032A099001D0072A05DB0346A7
:100DB0004146204600F0E2FA0BE12078800601D59A
:100DC000E06900E00620B8F1650F814606D0B8F171
:100DD000660F18D0B8F1670F70D131E00020B9F17B
:100DE000110F009001DB112301E009F101030AAAB0
:100DF00001A90CA8FFF7E2FEDDE90C70002609F15D
:100E00000105834647E001204B4600904FF0004724
:100E10000AAA01A90CA8FFF7D1FEDDE90DB00C99D3
:100E20005D46002610B909F101000D18B9EB050067
:100E300003D4C0F1FF3609F10105A5EB09002BE051
:100E4000B9F1010F01DA4FF001090020B9F1110FDA
:100E50000090484601DD112300E003460AAA01A9DB
:100E60000CA8FFF7ABFEDDE90C704D46002683466B
:100E7000207800070AD4AB4500DA5D4601A8012DB1
:100E800004DD411911F8011C302907D04F4502DA61
:100E900017F1040F04DA012082460FE06D1EEEE721
:100EA000002F02DCED1B3E4403E0781CA84200DD6D
:100EB0007D1CB81B00F1010A4FF0004720780007A5
:100EC00003D4AA4501DB4FF0FF3A0021B7F1004FF0
:100ED0000DF143088DF8431024D002202B23002F5E
:100EE00001DA7F422D230A21021EA0F1010000DC5D
:100EF0005FB197FBF1FC97FBF1F201FB1C7C1746FD
:100F00000CF1300C08F801CDEEE7A8F101000370F8
:100F10002188090501D5452100E06521A0F10108DE
:100F200000F8011C09980FA9A1EB0807FF1D00B1EB
:100F30000120411901EBEA70A1693844081A401EEA
:100F4000A0612078C00602D42046FFF783FA0998F2
:100F500028B1D4E901219047206A401C2062207802
:100F6000C00622D52046FFF775FA1EE0002E04DBEE
:100F7000B34502DD01A8805D00E03020D4E9012105
:100F80009047206A401C2062761CAAF101005FEAAB
:100F9000000A0AD100F0A8F9C0680168405CD4E9F1
:100FA00001219047206A401C2062281EA5F10105FE
:100FB000DCDC07E0D4E9012118F8010B9047206A36
:100FC000401C2062381EA7F10107F3DC2046FFF722
:100FD00057FA032011B041E601694A1C0261087802
:100FE000704700B58FB0CDE9013100210591054969
:100FF0007944CDE9031011466846FFF701FB0FB0B5
:1010000000BD0000E5FFFFFF0A6802F8010B0A605F
:101010007047D1E900239A4202D2531C0B60107032
:10102000704710B5436913B1AFF3008001E0FFF7DB
:1010300038FA012010BD127800F124010A70002254
:101040004A700122EDE711684FF0FF32E9E7000036
:10105000074B70B50D467B44FFF7C3FF0446284697
:1010600000F0A4FA10B14FF0FF3070BD204670BD03
:10107000CF5E00002DE9FF5F15468A460446DFF883
:10108000AC80F8440027D8E900103E46CDE90010B6
:1010900010E03AF816106A4602A800F08BFA411CDC
:1010A00007D02178890603D5E269391891420DD815
:1010B0000744761C2078800602D5E069B84205DD39
:1010C000AE42E6DB3AF816000028E2D1A069C01B68
:1010D000A0612046FFF7BEF9D8E90010CDE9001065
:1010E000002017E03AF818106A4602A800F062FAE9
:1010F000B0F1FF3F81460BD000250DF1080B05E054
:10110000D4E901211BF8050090476D1C4D45F7D32C
:1011100008F10100B0428046E4DB206A38442062D6
:101120002046FFF7ADF9BDE8FF9F0000BADB0000E5
:101130002DE9F0418046D21D22F007020025D2E9B8
:101140000002F52915A614D0011E72F1000106DA7D
:101150000023D0EB030063EB020211A608E0D8F8ED
:1011600000108B0701D50FA602E0490701D50EA696
:1011700001251146002408F1240704E000F0B8F826
:1011800030323A55641C50EA0102F7D12B46324600
:1011900021464046BDE8F041FFF7A2BC0000000038
:1011A0002D0000002B0000002000000030B40021C2
:1011B00000F1240408E002F00705D208303542EAC5
:1011C0004372DB086554491C52EA0305F3D10468F5
:1011D000002310A2250707D5A40600D421B1C469B5
:1011E00001230DA2641EC46130BCFFF779BC10B5A9
:1011F000044621461068FFF76AFC02462046BDE817
:1012000010400023D2E7D21D22F00701D1E90023CC
:10121000CCE7000000000000300000002DE9F0479E
:1012200091460F4680460446002614F8015B2DB116
:1012300000F052F80068405DC007F6D12B2D02D0B7
:101240002D2D18D0641E4A463946204600F0ECF891
:1012500027B13968A14201D1C7F800804FF00204DC
:1012600071050BD54042002803DDFFF7A1FB0460A8
:10127000A007BDE8F08746F48066E4E70028F8DAC6
:10128000FFF796FB04606FF00040F2E74FF00002BA
:101290000429C0F0128010F0030C3FF460ABCCF1D5
:1012A000040CBCF1020F18BF00F8012BA8BF20F8F6
:1012B000022BA1EB0C01FFF752BB5FEAC17C24BFFC
:1012C00000F8012B00F8012B48BF00F8012B7047F4
:1012D000004870474879002010B500F005F8001D5F
:1012E00010BD00BFADB00000004870476879002015
:1012F00030B5B0F10A024FEA900E71F100034EEAE8
:10130000817EB0EB0E0061EB91014FEA101E4EEAB8
:10131000017E10EB0E0041EB11114FEA102E4EEA48
:10132000016E10EB0E0041EB11214FEA104E4EEA18
:10133000014E10EB0E0041EB1141401841F100014C
:101340004FEAD00040EA41704FEAD10110EB80052E
:101350004FEA810444EA907444EB01046D1944EBB4
:101360000404521BA3414FF0000348BF0A3200D5CA
:1013700030BD401C41F1000130BD00002DE9F041BD
:101380001F46044603260168072A01F4006004DBB7
:1013900008B116A505E016A503E008B115A500E003
:1013A00015A521F010002060A069C01EA0610FB13A
:1013B000401EA0612046FFF74DF84FB1D4E901214E
:1013C00038469047206A401C2062C01C206206E01C
:1013D000206AFAE7D4E9012115F8010B9047761E3F
:1013E000F8D22046FFF74CF8BDE8F0814E414E00A0
:1013F0006E616E00494E4600696E660010B5436925
:1014000013B1AFF3008001E0FFF734FE012010BDFF
:10141000128800F1240182840022C2840122EDE7B7
:1014200011684FF0FF32E9E72DE9F05F824615467B
:101430008B4600270AF10104B9460078302801D014
:101440009DB113E014F8010B0127782803D0582828
:1014500001D045B10AE00DB1102D07D1002714F8D5
:10146000010B102502E0082500E00A250026B04601
:101470000EE005FB080005FB06F101271FFA80F8C6
:1014800001EB1046B6F5803F00D3B94614F8010BC6
:10149000294600F0D4F80028EBDABBF1000F05D0A4
:1014A0000FB1641E00E05446CBF80040B9F1000FC4
:1014B00006D0FFF77DFA02210160C81EBDE8F09F4B
:1014C00048EA0640FAE700002DE9F0478146164653
:1014D0008AB0354878440DC88DE80D00324878440C
:1014E000801C03AC0DC884E80D0041F69B30084415
:1014F000372190FBF1F290FBF1F5A5F1800501FB9E
:1015000012041B3C02D56442012000E00020DFF8F9
:1015100098A080460027FA44AAF1BE0A0EE0E00730
:101520000AD03246684607EB470101230AEB8101E6
:1015300000F06DFB8DE8070064107F1C002CEED1DD
:10154000194F7F44AE3F19E0E80715D007EB0410B0
:101550000DF1180A90E80E008AE80E00C068F0420B
:1015600001D1981908903246012306A903A800F07A
:101570004EFB03AB83E807006D10641C002DE3D124
:101580004FF0010332466946B8F1000F03A802D0BC
:1015900000F028FB01E000F03AFBC9E90001C9F8BE
:1015A00008200AB0BDE8F0878CD80000007B00F06E
:1015B0008000704770B516460C460546FFF78CFE56
:1015C000036893F80101012806D0FF2C0FD8185D9D
:1015D00068B101202C7070BDD3F807013246214656
:1015E00003F2071303442846BDE8704018474FF044
:1015F000FF3070BD7546FFF76BFEAE4605006946CD
:10160000534620F00700854618B020B5FEF7AEFE21
:10161000BDE820404FF000064FF000074FF00008F3
:101620004FF0000B21F00701AC46ACE8C009ACE874
:10163000C009ACE8C009ACE8C0098D4670473A283B
:1016400000D2303820F02002412A01D3A2F1370025
:10165000884201D34FF0FF30704710B50446AFF316
:1016600000802046BDE81040FEF71FBE4FF0013C51
:1016700050F8042B51F8043B9A4221D1A2EB0C0301
:10168000934313EACC1317D150F8042B51F8043BC1
:101690009A4215D1A2EB0C03934313EACC130BD15E
:1016A00050F8042B51F8043B9A4209D1A2EB0C03E9
:1016B000934313EACC13DBD04FF00000704700BF18
:1016C000D01A01BAB1FA81F101F0180122FA01F041
:1016D000CB40C1F12001DBB2C0B2C01A2CFA01F339
:1016E000D11A914311EAC311E6D170475FEA400C69
:1016F00008BF91F0000F4FEA8C234FEAC12243EA62
:1017000051514FEA1C5018BF00F5F0404FEA30002D
:1017100018BF41F000415FEA6C5C00F02980BCF129
:10172000FF3F08BF40F080407047130C06BF120413
:101730004FF0100C4FF0000C130E04BF12020CF10E
:10174000080C130F04BF12010CF1040C930F04BF1B
:1017500092000CF1020CD30F04BF52000CF1010CEB
:1017600011464FF00002A0F11F00A0EB0C007047E3
:1017700011F0004F08BF704731F000413FF4D5AF82
:101780000B0C06BF09044FF0100C4FF0000C0B0EB1
:1017900004BF09020CF1080C0B0F04BF09010CF186
:1017A000040C8B0F04BF89000CF1020CCB0F04BF9B
:1017B00049000CF1010CCCF12003A0EB0C0022FA43
:1017C00003F302FA0CF241EA030100F10100704751
:1017D00020F07F4C80EA030023F07F47ACEB070347
:1017E00003F57C5300F0004003F1FF032DE980492D
:1017F0004FEA154B09B44FEA144325EA0B4E24EA8D
:1018000003480FF2042606EB132749083E785FEAE7
:10181000320203FB0667C7F5000707FB06F64FEA2F
:1018200054374FEAD64606F1020607FB066CCCF1A8
:10183000005C4FEA1C472CEA074C07FB06F40CFB44
:1018400006F504EB15464FEA961634BF00204FF01C
:1018500000404FEAD13706FB07FC4FEA1C4C0CFB5B
:101860000BF7D21B03FB0CF761EB07010CFB0EF728
:10187000B0EB074072EB17420CFB08F734BFA2EB4A
:101880000742B2EB074261EB17414FEA0C444FEAC3
:10189000910706FB07FC4FEA1C4C0CFB0BF7B0EB67
:1018A000C74072EB573203FB0CF734BFA2EBC742C1
:1018B000B2EBC74261EB57310CFB0EF7B0EBC70040
:1018C00072EB57720CFB08F734BFA2EBC702B2EB06
:1018D000C70261EB5771039F4FEA816141EA9211A0
:1018E00004EBCC044FEAD1374FEA826206FB07FCD7
:1018F00042EA90124FEA80604FEA1C4C0CFB0BF757
:10190000D21B03FB0CF761EB07010CFB0EF7B0EBEE
:10191000074072EB17420CFB08F734BFA2EB0742FB
:10192000B2EB074261EB17414FEA8C554FEA910742
:1019300004EB9C2406FB07FC4FEA1C4C0CFB0BF74A
:10194000B0EBC74072EB573203FB0CF734BFA2EB8E
:10195000C742B2EBC74261EB57310CFB0EF7B0EB5D
:10196000C70072EB57720CFB08F734BFA2EBC7023B
:10197000B2EBC70261EB577115EB4C254FEA816161
:1019800041EA92114FEA82624FEAD13742EA90125D
:1019900006FB07FC44F100044FEA80604FEA1C4C50
:1019A0000CFB0BF7D21B03FB0CF761EB07010CFBE5
:1019B0000EF7B0EB074072EB17420CFB08F734BF91
:1019C000A2EB0742B2EB074261EB174115EB1C1586
:1019D0004FEA813141EA92414FEA823242EA904233
:1019E0004FEA80304FEA0C7644F1000448EA0343A2
:1019F0004EEA0B484FF0000EB2EB080C71EB0307F8
:101A000024BF624639464EEB0E0E4FF0000B001815
:101A1000524149414BEB0B0BB2EB080C71EB030746
:101A20007BF1000B24BF624639464EEB0E0E4FF0A1
:101A3000000B0018524149414BEB0B0BB2EB080C69
:101A400071EB03077BF1000B24BF624639464EEB76
:101A50000E0E51EA020718BF46F0010616EB0E768D
:101A600055F1000254F1000103D5BDE88901BDE83C
:101A70000088BDE88901BDE80048B619524141EB34
:101A80000101A3F10103704780807F7E7D7C7B7A1A
:101A90007978777676757473727171706F6E6E6D1A
:101AA0006C6C6B6A6A6968686766666564646363C0
:101AB00062616160605F5F5E5E5D5D5C5C5B5B5A46
:101AC0005A595958585757565655555554545353B3
:101AD00052525251515050504F4F4F4E4E4D4D4D0E
:101AE0004C4C4C4B4B4B4A4A4A4949494848484759
:101AF0004747474646464545454444444443434397
:101B00004342424242414141002B9C4630D477003F
:101B10002BD01CB54FEA370703B44FF010004FF03D
:101B20001001BAF1000F06D0BCF1000FDCBF40F08D
:101B3000080040F008014FF000000FBCBDE8104065
:101B40000BF1010BBBF1010F08BF5FEA170722BFC2
:101B500012F1010211F101014FF0004143F10003C4
:101B600000F0004043EA00007047F9D35708D0E77F
:101B700046EA064613F1400F4FEA16461FDD13F101
:101B8000200FDFBF16430A46002120335B42BED040
:101B9000C3F1200746EA064602FA07F74FEA16465F
:101BA00046EA0706C3F1200722FA03F201FA07F713
:101BB00021FA03F14FF0000342EA0702A7E746EAE1
:101BC000020646EA06464FEA164646EA0106BCBF4A
:101BD00046EA0646360C4FF000034FF000024FF085
:101BE000000194E72DE9804C9A46934670B491E841
:101BF000380007C831EA400C48BF34EA430C03D52B
:101C0000FFF7E6FDFFF780FFF0BCBDE8008C2DE993
:101C1000804C9A46934670B491E8380007C810F09B
:101C2000804F08BF13F0804F03D100F005F8FFF795
:101C30006BFFF0BCBDE8008C20F07F4780EA03001A
:101C400023F07F4C07EB0C03A3F57C5300F000401E
:101C5000A3F1FE0392F0000F00F0B38095F0000FA7
:101C600000F077802DE901494FEA11404FEA144610
:101C700021EA004800FB06FC24EA064708FB06F6BA
:101C800007FB08F800FB07F718EB06484CEB164C6F
:101C90004FEA124B18EB07484FEA15464CEB17403A
:101CA00022EA0B4E0BFB06FC25EA06470EFB06F666
:101CB00007FB0EFE0BFB07F71EEB064E4CEB164C1C
:101CC0004FF000061EEB074E4CEB174B18EB0B08C2
:101CD00040F1000018EB0E0B58EB000840F100003B
:101CE0008F1A4FF000013CBFC943661B14BFB5EB10
:101CF000040C00213CBFC943F61B4FEA17444EEACF
:101D00008E0E27EA04454FEA1C4704FB07622CEAC3
:101D1000074C05FB07F70CFB05F604FB0CFC16EB68
:101D2000074642EB174216EB0C4642EB1C421BEBFC
:101D3000060658EB0202414146EA9E0601D5BDE87F
:101D40000189B619524141EB0101A3F10103BDE83C
:101D500001894FEA14454FEA114724EA054621EA72
:101D6000074C05FB07F406FB07F70CFB06F105FB28
:101D70000CFC11EB074144EB17444FEA124711EBFF
:101D80000C4144EB1C4422EA074C05FB07F206FB1E
:101D900007F70CFB06F605FB0CFC16EB074642EBBF
:101DA000174216EB0C4642EB1C456A1854F1000131
:101DB00048BF7047B619524141EB0101A3F101033D
:101DC000704795F0000F37D04FEA11424FEA1447A1
:101DD00021EA024624EA074C02FB07F106FB07F75B
:101DE0000CFB06F402FB0CFC14EB074441EB17411F
:101DF0004FEA154714EB0C4441EB1C4125EA074C14
:101E000002FB07F506FB07F70CFB06F602FB0CFCD2
:101E100016EB074645EB174516EB0C4645EB1C4207
:101E2000121951F1000148BF7047B619524141EBF8
:101E30000101A3F1010370474FEA14454FEA11472E
:101E400024EA054621EA074C05FB07F106FB07F7E4
:101E50000CFB06F24FF0000605FB0CFC12EB0742F0
:101E600041EB174112EB0C4251EB1C4148BF70474C
:101E7000921841EB0101A3F10103704700B587B04F
:101E800001214FF4017002F04FF84FF4004002F0CE
:101E90000FF81020ADF8040000208DF8070001A90C
:101EA000224800F06DFE224800F05EF8002002900B
:101EB0008DF80C0001208DF80D004FF46020049087
:101EC0000020059001208DF8180002A9184800F0A4
:101ED0008DF80123174A16494C31174801F049FD86
:101EE000022301220421124800F0A8F80121104821
:101EF00000F02FF801210E4800F020F80C4800F007
:101F0000F9F800BF0A4800F067F80028FAD108483D
:101F100000F000F900BF064800F054F80028FAD19C
:101F20000121034800F0EBF807B000BD00080140B4
:101F300000240140D40F00200800024021B1826833
:101F400042F00102826003E0826822F001028260B6
:101F5000704721B1826842F48072826003E0826837
:101F600022F480728260704710B5044612488442A1
:101F700008D10121401501F0E7FF0021601501F0B3
:101F8000E3FF17E00D48844208D10121001501F05C
:101F9000DBFF0021201501F0D7FF0BE00848844249
:101FA00008D10121C80301F0CFFF00214FF4004008
:101FB00001F0CAFF10BD00000024014000280140CC
:101FC000003C0140014600208A6802F004020AB188
:101FD000012000E000207047014600208A6802F0DE
:101FE00008020AB1012000E00020704730B5024627
:101FF0000020002350680F4C20400D790C6844EA03
:1020000005242043506090680B4C2040D1E90254D5
:102010002C434D7944EA450420439060D06A20F473
:1020200070000C7C641EE4B2234340EA0350D0628B
:1020300030BD0000FFFEF0FFFDF7F1FFF0B50446F4
:102040000D4600200021092D11DDE068A5F10A06EA
:1020500006EB4607072606FA07F18843A5F10A06AC
:1020600006EB460603FA06F10843E0600CE020693F
:1020700005EB4507072606FA07F1884305EB4506F9
:1020800003FA06F108432061072A0FDA606B561E37
:1020900006EB86071F2606FA07F18843561E06EB55
:1020A000860605FA06F10843606322E00D2A0FDA7E
:1020B000206BD61F06EB86071F2606FA07F188431A
:1020C000D61F06EB860605FA06F10843206310E0EA
:1020D000E06AA2F10D0606EB86071F2606FA07F155
:1020E0008843A2F10D0606EB860605FA06F10843C1
:1020F000E062F0BD816841F008018160704721B164
:10210000826842F4A002826003E0826822F4A002A6
:1021100082607047816841F00401816070472DE959
:10212000F04104460D4616461F462A2000F0D6FF11
:10213000C4F3072000F0C4FFE0B200F0C1FFC6F313
:10214000072000F0BDFFF0B200F0BAFF2B2000F036
:10215000C5FFC5F3072000F0B3FFE8B200F0B0FF01
:10216000C7F3072000F0ACFFF8B200F0A9FF2C2065
:1021700000F0B4FFBDE8F08108B50121082001F0AE
:10218000D3FE4FF40040ADF8000010208DF803009E
:1021900003208DF802006946064800F0F1FC4FF478
:1021A0000041044800F0CBFD4721092002F0D8FD92
:1021B00008BD0000000C01402DE9F04F87B0044637
:1021C0000E4691461D460120A07549464FF07E50AF
:1021D0000AF0A8FF83460AF00BFF074600222F4BA8
:1021E0000AF0F6FBC4E90001C6F164000AF089FBBD
:1021F000CDE90001D4E900733A460AF0E9FB002278
:10220000274BCDE902010AF0C7F9CDE904010AF034
:102210004BFB1FFA80FAA4F812A0D4E90001C4E92C
:10222000020149464FF07E500AF07CFF1D4905909F
:102230000BF00AF980464FF47A7105FB01F00BF0C0
:10224000A3F8834641460AF06DFF07460BF060F89D
:10225000208249464FF07E500AF064FF11490490F5
:102260000BF0F2F883464FF47A7105FB01F00BF0A6
:102270008BF8594605900AF055FF80460BF048F858
:1022800007463A46514608A0FEF7C2F801210A481F
:1022900002F0CEF907B0BDE8F08F000080842E4137
:1022A0000000594000247449766F3A25642C206A56
:1022B000703A25640D0A0000002C014010B54FF45F
:1022C0009673034A46210348FFF776FF10BD0000CE
:1022D00000007A45D80F002000BFFEE770B5044625
:1022E0000D46012D06D0022D24D0032D45D0042DFE
:1022F0007DD162E054B900203E49086001203E498A
:10230000C1F884013DA0FEF783F812E0012C0AD148
:1023100001203849086000203749C1F8840138A0FD
:10232000FEF776F805E00020324908603249C1F82E
:1023300084015CE05CB900202E490831086001206E
:102340002D49C1F88C012FA0FEF762F814E0012C92
:102350000BD1012027490831086000202649C1F827
:102360008C0129A0FEF754F806E00020214908312D
:1023700008602149C1F88C0139E05CB900201D4991
:102380001031086001201C49C1F894011FA0FEF71C
:102390003FF811E0012C08D10120164910310860E6
:1023A00000201549C1F8940106E0002011491031C0
:1023B00008601149C1F8940119E03CB901201449A1
:1023C000086000201349C1F884010FE0012C07D1F7
:1023D00000200F49086001200E49C1F8840105E082
:1023E00000200B4908600B49C1F8840100BF00BF01
:1023F00070BD00008001224200002242310D0A001F
:10240000320D0A00330D0A00340D0A00350D0A00A2
:1024100080812142008021422DE9FC5F81460C46EB
:1024200093464FF0000A204600F000F948460AF0B3
:102430007FFA07461B4A1C4B0AF0AEF800221B4BE2
:10244000CDE900010AF0C4FA054609F0B7FF82465B
:10245000514604F1400007F07BFC514604F19C001A
:1024600007F076FC514604F1F80007F071FC514684
:1024700004F5AA7007F06CFC50460AF0B9FD054659
:102480002A460B4649460AA007F020FE022020708B
:1024900048460AF091FF2061012084F87601BDE8EA
:1024A000FC9F00000AB5A679C7292E400040904045
:1024B000676F2073746172696768742C64697374E0
:1024C000616E63653A2025642C2025660D0A0000A4
:1024D0002DE9F04104460025A84620690AF054FF82
:1024E0008046414604F13C0005F0E6F805460C49FB
:1024F00028460BF075F801D2094D05E00949284638
:102500000AF06EFF00D2074D28460AF071FD06461C
:1025100032460B4604A007F0D9FD2846BDE8F081FD
:102520000000F0420000F0C2636F6E743A25660D41
:102530000A0000002DE9FC5F82464FF0000B0020EE
:102540000190DAF800000AF01FFF00900AF050FD39
:1025500006460022134B0AF01FF804460022124BD5
:102560000AF036FA804609F029FF834658460AF0F9
:102570003FFD044622460B460CA007F0A7FD594636
:102580000AF11C0007F0E6FB019001980AF030FD0B
:10259000044622460B460AA0FDF73AFF0198BDE823
:1025A000FC9F00000040904000C092406163747541
:1025B000616C325F73706565643A25660D0A0000D0
:1025C000636F6E32745F76616C75653A25660D0ACD
:1025D0000000000070B50546284600F027F80024EA
:1025E00005E021460620FFF779FE601CC4B2042CEA
:1025F000F7DB00214FF0804002F01FFB00214FF07D
:10260000804002F01CFB00214FF0804002F019FBDB
:1026100000214FF0804002F016FB02A007F056FDAB
:1026200070BD0000CDA3D6B90D0A000070B50446F8
:10263000002539E00021C5EBC50000EB0512201D87
:1026400000EB82008160C5EBC50000EB0512201D88
:1026500040F82210C5EBC50000EB0512201D00EB71
:1026600082004160C5EBC50000EB0512201D00EBA8
:1026700082004161C5EBC50000EB0512201D00EB97
:1026800082008161C5EBC50000EB0512201D00EB47
:102690008200C160C5EBC50000EB0512201D00EBF8
:1026A00082000161681CC5B2042DC3DB01F068FB28
:1026B00006202070002084F8760170BD10B520201F
:1026C00000F020F970B1202000F05CF840210648AD
:1026D00002F010FF0021054800F062F800200449D4
:1026E00081F87C0510BD0000004800401C0002403D
:1026F000E208002010B54FF4005000F003F970B16B
:102700004FF4005000F03EF84021054802F0F2FE80
:102710000021044800F044F800200349087010BD6F
:1027200000380140440002401D05002010B50EA0F5
:10273000FDF76EFE4FF0007000F0E4F890B10CA0D1
:10274000FDF766FE4FF0007000F01CF840210A48CB
:1027500002F0D0FE0021094800F022F800200849CC
:1027600081F8240310BD000033330D0A000000007F
:1027700032320D0A00000000004400408000024098
:10278000BC05002000F0805111B10349086001E050
:102790000249486070470000040402400000024003
:1027A00021B1026842F00102026004E002684FF6C3
:1027B000FE731A400260704701684FF6FE721140C6
:1027C00001600021016041608160C1604B49884225
:1027D00008D14A490839496841F00F01474A083A87
:1027E00051608AE045491431884208D1434908398B
:1027F000496841F0F001414A083A51607DE03F49A3
:102800002831884208D13D490839496841F470614E
:102810003A4A083A516070E038493C31884208D160
:1028200036490839496841F47041344A083A5160E0
:1028300063E032495031884208D13049083949684B
:1028400041F470212D4A083A516056E02B49643119
:10285000884208D129490839496841F47001274A5A
:10286000083A516049E025497831884208D1234926
:102870000839496841F07061204A083A51603CE0EB
:102880001F49884206D1011F096841F00F01021F4C
:10289000116032E01A491431884208D11849091FE1
:1028A000096841F0F001164A121F116025E0144931
:1028B0002831884208D11249091F096841F4706122
:1028C0000F4A121F116018E00D493C31884208D1AF
:1028D0000B49091F096841F47041094A121F116030
:1028E0000BE007495031884207D10549091F0968A3
:1028F00041F47021024A121F116070470800024023
:102900000804024001460020002201F0805313B168
:10291000054B1A6801E0054B1A6802EA01030BB186
:10292000012000E000207047000402400000024047
:102930001AB103680B43036002E003688B43036032
:10294000704710B50022026847F6F0739A430C6A8C
:102950008B6823430C6923434C6923438C692343CD
:10296000CC6923434C6A23438C6A23431A43026095
:10297000CB6843600B6883604B68C36010BD000088
:1029800070B505460C4600BF074800780028FBD10B
:102990000120054908700548056584640121034844
:1029A0004430FFF7FDFE70BD1D0500200000024011
:1029B00070B505460C4602E00BA0FDF729FD0C485A
:1029C00090F824030028F7D10120094981F8240355
:1029D0000848056007488C38C0F884400121054844
:1029E0000C38FFF7DDFE70BD31310D0A000000002C
:1029F000BC0500208C0002407047000038B54FF441
:102A000080410A4800F090F950B9694608480068CA
:102A100008F05CFE0446012C02D006A0FDF7F8FC8D
:102A20004FF4804000F03CF838BD0000000C01403D
:102A300074000020676976652066726F6D20697387
:102A4000722062696E73656D61206572726F720DBE
:102A50000A00000008B50A2003F080FC4FF4007162
:102A60000D4800F061F928B96A4601210B48006859
:102A700008F078FA4FF48071074800F055F928B94A
:102A80006A4602210548006808F06CFA4FF440706D
:102A900000F006F808BD000000100140780000209A
:102AA00001490860704700001404014000212349D7
:102AB0008279002A3AD00A46126803689A430B4684
:102AC0001A600A1D126803689A430B1D1A60027986
:102AD00011440A6803681A430A60184A08321268E7
:102AE00003689A43154B08331A601A1D126803686D
:102AF0009A43124B0C331A604279102A0ED11A1FD6
:102B0000126803681A430D4B08331A601A1D1268C5
:102B100003681A43094B0C331A600DE007494279E8
:102B200011440A6803681A430A6005E002791144F7
:102B30000A6803689A430A60704700000004014075
:102B400030B500228B071C0F0F2303FA04F20B4B46
:102B50008C1053F824309343084C8D1044F82530E2
:102B600023468C1053F824308C07240F00FA04F409
:102B70002343024C8D1044F8253030BD080001403D
:102B80002DE9F04102460025002600200023002404
:102B9000002791F803C00CF00F0591F803C00CF06A
:102BA000100CBCF1000F03D091F802C04CEA0505EF
:102BB00091F800C0BCF1000F31D0146800202BE068
:102BC0004FF0010C0CFA00F3B1F800C00CEA030658
:102BD0009E4220D183004FF00F0C0CFA03F7BC4348
:102BE00005FA03FC4CEA040491F803C0BCF1280F79
:102BF00006D14FF0010C0CFA00FCC2F814C00AE038
:102C000091F803C0BCF1480F05D14FF0010C0CFA4C
:102C100000FCC2F810C0401C0828D1D31460B1F8E1
:102C200000C0BCF1FF0F34DD546800202EE000F13D
:102C3000080C4FF0010808FA0CF3B1F800C00CEAD8
:102C400003069E4221D183004FF00F0C0CFA03F7CC
:102C5000BC4305FA03FC4CEA040491F803C0BCF140
:102C6000280F05D100F1080C08FA0CF8C2F81480FE
:102C700091F803C0BCF1480F07D100F1080C4FF0E8
:102C8000010808FA0CF8C2F81080401C0828CED3BE
:102C90005460BDE8F0810000F0B50A46002300242E
:102CA0000021002500F00046B6F1004F02D11D4E74
:102CB000F16901E01B4E7168C0F3034583B200F473
:102CC0004016B6F5401F08D121F07061154E7668A8
:102CD00026F07066134F7E6012E000F48016B6F5A1
:102CE000801F06D1032606FA05F4A14341F0706166
:102CF00006E0460D360103FA06F6B14341F0706175
:102D000022B1460D360103FA06F6314300F00046C3
:102D1000B6F1004F02D1034EF16101E0014E716046
:102D2000F0BD0000000001400246002093680B4007
:102D30000BB1012000E00020704741617047016144
:102D4000704700002DE9FC478246884691461F46A1
:102D500000262FE049465046FDF723FD041E24D0EF
:102D6000641C49462046FDF71CFD051E19D02A1B90
:102D700021466846FDF772FD26B96846FDF704FD59
:102D8000388009E0012E04D16846FDF7FDFC78800B
:102D900002E00AA007F09AF9AA46002000900190EC
:102DA00006E010A007F092F902E012A007F08EF9F9
:102DB000701CC6B24645CDDBBDE8FC87C3BBD3D093
:102DC000B6A8D2E5B5DAC8FDB8F6B2CECAFD4765F9
:102DD000745F446174615F46726F6D5F4275660D2A
:102DE0000A000000CAFDBEDDB8F1CABDB4EDCEF3E5
:102DF0000D0A000063616E6E6F742066696E642058
:102E00006B65795F776F72642121210D0A000000E4
:102E100000BFFEE710B510210748FFF790FF202103
:102E20000548FFF78CFF20210348FFF786FF10219C
:102E30000148FFF782FF10BD000C014010B51021C2
:102E40000548FFF77CFF20210348FFF776FF20218C
:102E50000148FFF774FF10BD000C014010B51021B0
:102E60000348FFF76CFF10210148FFF766FF10BD14
:102E7000000C01401FB50121142001F055F801217B
:102E8000084601F051F801212748FFF705FF4FF4EC
:102E90000070ADF80C0048208DF80F0003A92348FE
:102EA000FFF76EFE4FF48070ADF80C0048208DF8EF
:102EB0000F0003A91D48FFF763FE09210220FFF759
:102EC0003FFE4FF40070019000208DF808000C20A8
:102ED0008DF8090001208DF80A0001A8FFF7E6FD32
:102EE00008210220FFF72CFE4FF480700190002093
:102EF0008DF808000C208DF8090001208DF80A00DB
:102F000001A8FFF7D3FD17208DF8000008208DF8E9
:102F1000010000208DF8020001208DF803006846B2
:102F200000F01EFE1FBD0000000230000010014036
:102F300070B50646EF231A4600210846FFF7EFF862
:102F4000002408E0002503E0304600F0A7F86D1CDF
:102F5000F02DF9D3641CF02CF4D370BD70B5044689
:102F60000D462B46224629462046FFF7D8F8024850
:102F7000006800F093F870BDDC0400202DE9F84FE4
:102F800005460F4616469A46AB4632480068009002
:102F9000E02D01D8E02F01D9BDE8F88FA6F120007F
:102FA000C6B207F10F03EA1D39462846FFF7B7F806
:102FB000BAF1000F29D1002424E004EB06102649C1
:102FC00011F800904FF0000815E009F0010018B169
:102FD00020490098086003E0204800681D49086007
:102FE0001C48006800F05AF84FEA69096D1C08F1A6
:102FF000010000F0FF08B8F1080FE6DB5D467F1C1A
:10300000601CC4B2102CD8DB1EE000241AE004EBD4
:103010000610114911F800904FF000080DE009F07A
:10302000010020B1391905EB0800FFF797FF4FEABF
:10303000690908F1010000F0FF08B8F1080FEEDBA4
:10304000601CC4B2102CE2DB02490098086000BF8B
:10305000A2E70000DC0400207CD90008D80400208E
:1030600070B505460E46144614E0E02D01D9002542
:103070001036E02E06D90020054606464FF478406B
:10308000FFF756FF2278002331462846FFF776FFE8
:103090000835641C20780028E7D170BD10B50446BF
:1030A0004FF400610548FFF74AFEC4F3072000F023
:1030B00023F8E0B200F020F810BD00000008014045
:1030C00010B504464FF400610348FFF738FE204670
:1030D00000F012F810BD00000008014010B50446D1
:1030E0004FF400610348FFF728FE204600F004F883
:1030F00010BD00000008014070B5044600251BE02B
:103100004FF480410E48FFF718FE04F0800028B10C
:103110004FF400510A48FFF712FE04E04FF400514B
:103120000748FFF70AFE4FF480410548FFF707FE06
:103130006006040E681CC5B2082DE1DB70BD0000FE
:103140000008014008B50121042000F0EDFE4FF415
:103150008070ADF8000010208DF8030003208DF87A
:10316000020069460448FFF70BFD4FF480710248E6
:10317000FFF7E5FD08BD0000000801402DE9F04122
:10318000044625480078012829DB002022490870E0
:10319000201DFFF79DF9054604F16000FFF798F93F
:1031A000064604F1BC00FFF793F9074604F58C705E
:1031B000FFF78EF98046294604F1200006F0C8FD8D
:1031C000314604F17C0006F0C3FD394604F1D80015
:1031D00006F0BEFD414604F59A7006F0B9FD0E48B2
:1031E0000078401C0C490870201DFFF7A3F9A0616E
:1031F00004F16000FFF79EF9606704F1BC00FFF77F
:1032000099F9C4F8D00004F58C70FFF793F9C4F86D
:103210002C01BDE8F0810000960000201FB50121BF
:10322000082000F081FE48208DF803004FF4804014
:10323000ADF8000003208DF8020069461248FFF740
:103240009FFC0E210120FFF77BFC4FF48040029091
:1032500001208DF80E0000208DF80C000C208DF858
:103260000D0002A8FFF722FC28208DF804000120A1
:103270008DF807000E208DF8050000208DF806005F
:1032800001A800F06DFC1FBD000C01408AB019E0E0
:103290004FF0FF310C48006808F05AFB00F0ACF822
:1032A00007AA08A909A804F0E7FA04AA05A906A82C
:1032B00000F00CF801AA02A903A800F075F8052097
:1032C00003F008F8E4E70000740000202DE9F0475F
:1032D00088B004460D46164606AB06223B21682000
:1032E00000F071FA0746002F53D19DF819009DF8A0
:1032F000181040EA01200FFA80F89DF81B009DF895
:103300001A1040EA01200FFA80F99DF81D009DF87F
:103310001C1040EA01200FFA80FA404609F0F1FA49
:1033200000221E4BCDE9000109F036F91C4A1D4B65
:10333000CDE9020109F04CFBCDE9040109F03EF8AA
:103340002060484609F0DDFA0022144BCDE9000167
:1033500009F022F9124A134BCDE9020109F038FBBA
:10336000CDE9040109F02AF82860504609F0C9FAAD
:1033700000220A4BCDE9000109F00EF9084A094B79
:10338000CDE9020109F024FBCDE9040109F016F8AA
:103390003060384608B0BDE8F08700000000D0403B
:1033A0009A999999999923402DE9FC4104460D4633
:1033B00016466B4606224321682000F004FA0746B1
:1033C000BFB99DF801009DF8001040EA012000B24D
:1033D00020809DF803009DF8021040EA012000B211
:1033E00028809DF805009DF8041040EA012000B2F5
:1033F00030803846BDE8FC812DE9F84F6B4602224B
:103400004121682000F0DFF99DF801009DF80010CF
:1034100040EA01200FFA80FA504609F072FA80461D
:1034200000220B4B09F0B8F806460A4A0A4B08F08E
:10343000F7FF044608F0C2FF8346084958460AF0E1
:1034400003F8044609F064FF00B2BDE8F88F0000FD
:1034500000407540A4703D0AD74342400000C84276
:1034600010B500200E4908600E48006820F4700076
:103470000C4908600846006840F4401008600020CD
:103480000949C1F8B40100F011F8012004490860AD
:1034900000F00CF800200449C1F8B00110BD000094
:1034A000B0812142040C01400080214210B502206D
:1034B00002F030FF10BD000008B50121082000F027
:1034C00033FD4FF44050ADF8000010208DF803009C
:1034D00003208DF8020069460448FFF751FB4FF4C2
:1034E00040510248FFF72BFC08BD0000000C0140D2
:1034F00010B500200E4908600E48006820F47000E6
:103500000C4908600846006840F44010086001203B
:103510000949C1F8B401FFF7C9FF01200449086057
:10352000FFF7C4FF00200449C1F8B00110BD00003E
:10353000B0812142040C01400080214270B5054653
:1035400000241648006820F47000144908600846FA
:10355000006840F400000860002614E000201049D4
:103560000860FFF7A3FF01200E49C1F8B001600613
:10357000040E0B487C38006808B1601CC4B2FFF729
:1035800095FF701CC6B2082EE8DB15B9FFF7B0FF37
:1035900001E0FFF765FF204670BD0000040C01400C
:1035A000B08121420080214270B504461248006873
:1035B00020F47000104908600846006840F440108C
:1035C000086000200D490860002512E0E0090B4961
:1035D000091D08606006040E01200949C1F8B00108
:1035E000FFF764FF002005490860FFF75FFF681CD4
:1035F000C5B2082DEADB70BD040C0140B081214248
:103600000080214210B50E48006820F470000C497B
:1036100008600846006840F440100860012009492D
:1036200008600949C1F8B001FFF740FF00200549D3
:103630000860FFF73BFF00200349C1F8B00110BD4F
:10364000040C0140B48121420080214210B50E4893
:10365000006820F470000C4908600846006840F4D7
:10366000401008600020094908600949C1F8B40108
:10367000FFF71CFF0120054908600549C1F8B401A6
:10368000FFF714FF10BD0000040C0140B08121427F
:103690000080214210B500241448006820F4700016
:1036A000124908600846006840F4000008600120E4
:1036B0000F490860FFF7FAFE01200E49C1F8B0017A
:1036C000FFF7F4FE07E0601CC4B2FA2C03DDFFF73D
:1036D000BDFF012010BD0648803800680028F2D1E7
:1036E0000349091F086000BFF4E70000040C014013
:1036F000B48121420080214210B5FFF7DDFE802118
:103700006B2000F0E4F8642002F0E4FD00216B205F
:1037100000F0DDF8032000F098F8002000F08DF8AC
:10372000322000F0B7F80021382000F0D0F8002156
:103730006A2000F0CCF80021232000F0C8F8802196
:10374000372000F0C4F8752000F020F80446682CFB
:103750000FD121460BA0FCF75BFE01216B2000F08E
:10376000B6F800216C2000F0B2F8322000F092F898
:1037700005E0214603A0FCF74BFE012010BD002010
:10378000FCE7000069643A25780D0A0070B504462C
:10379000FFF738FFD020FFF707FFFFF77BFF20463A
:1037A000FFF702FFFFF776FFFFF72CFFD120FFF7AF
:1037B000FBFEFFF76FFF0020FFF7C0FE0546FFF797
:1037C00045FF284670BD2DE9F04106460F461446D8
:1037D0001D46FFF717FF002141EA4601C8B2FFF777
:1037E000E3FEFFF757FF20B1FFF730FF0120BDE8F0
:1037F000F0813846FFF7D8FEFFF74CFFFFF702FFD6
:10380000012101EB4601C8B2FFF7CEFEFFF742FFF0
:103810000DE0012C04D10020FFF790FE287003E09A
:103820000120FFF78BFE2870601EC4B26D1C002CB7
:10383000EFD1FFF70BFF0020D9E710B50446E006F3
:10384000010E1C2000F043F810BD10B50446E00640
:10385000010E1B2000F03BF810BD70B5044600259A
:10386000BC2C01DB012510E0622C01DB02250CE001
:103870002A2C01DB032508E0142C01DB042504E0DD
:103880000A2C01DB052500E0062529461A2000F058
:103890001EF870BD70B50446B4F57A7F01DD4FF4B3
:1038A0007A74042C00DA04244FF47A7090FBF4F05C
:1038B000401EC5B22946192000F009F805462646E3
:1038C00004EBD671C1F34F00FFF7C7FF70BD70B5B1
:1038D00005460C46FFF796FED020FFF765FEFFF782
:1038E000D9FE18B1FFF7B2FE012070BD2846FFF7E0
:1038F0005BFEFFF7CFFE2046FFF756FEFFF7CAFE3E
:1039000018B1FFF7A3FE0120EFE7FFF79FFE0020AD
:10391000EBE72DE9F04105460E4617469846FFF7BE
:1039200071FE002141EA4501C8B2FFF73DFEFFF7F5
:10393000B1FE20B1FFF78AFE0120BDE8F0813046DC
:10394000FFF732FEFFF7A6FE00240CE018F8040093
:10395000FFF72AFEFFF79EFE18B1FFF777FE012062
:10396000EBE7601CC4B2BC42F0DBFFF76FFE002047
:10397000E3E7F0B58BB007460C4615461E4601211D
:10398000084600F0A1FA3846FEF716FF00940195AC
:10399000002002900396049005904FF480700690EA
:1039A00080000790202008900002099000200A90D3
:1039B00069463846FEF7C5FF01213846FEF7F0FE9E
:1039C0000BB0F0BD00BFFEE70FB42DE9F0410021C0
:1039D0000D9809F005FE04D801210020FEF77EFCB9
:1039E00007E001210846FEF779FC0D9880F00041C0
:1039F0000D910D9809F0FCFA06460022564B09F08D
:103A0000E5F802D20020544902E00D9809F0F0FADE
:103A1000044608F0D3FC0D9006A9886F002109F038
:103A2000DFFD04D802210020FEF758FC09E0022146
:103A30000120FEF753FC06A8806F80F0004106A825
:103A4000816706A9886F09F0D3FA06460022424B27
:103A500009F0BCF802D200203F4903E006A9886FB4
:103A600009F0C6FA044608F0A9FC014606A88167D9
:103A700000213B9809F0B4FD04D803210020FEF793
:103A80002DFC07E003210120FEF728FC3B9880F085
:103A900000413B913B9809F0ABFA064600222E4BC1
:103AA00009F094F802D200202B4902E03B9809F07B
:103AB0009FFA044608F082FC3B900021529809F0DE
:103AC0008FFD04D804210020FEF708FC07E0042144
:103AD0000120FEF703FC529880F000415291529869
:103AE00009F086FA064600221B4B09F06FF802D255
:103AF0000020194902E0529809F07AFA044608F0C9
:103B00005DFC52900D9809F003FC84B221464FF001
:103B1000804001F092F806A9886F09F0F9FB84B2A1
:103B200021464FF0804001F08AF83B9809F0F0FB05
:103B300084B221464FF0804001F083F8529809F09A
:103B4000E7FB84B221464FF0804001F07CF8BDE8ED
:103B5000F0015DF814FB000000C0A24070470000B7
:103B600070B5002100230F22C47804B3154C2468DB
:103B700004F4E064C4F5E064210AC1F10403CA401E
:103B8000447804FA03F184781440214309010E4C6F
:103B90000678A155047804F01F050124AC4005788F
:103BA0006D11AD0005F1E025C5F8004109E004788C
:103BB00004F01F050124AC40044D0678761145F849
:103BC000264070BD0CED00E000E400E080E100E084
:103BD00002490143024A1160704700000000FA05E3
:103BE0000CED00E070B5002418E004F1B0000021F5
:103BF00000F0BAF80021084600F0B6F800211020C5
:103C000000F0B2F8002505E00121002000F0ACF83A
:103C1000681CC5B2802DF7DB601CC4B2082CE4DB45
:103C200070BD000008B50121082000F07DF90121D8
:103C3000084600F079F901214448FFF72DF83020BB
:103C4000ADF8000010208DF8030003208DF802006D
:103C500069463F48FEF794FF30213D48FFF76FF873
:103C60004FF4C87002F07AFB0021AE2000F07CF81F
:103C70000021084600F078F80021102000F074F8C8
:103C80000021402000F070F80021B02000F06CF816
:103C90000021812000F068F80021FF2000F064F886
:103CA0000021A12000F060F80021A62000F05CF8BF
:103CB0000021A82000F058F800213F2000F054F81F
:103CC0000021C82000F050F80021D32000F04CF86B
:103CD0000021084600F048F80021D52000F044F803
:103CE0000021802000F040F80021D82000F03CF8AE
:103CF0000021052000F038F80021D92000F034F828
:103D00000021F12000F030F80021DA2000F02CF83A
:103D10000021122000F028F80021DB2000F024F818
:103D20000021302000F020F800218D2000F01CF848
:103D30000021142000F018F80021AF2000F014F842
:103D4000FFF750FF03A0FCF763FB08BD0002300043
:103D5000000C01404F4C454420696E697420737516
:103D600063636573730D0A0070B504460D461DB19B
:103D7000E0B201F057FE02E0E0B201F03DFE70BD9E
:103D800000214848016441648164C164C1654649B9
:103D90000165002141658165016241628162C16204
:103DA000C1634FF07E510163404941634FF07F5141
:103DB00081630021C0F89C10C0F8A010C0F8A410C6
:103DC000C0F8A810C0F8B8103749C0F8AC100021EE
:103DD000C0F8B010C0F8B410C167C0F88010C0F8C7
:103DE0008410C0F88810C0F898104FF07E51C0F8C9
:103DF0008C102E49C0F890104FF07F51C0F89410ED
:103E00000021C0F8F810C0F8FC10C0F80011C0F88C
:103E10000411C0F814112449C0F808110021C0F899
:103E20000C11C0F81011C0F8D810C0F8DC10C0F8A0
:103E3000E010C0F8E410C0F8F4104FF07E51C0F864
:103E4000E8101A49C0F8EC104FF07F51C0F8F0109C
:103E50000021C0F85411C0F85811C0F85C11C0F826
:103E60006011C0F870111049C0F864110021C0F849
:103E70006811C0F86C11C0F83411C0F83811C0F8DE
:103E80003C11C0F84011C0F850114FF07E51C0F8FD
:103E900044110649C0F848114FF07F51C0F84C1149
:103EA00070470000600E00208FC2753ECDCCCC3E26
:103EB00001460020034A506820F440400843506007
:103EC000704700000010024029B1064A52690243BF
:103ED000044B5A6104E0034A52698243014B5A6120
:103EE000704700000010024029B1064AD26902431F
:103EF000044BDA6104E0034AD2698243014BDA6180
:103F0000704700000010024029B1064A12690243BE
:103F1000044B1A6104E0034A12698243014B1A619F
:103F2000704700000010024029B1064A926902431E
:103F3000044B9A6104E0034A92698243014B9A61FF
:103F4000704700000010024029B1064AD2680243BF
:103F5000044BDA6004E0034AD2688243014BDA6022
:103F6000704700000010024030B5002100220024FC
:103F700000232D4D6D6805F00C0121B1042905D0F9
:103F8000082923D105E0294D056022E0274D056071
:103F90001FE0254D6D6805F47012234D6D6805F422
:103FA0008034022505EB92421CB9214D5543056032
:103FB0000BE01D4D6D6805F400351DB11C4D5543DA
:103FC000056002E0194D5543056002E0174D05609C
:103FD00000BF00BF144D6D6805F0F0010909154DD3
:103FE0006B5C0568DD4045600F4D6D6805F4E06170
:103FF000090A104D6B5C4568DD4085600A4D6D68AF
:1040000005F46051C90A0B4D6B5C4568DD40C56025
:10401000054D6D6805F44041890B074D6B5CC56823
:10402000B5FBF3F5056130BD0010024000127A00C7
:1040300000093D0026050020360500200146032921
:1040400006D0042914D0052920D0082943D130E016
:104050002348008800B24042224A5060104640691E
:10406000526802441F48426100201D4A108033E01C
:104070001D48008802B21B480266026F006E0244AF
:10408000184802670020184A108025E01748008869
:1040900000B242421348C0F8BC20D0F8CC20D0F87F
:1040A000BC0002440F48C0F8CC2000200F4A10800A
:1040B00012E00F48008802B20A48C0F81821D0F870
:1040C0002821D0F8180102440648C0F82821002011
:1040D000074A108000E000BF00BF002070470000CA
:1040E00024040040600E002024080040240C0040FE
:1040F0002434014010B500F001F810BD0CB50020CB
:10410000019000903348006840F4803031490860E5
:1041100000BF3048006800F4003000900198401C57
:104120000190009818B90198B0F5A06FF1D1294815
:10413000006800F4003010B10120009001E0002080
:1041400000900098012843D12348006840F01000F7
:10415000214908600846006820F00300086008460E
:10416000006840F0020008601A4840681949486039
:104170000846406848600846406840F480604860EF
:104180000846406820F47C1048600846406840F4C7
:10419000E81048600846006840F08070086000BF82
:1041A0000C48006800F000700028F9D00948406809
:1041B00020F00300074948600846406840F00200CC
:1041C000486000BF0348406800F00C000828F9D19F
:1041D0000CBD00000010024000200240042808D15D
:1041E0004FF0E021096941F004014FF0E022116134
:1041F00007E04FF0E021096921F004014FF0E022CF
:104200001161704710B507F0FDFC012801D007F0DF
:1042100009F810BD10B51348006840F001001149BD
:10422000086008464068104908400E494860084642
:1042300000680E4908400B4908600846006820F4F1
:10424000802008600846406820F4FE0048604FF473
:104250001F008860FFF74EFF4FF0006004490860C0
:1042600010BD0000001002400000FFF8FFFFF6FE46
:1042700008ED00E008B501211020FFF755FE0121EF
:104280000820FFF751FE3F20ADF8000010208DF808
:10429000030003208DF8020069460948FEF770FC10
:1042A0003F210748FEF749FD0320ADF800006946AD
:1042B0000448FEF765FC03210248FEF740FD08BDF7
:1042C00000100140000C0140F0B50C4615460022DC
:1042D0000021068C4FF6FE773E400684028B018C4F
:1042E0004FF60C7632407E1C06EA03162E4332430C
:1042F000104EB0420ED0104EB0420BD0B0F1804FF5
:1043000008D00E4EB04205D00D4EB04202D00D4E38
:10431000B04206D14FF6FD76314044F001063143FC
:1043200005E04FF6F576314044F001063143028353
:104330000184F0BD002C0140003401400004004025
:1043400000080040000C0040F0B50C461546002265
:1043500000210026078C4FF6EF7C07EA0C07078444
:10436000028B018C4FF6FF7707EA041640F6FF47F1
:104370003A404FF6FF7707EA03373A434FF6FF77A5
:1043800007EA05273A43114FB8420ED0104FB84202
:104390000BD0B0F1804F08D00E4FB84205D00E4F71
:1043A000B84202D00D4FB84206D14FF6DF77394000
:1043B00046F01007394305E04FF65F77394044F087
:1043C0001007394302830184F0BD0000002C014036
:1043D000003401400004004000080040000C004090
:1043E000F0B50C461546002200210026078C4FF63A
:1043F000FF6C07EA0C070784828B018C4FF6FF776E
:1044000007EA04264FF60C773A404FF6FF7707EAA3
:1044100003172F433A43114FB8420ED0104FB84202
:104420000BD0B0F1804F08D00E4FB84205D00E4FE0
:10443000B84202D00D4FB84206D14FF6FF5739406F
:1044400046F48077394305E04FF2FF57394044F492
:104450008077394382830184F0BD0000002C014045
:10446000003401400004004000080040000C0040FF
:10447000F0B50C461546002200210026078C4EF6AA
:10448000FF7C07EA0C070784828B018C4FF6FF77CD
:1044900007EA043640F6FF473A404FF6FF7707EA4F
:1044A00005273A434FF6FF7707EA03373A43114FA0
:1044B000B8420ED0104FB8420BD0B0F1804F08D0A8
:1044C0000E4FB84205D00E4FB84202D00D4FB84241
:1044D00006D14DF6FF77394046F48057394305E061
:1044E00047F6FF57394044F48057394382830184AB
:1044F000F0BD0000002C01400034014000040040E9
:1045000000080040000C0040F8B5002401213848A4
:1045100000F0BFF900285ED00121354800F085F891
:104520003448807D012803D03248807D02282FD175
:104530003048D0E90021104608F086F9002827DB32
:104540002C4800222C4BD0E90051284608F066FC8C
:10455000284A03C229480088401C284908800220B4
:10456000244988750846D0E90021104608F06CF906
:104570002049498A884205DD4FF400412048FEF772
:10458000DEFB28E04FF400411D48FEF7D6FB22E099
:104590001848008A00280BDD1648008A401E15497D
:1045A00008820846D0E90210124AC2E9001012E05F
:1045B00000210F4800F03CF80020104908800D4809
:1045C000C07D012804D169460E48006807F07EF8D6
:1045D00000200849887500BF3CB14FF080500A495F
:1045E0000860BFF34F8FBFF36F8F00BFF8BD0000AF
:1045F000002C0140D80F0020000024409000002033
:10460000000C01407000002004ED00E021B10288A0
:1046100042F08002028004E002884FF67F731A4065
:1046200002807047CA4302827047CA4302827047C1
:1046300021B1028842F00102028004E002884FF6B4
:10464000FE731A400280704731B1B0F8442042F442
:104650000042A0F8442005E0B0F84420C2F30E0266
:10466000A0F844207047000010B504466848844212
:1046700008D10121C014FFF767FC0021E014FFF707
:1046800063FCC4E0B4F1804F08D101210846FFF774
:104690003BFC00210120FFF737FCB8E05D48844275
:1046A00008D101210220FFF72FFC00210220FFF793
:1046B0002BFCACE05848844208D101210420FFF7CC
:1046C00023FC00210420FFF71FFCA0E05348844294
:1046D00008D101210820FFF717FC00210820FFF76F
:1046E00013FC94E04E48844208D101211020FFF7CA
:1046F0000BFC00211020FFF707FC88E049488442AA
:1047000008D101212020FFF7FFFB00212020FFF727
:10471000FBFB7CE04448844208D101214014FFF7B0
:1047200013FC00216014FFF70FFC70E03F48844247
:1047300009D10121C804FFF707FC00214FF4002034
:10474000FFF702FC63E03A48844209D101210805E1
:10475000FFF7FAFB00214FF48010FFF7F5FB56E05E
:104760003448844209D101214805FFF7EDFB0021BF
:104770004FF40010FFF7E8FB49E02F48844208D1CE
:1047800001214020FFF7C0FB00214020FFF7BCFBC8
:104790003DE02A48844208D101218020FFF7B4FB84
:1047A00000218020FFF7B0FB31E02548844208D18A
:1047B00001218015FFF7A8FB0021A015FFF7A4FB3E
:1047C00025E02048844209D101210804FFF7BCFB01
:1047D00000214FF48030FFF7B7FB18E01A488442FD
:1047E00009D101214804FFF7AFFB00214FF400304D
:1047F000FFF7AAFB0BE01548844208D10121880489
:10480000FFF7A2FB00214FF48020FFF79DFB10BDB6
:10481000002C01400004004000080040000C004053
:10482000001000400014004000340140004C0140E2
:10483000005001400054014000180040001C00409E
:104840000020004000400140004401400048014079
:10485000F0B50C4615461E460021002200230189B2
:10486000028B038C4FF6F877394021434FF6FC4713
:104870003A4040F201173A434FF6DD773B404FF69E
:10488000FF7707EA06172F433B4301810283038426
:10489000F0BD30B50246002000230024158A05EA49
:1048A0000103958905EA010413B10CB1012000E070
:1048B000002030BD70B505460C46244885420ED018
:1048C000234885420BD0B5F1804F08D0214885425E
:1048D00005D02148854202D02048854200D100E021
:1048E00000BF208850B92389A28861882846FFF735
:1048F000EBFCE188284600F0ABF925E0208804288D
:104900000AD12389A28861882846FFF71DFDE18826
:10491000284600F0A6F917E0208808280AD1238944
:10492000A28861882846FFF75BFDE188284600F0F1
:10493000A5F909E02389A28861882846FFF798FD38
:10494000E188284600F0A3F970BD0000002C01406A
:10495000003401400004004000080040000C00400A
:10496000002101804180012181800021C1800181DD
:1049700070471AB183890B43838102E083898B439B
:104980008381704770B5002400220023058C4FF608
:10499000FE7635400584028C8388048B4FF68F7534
:1049A0002C40B51E2C400D882C43751E2A400D89C5
:1049B0002A434D882A43144DA8420BD0134DA842D8
:1049C00008D0134DA84205D0124DA84202D0124D76
:1049D000A84213D14FF6F7752A404D892A434FF666
:1049E000FB752A408D882A434FF6FF652B404FF612
:1049F000FF552B408D892B43CD892B438380048326
:104A0000CD888586028470BD002C014000340140B1
:104A10000040014000440140004801400A46002196
:104A2000018B4FF6F7731940114301837047000063
:104A300070B5002400220023058C4FF6EF76354038
:104A40000584028C8388048B48F6FF752C404FF652
:104A5000FF452C400D884FF6FF7606EA05252C43CE
:104A60004FF6DF752A400D8906EA05152A434D8861
:104A700006EA05152A43154DA84202D0144DA84256
:104A80001DD14FF67F752A404D894FF6FF7606EA15
:104A900005152A434FF6BF752A408D8806EA05158D
:104AA0002A434FF6FF352B404FF2FF752B408D897F
:104AB00006EA85052B43CD8906EA85052B438380CD
:104AC0000483CD880587028470BD0000002C01405E
:104AD000003401400A460021018B4FF2FF73194058
:104AE0004FF6FF7303EA0223194301837047000066
:104AF00070B5002400220023058C4FF6FF66354078
:104B00000584028C8388848B4FF68F752C404FF67A
:104B1000FC752C400D882C434FF6FF552A400D891B
:104B20004FF6FF7606EA05252A434D8806EA052555
:104B30002A43154DA84202D0144DA8421DD14FF270
:104B4000FF752A404D894FF6FF7606EA05252A4370
:104B50004FF6FF352A408D8806EA05252A434EF692
:104B6000FF752B404DF6FF752B408D8906EA051524
:104B70002B43CD8906EA05152B4383808483CD889A
:104B80008587028470BD0000002C01400034014084
:104B90000A460021818B4FF6F77319401143818338
:104BA0007047000070B5002200230024058C4EF6EB
:104BB000FF7635400584038C8488828B48F6FF7528
:104BC0002A404FF6FF452A400D884FF6FF7606EA49
:104BD00005252A434DF6FF752B400D8906EA05355C
:104BE0002B434D8806EA05352B430B4DA84202D0D6
:104BF0000A4DA84208D14BF6FF752C408D894FF61F
:104C0000FF7606EA85152C4384808283CD88A0F840
:104C10004050038470BD0000002C0140003401406E
:104C20000A460021818B4FF2FF7319404FF6FF7344
:104C300003EA022319438183704781867047018705
:104C4000704781877047A0F8401070478184704793
:104C5000028B4FF6F3731A400283028B0A430283DE
:104C60007047028B4FF2FF331A400283028B4FF6DC
:104C7000FF7303EA01231A4302837047828B4FF6C6
:104C8000F3731A408283828B0A4382837047828B3C
:104C90004FF2FF331A408283828B4FF6FF7303EA91
:104CA00001231A4382837047002202881D4B9842D9
:104CB0000ED01D4B98420BD0B0F1804F08D01B4B4B
:104CC000984205D01A4B984202D01A4B984204D110
:104CD0004FF68F731A404B881A43174B984207D0F0
:104CE000164B984204D04FF6FF431A40CB881A4324
:104CF00002808B8883850B8803850A4B98420BD0F2
:104D0000094B984208D00E4B984205D00D4B984263
:104D100002D00D4B984201D10B7A03860123838286
:104D200070470000002C01400034014000040040A6
:104D300000080040000C004000100040001400403B
:104D40000040014000440140004801404FF6FF711F
:104D5000818000210180C180418001727047000084
:104D60007FB505460C460121C802FFF7DDF8ADF816
:104D70000850ADF804400020ADF80A00ADF8060078
:104D80008DF80C0001A90E48FFF78EFF01210C4899
:104D9000FFF748FC012211460948FFF7EAFD1920F8
:104DA0008DF8000001208DF8030006208DF8010029
:104DB00000208DF802006846FEF7D2FE7FBD00009D
:104DC000002C014030B589B005460C46012108464B
:104DD000FFF78AF801210D20FFF7A6F801213648D8
:104DE000FDF75AFF01213548FDF756FF4FF400400B
:104DF000ADF8040003208DF8060018208DF8070098
:104E000001A92F48FDF7BCFE40F60840ADF80400AC
:104E100001A92C48FDF7B4FE4FF08040FFF724FCB9
:104E2000ADF81C50ADF818400020ADF81E00ADF8EC
:104E30001A0006A94FF08040FFF736FF7020ADF84A
:104E400008000120ADF80A000020ADF80E00022095
:104E5000ADF8100002A94007FFF794FD02A94FF03A
:104E60008040FFF7E5FD02A94FF08040FFF740FECC
:104E700002A94FF08040FFF795FE0821C806FFF712
:104E8000CDFD0821C806FFF725FE0821C806FFF75B
:104E90007FFE0821C806FFF7C3FE01218807FFF740
:104EA000D3FB01218807FFF7B1FB01218807FFF73A
:104EB000BFFB09B030BD0000000318000002300045
:104EC00000080140000C014030B587B004460D4693
:104ED00001210220FFF708F801210420FFF724F840
:104EE000C020ADF8000004208DF8030069461B487F
:104EF000FDF746FE04A8FFF729FFADF81050ADF806
:104F000014400020ADF81600ADF8120004A91448B2
:104F1000FFF7CAFE00231A4603211148FFF798FC49
:104F200001A8FFF71DFD0A20ADF80C0001A90C48EF
:104F3000FFF7C0FC01210A48FFF774FB012211466C
:104F40000748FFF716FD00210548FFF77FFE012106
:104F50000348FFF76DFB07B030BD000000080140BB
:104F60000004004030B587B004460D4601210420FE
:104F7000FEF7BAFF01210820FEF7D6FFC020ADF8EA
:104F8000000004208DF8030069461B48FDF7F8FD7A
:104F900004A8FFF7DBFEADF81050ADF81440002078
:104FA000ADF81600ADF8120004A91448FFF77CFE16
:104FB00000231A4603211148FFF74AFC01A8FFF716
:104FC000CFFC0A20ADF80C0001A90C48FFF772FCD9
:104FD00001210A48FFF726FB012211460748FFF787
:104FE000C8FC00210548FFF731FE01210348FFF707
:104FF0001FFB07B030BD0000000C0140000800405E
:1050000030B587B004460D4601210820FEF76CFF3D
:1050100001210420FEF788FF0320ADF800000420E2
:105020008DF8030069461B48FDF7AAFD04A8FFF7A9
:105030008DFEADF81050ADF814400020ADF816000C
:10504000ADF8120004A91448FFF72EFE00231A46FB
:1050500003211148FFF7FCFB01A8FFF781FC0A20A0
:10506000ADF80C0001A90C48FFF724FC01210A4807
:10507000FFF7D8FA012211460748FFF77AFC002112
:105080000548FFF7E3FD01210348FFF7D1FA07B018
:1050900030BD000000080140000C004030B587B072
:1050A00004460D4601214803FEF73EFF012104207E
:1050B000FEF73AFFC020ADF8000004208DF8030091
:1050C00069461B48FDF75CFD04A8FFF73FFEADF8FD
:1050D0001050ADF814400020ADF81600ADF81200E5
:1050E00004A91448FFF7E0FD00231A4603211148E4
:1050F000FFF7AEFB01A8FFF733FC0A20ADF80C0068
:1051000001A90C48FFF7D6FB01210A48FFF78AFAEC
:10511000012211460748FFF72CFC00210548FFF744
:1051200095FD01210348FFF783FA07B030BD000069
:10513000001001400034014010B540F225510848EC
:1051400000F054FA30B106488088C4B221460548C0
:1051500000F00DFB40F22551014800F0D4F910BDDC
:10516000005000400048004010B540F225511D4855
:1051700000F03CFA10B31B4800F0F4FAC4B21A482D
:10518000008800F40040C8B91748008800F4804047
:1051900060B10A2C03D000201349088020E0124897
:1051A000008840F400401049088019E00D2C06D119
:1051B0000D48008840F480400B49088010E00A4800
:1051C0000088C0F30D0009490C5407480088401CB2
:1051D0000549088008460088C72801DD00200880AE
:1051E00010BD0000003801402405002034110020CB
:1051F00000B58DB001210846FEF766FE23480190F8
:105200001020039000200590802006900020079039
:10521000089009904FF480500A9000200B9001A94B
:105220001B48FDF78EFB0E208DF8300003208DF813
:10523000310000208DF8320001208DF833000CA8D9
:10524000FEF78EFC0F208DF8300003208DF8310022
:1052500001208DF832008DF833000CA8FEF780FC99
:10526000012202210A48FDF763FB01210848FDF7EE
:1052700097FA00210648FDF793FA0122C02103485E
:10528000001F00F05BF90DB000BD000004380140C4
:105290004400024038B5002540F224412A4800F07D
:1052A000A5F900284ED0284800F05CFA4021264895
:1052B00000F020F900212548FDF772FA23486C38E8
:1052C000006FC0F1C800C5B2214890F8200350B16A
:1052D0001F4CC8341E481D496C39886700201C4982
:1052E00081F8200309E01A4C04F1C80017496C3911
:1052F00088670120214681F82003C82013496C39B2
:10530000086701211148FDF74BFA29462046FDF7B1
:105310004FFB10A12046FBF744FA30B164220E493E
:105320004FF4FA70FDF778F80CE00CA12046FBF77B
:1053300038FA38B101200A49C87569460948006839
:1053400006F0C4F938BD0000004400406C00024083
:10535000BC050020676F0000600E00206D75000026
:10536000D80F00207000002010B586B0044601213F
:105370000420FEF7D9FD01214804FEF7B5FD2948B8
:1053800000F0E6F80420ADF8140003208DF81600B4
:1053900018208DF8170005A92348FDF7F1FB082018
:1053A000ADF8140048208DF8170005A91E48FDF738
:1053B000E7FB01940020ADF80800ADF80A00ADF855
:1053C0000C00ADF810000C20ADF80E0001A9154836
:1053D00000F05CF90121134800F0A4F8012240F22A
:1053E0002551104800F02CF9012240F224410D48CB
:1053F00000F026F940210B4800F07CF826208DF8BB
:1054000000000B208DF8010000208DF80200012023
:105410008DF803006846FEF7A3FB00F0AFF906B075
:1054200010BD0000004400400008014070B5002598
:1054300040F22441254800F0D9F800283FD0234805
:1054400000F090F94021214800F054F80021204854
:10545000FDF7A6F91E483038406BC0F5C870C5B2DC
:105460001C4890F8780548B11B4C1A481849303947
:10547000C8630020174981F8780508E0154C1648E4
:1054800013493039C8630120214681F878054FF46B
:10549000C8700F493039486301210D48FDF780F984
:1054A000207801280BD10D4B0DA202212046FDF7DB
:1054B00049FC0A48428801880AA004F007FE40F22D
:1054C0002551024800F01FF870BD00000048004060
:1054D00030000240E2080020720A00209200002002
:1054E0002C000000783A256420793A25642C200DA0
:1054F0000A00000001F40072B2F5007F00D100BF85
:10550000CA430280704710B50022002340F66A1497
:10551000A14200D100BF0A1201249440A3B2DC438F
:10552000048010BD21B1828942F40052828104E0DE
:1055300082894DF6FF731A40828170471AB1838ABF
:105540000B43838202E0838A8B438382704700008F
:1055500010B504462048844209D101218803FEF792
:10556000F3FC00214FF48040FEF7EEFC32E01B48D4
:10557000844209D101214804FEF7C6FC00214FF402
:105580000030FEF7C1FC25E01548844209D1012115
:105590008804FEF7B9FC00214FF48020FEF7B4FC2C
:1055A00018E01048844209D10121C804FEF7ACFC80
:1055B00000214FF40020FEF7A7FC0BE00A488442CC
:1055C00008D101210805FEF79FFC00214FF480104F
:1055D000FEF79AFC10BD0000003801400044004076
:1055E00000480040004C00400050004070B50246AA
:1055F000002400230025002040F66A16B14200D1A5
:1056000000BFC1F3421501F01F03012606FA03F3A0
:10561000012D02D19689334006E0022D02D1168A6F
:10562000334001E0968A33400C12012606FA04F456
:105630001688344013B10CB1012000E0002070BD89
:10564000F0B50346002400260025002040F66A1726
:10565000B94200D100BF1846C1F3421401F01F0641
:10566000012707FA06F5012C01D10C3004E0022CC9
:1056700001D1103000E014301AB107682F430760E1
:1056800002E00768AF430760F0BD00002DE9F04776
:1056900086B005460E460024A24600BFA14600275C
:1056A000B08900B100BF2F462C8A4CF6FF70044031
:1056B000F08804432C82AC894EF6F3100440B08885
:1056C00031890843718908430443AC81AC8A4FF6A1
:1056D000FF400440B0890443AC8201A8FEF744FCBB
:1056E0001F48874202D1DDF810A001E0DDF80CA0D0
:1056F000A88900F4004040B10AEBCA0000EB0A1090
:1057000031684900B0FBF1F807E00AEBCA0000EB92
:105710000A1031688900B0FBF1F86420B8FBF0F0A2
:1057200004012009642101FB1089A88900F40040CC
:1057300040B1322000EBC900B0FBF1F000F00700EF
:10574000044308E0322000EB09106421B0FBF1F0C3
:1057500000F00F0004432C8106B0BDE8F087000084
:105760000038014001468888C0F308007047C1F343
:1057700008028280704700BFFEE7000000B58DB0D0
:1057800001210846FEF7A0FB3D48FDF715F83D480E
:1057900002903D48039000200490C820059000200E
:1057A0000690802007900020089009900A904FF4FE
:1057B00000500B9000200C9002A93148FDF7C1F871
:1057C0002F481430FCF7F8FF2E4802902F48039022
:1057D000102004904FF4C87005900020069080209F
:1057E00007900020089009900A904FF400500B9009
:1057F00000200C9002A922481430FDF7A2F81020D6
:105800008DF8040006208DF8050000208DF80600B4
:1058100001208DF8070001A8FEF7A2F911208DF8EC
:10582000040005208DF8050000208DF806000120F9
:105830008DF8070001A8FEF793F901220221104814
:10584000FDF776F8012202210D481430FDF770F8BB
:1058500001210B48FCF7A4FF002109481430FCF794
:105860009FFF012280210748001FFFF767FE0122EA
:1058700040210448001FFFF761FE0DB000BD00008D
:105880006C00024004440040BC0500204C0700208E
:1058900000B58DB001210846FEF716FB3D48FCF728
:1058A0008BFF3D4802903D480390002004904FF448
:1058B000C870059000200690802007900020089076
:1058C00009900A904FF400500B9000200C9002A910
:1058D0003048FDF736F82F481438FCF76DFF2E4896
:1058E00002902F480390102004904FF416700590FA
:1058F00000200690802007900020089009900A90D0
:105900004FF400500B9000200C9002A9214814384D
:10591000FDF717F80D208DF8040006208DF805001E
:1059200000208DF8060001208DF8070001A8FEF781
:1059300017F90C208DF8040005208DF805000020D3
:105940008DF8060001208DF8070001A8FEF708F980
:10595000012202210F48FCF7EBFF012202210D4832
:105960001438FCF7E5FF01210A48FCF719FF002174
:1059700008481438FCF714FF012280210648001F54
:10598000FFF7DCFD012240210348001FFFF7D6FD91
:105990000DB000BD3000024004480040E208002085
:1059A000020C00202DE9F04105462C46102111483B
:1059B000FDF7C3F9002619E0274607F08007802F7E
:1059C00004D120210B48FDF7BAF903E02021094852
:1059D000FDF7B3F96006040E10210648FDF7AFF994
:1059E00010210448FDF7A9F9701CC6B2082EE3DBAC
:1059F000BDE8F081000C014010B50446FDF70AFA3D
:105A00007820FFF7CFFFFDF729FA0020FFF7CAFF44
:105A1000FDF724FA2046FFF7C5FFFDF71FFAFDF753
:105A20000DFA10BD10B50446FDF7F4F97820FFF724
:105A3000B9FFFDF713FA4020FFF7B4FFFDF70EFAA8
:105A40002046FFF7AFFFFDF709FAFDF7F7F910BDA4
:105A5000490050EAC12018BF04204A0D18BF40F089
:105A6000010040F2FF72B2EB515F08BF40F002004C
:105A7000012808BF052070472DE9F0414F1E00EBBB
:105A8000C7010446D1E9000115461E4637F006025B
:105A90000DD02A46334606F09BFF7F1E04EBC7035A
:105AA000D3E9002306F0BCFC37F00602F1D1022F47
:105AB00025D0042F13D0062F18BFBDE8F0812A4649
:105AC000334606F085FFD4E90A2306F0A9FC2A46EE
:105AD000334606F07DFFD4E9082306F0A1FC2A46F0
