:020000040800F2
:100000008863002051030008332A00086F26000887
:100010002F2A0008C91F000837440008000000000C
:10002000000000000000000000000000B90200080D
:100030006D23000800000000FD02000819300008D0
:100040006B0300086B0300086B0300086B030008D8
:100050006B0300086B0300086B0300086B030008C8
:100060006B0300086B0300086B0300086B030008B8
:100070006B0300086B030008092100086B030008EC
:100080006B0300086B0300086B0300086B03000898
:100090006B0300086B0300086B0300087123000862
:1000A0006B0300081D3300086B0300086B03000896
:1000B0006B0300086B0300086B0300086B03000868
:1000C0006B0300086B0300086B0300086B03000858
:1000D0006B0300087D3F0008A94000088541000827
:1000E0006B0300086B0300086B0300086B03000838
:1000F0006B0300086B0300086B0300086B03000828
:100100006B0300086B0300086B0300086B03000817
:100110006B0300084D3F00086B0300086B030008E9
:100120006B0300086B0300086B0300086B030008F7
:1001300000F002F800F0B0F80AA090E8000C824449
:100140008344AAF10107DA4501D100F0A5F8AFF226
:10015000090EBAE80F0013F0010F18BFFB1A43F0A5
:1001600001031847D88E0000F88E00000A444FF0B3
:10017000000C10F8013B13F0070408BF10F8014B06
:100180001D1108BF10F8015B641E05D010F8016B4B
:10019000641E01F8016BF9D113F0080F1EBF10F8AF
:1001A000014BAD1C0C1B09D16D1E58BF01F801CBD2
:1001B000FAD505E014F8016B01F8016B6D1EF9D555
:1001C0009142D6D37047000000230024002500266A
:1001D000103A28BF78C1FBD8520728BF30C148BFAA
:1001E0000B6070476E2900F06383702900F0E5868C
:1001F000662908F01B83652908F01883672908F031
:1002000015836129AFF3008003681B0A28BF41F002
:100210008001692900F04A81642900F0478175292D
:1002200000F044816F2900F07286782900F0B186D1
:10023000E92900F00D86E42900F00A86F52900F08E
:100240000786EF2900F06F86F82900F0B086036872
:10025000DB0928BF41F08001632900F07C85732908
:1002600000F08185E32900F09B87F32900F0A08747
:10027000002070471FB500F0FFFE040000200021A1
:1002800007F02EFC401C60600020002107F012FCEB
:10029000E0601FBD10B510BD01F028F81146FFF752
:1002A000E9FF04F053FA01F04FF803B4FFF7F2FF4F
:1002B00003BC04F034F90000224B19680868B0E868
:1002C000F00F80F30988BFF36F8F4FF0000080F3C9
:1002D00011884EF00D0E70470000000006480068BF
:1002E000006880F3088862B661B6BFF34F8FBFF332
:1002F0006F8F00DF00BF00BF08ED00E0EFF3098063
:10030000BFF36F8F0F4B1A6820E9F00F106008B52C
:100310004FF0500080F31188BFF34F8FBFF36F8F02
:1003200006F0F2F84FF0000080F31188BDE80840B5
:1003300019680868B0E8F00F80F30988BFF36F8F81
:10034000704700BF08050020EFF3058070470000EC
:100350000948804709480047FEE7FEE7FEE7FEE759
:10036000FEE7FEE7FEE7FEE7FEE7FEE70448054995
:10037000054A064B7047000029300008310100088B
:10038000885D002088630020885F0020885F00204F
:10039000704700007CB51D4616460C00009001D049
:1003A0002044401E074B7B442A4669460190304654
:1003B00000F0A7FC05461CB10020694600F0B4FC23
:1003C00028467CBD890900000FB4044910B503AA72
:1003D000029800F0CDFC10BC5DF814FBEC0400208A
:1003E0000FB41CB5084B06AA7B44694600900598DB
:1003F00000F087FC04460020694600F095FC20468A
:100400001CBC5DF814FB00003D09000070B50446FB
:1004100085690068C10601D5302600E02026C007A6
:1004200007D070BDD4E9012130469047206A401CB6
:1004300020626D1EF6D570BD70B5044685690078E2
:10044000C00707D170BDD4E9012120209047206A60
:10045000401C20626D1EF6D570BD70B50C46054679
:10046000012A05D02878800600D5EA69002302E039
:10047000012305E05B1C934202D2E05C0028F9D125
:10048000A869E618C01AA861286A18442862284694
:10049000FFF7BCFF04E0D5E9012114F8010B9047F8
:1004A000B442F8D32846FFF7C7FF70BD2DE9F041ED
:1004B0000646002410687529314616A510D000F0B4
:1004C0008CF9002802DA404213A507E031688A0758
:1004D00001D512A502E0490704D511A5012401E0C8
:1004E00000F084F900210A2206F1240709E0B0FB9C
:1004F000F2FCB0FBF2F302FB1C00303078541846DB
:10050000491C0028F3D123462A463046BDE8F04175
:1005100000F075B9000000002D0000002B00000065
:10052000200000002DE9F05F894604464FF0000AE4
:10053000DFF874B1FB44C0F820A02046E16888478A
:10054000002874D0252806D0D4E901219047206ADC
:10055000401C2062F1E700265F462046E16888479C
:100560002028054607DB312D05D2781910F8200C1C
:1005700008B10643F1E7B00701D526F00406C4F838
:100580001CA00027C4F818A02A2D09D0284603F083
:10059000BFFF38B304EB8708303DC8F8185019E0A6
:1005A00059F8041B204604EB87029161E1688847F3
:1005B000012F054618D1E069002820DA26F0200630
:1005C0001DE0D8F8180000EB800005EB4000303843
:1005D000C8F818002046E1688847054603F098FFF0
:1005E0000028EED1012F0AD02E2D08D12046E16837
:1005F00088477F1C0546022F46F02006C4DBA06911
:10060000002803DA404246F00106A061F00701D05D
:1006100026F010066C2D0BD0682D09D04C2D39D04A
:100620006A2D35D0742D35D07A2D33D016E038E0D0
:10063000E1682F4620468847B842054609D16C2F0D
:1006400026D04FF48060E16806432046884705467F
:1006500004E06C2F1AD04FF4807006430DB3A5F15F
:100660004100192802D8203546F400664A4629463A
:10067000204626604E46FFF7B5FD80B101280BD01D
:10068000F61D26F0070000F1080956E74020E4E7D0
:100690008020D8E70020D6E706F104094DE7284678
:1006A00052E7206ABDE8F09F2C8A000010B5431C79
:1006B00002E010F8011B71B18107FAD14FF001324D
:1006C00002C88C1A8C4314EAC211F9D0C01A0A0667
:1006D00003D0C01E10BDC01A10BD0A0401D0801E78
:1006E00010BD0902FCD0401E10BD032A40F230802C
:1006F00010F0030C00F0158011F8013BBCF1020F63
:10070000624498BF11F801CB00F8013B38BF11F8E3
:10071000013BA2F1040298BF00F801CB38BF00F8FA
:10072000013B11F0030300F05384083AC0F0088045
:1007300051F8043B083A51F804CBA0E80810F5E75B
:10074000121D5CBF51F8043B40F8043BAFF300803E
:10075000D20724BF11F8013B11F801CB48BF11F8B3
:10076000012B24BF00F8013B00F801CB48BF00F883
:10077000012B704702F0FF0343EA032242EA0242E0
:1007800000F05ABC4FF0000200B51346944696465E
:10079000203922BFA0E80C50A0E80C50B1F1200194
:1007A000BFF4F7AF090728BFA0E80C5048BF0CC042
:1007B0005DF804EB890028BF40F8042B08BF7047A0
:1007C00048BF20F8022B11F0804F18BF00F8012B12
:1007D0007047704770477047704709684A0501D5F0
:1007E00040B27047C905FCD500B2704709684A0598
:1007F00001D5C0B27047C905FCD580B270472DE95C
:10080000F0470D4699469246044600F124080168D7
:10081000880604D5E06921F01001216000E0012084
:10082000A84201DD471B00E00027A1697A1902EB0D
:100830000900081AA0612078C00602D42046FFF7FC
:10084000E5FD002608E0D4E901211AF806009047EA
:10085000206A401C761C20624E45F4DB2078C006DE
:100860000AD52046FFF7D2FD06E0D4E90121302069
:100870009047206A401C2062381EA7F10107F4DC73
:1008800007E0D4E9012118F805009047206A401CD0
:100890002062281EA5F10105F3DC2046FFF7CCFD00
:1008A0002078000602D50220BDE8F0870120FBE792
:1008B00011680268006A530501D508700AE0D30583
:1008C00001D5088006E0130603D5C217C1E900026E
:1008D00000E008600120704770472DE9FF4F0C468B
:1008E0001E464FF0FF378BB0D2E90001DDF8608083
:1008F0000A908A46C1F30A5505B93D4600210846CB
:100900004FF00000BAF1000F00F4400005DA00EBF0
:1009100080004FF4400101EA50004FEA9059B9F1CC
:10092000010F00DDB9460A9850EA4A000ED044F69D
:100930001050A5F2FF3545432F14B8F1000F1ED01B
:100940007542291E1EDDC9F100021CE0B8F1010F3D
:100950004FF0000001D0302103E0F24305E02154C4
:10096000401CB042FBDB30460022002121540B9991
:10097000C1F80880C1E900200FB0BDE8F08FBD1BB1
:100980006D1CDEE74A4600DA694206A800F014FC56
:1009900006AB93E8070003AB83E8070050460A99CB
:1009A00000F01CFD8DE80700A0F500501F380090F6
:1009B0000398002D0ADD42F21F014A460844002335
:1009C00003A90390684600F085FF09E0A0F50050F8
:1009D0004A461F38002303A90390684600F08FFFA2
:1009E0008DE807000004000C03D04FF0FF304108F1
:1009F00000E01046B8F1000F03D000220092154627
:100A00001EE0751E05D400F03BFB303262556D1EB2
:100A1000F9D5B3460122084302D000227F1C04E02E
:100A20002078302801D100227F1E002A099784D027
:100A30001DE0112D07DA00F023FB303262556D1CEA
:100A400050EA0102F5D1084302D00098C8B10EE087
:100A50000021681E05E0235C625C63542254401E42
:100A6000491C8142F7DBAB46A81B401E09900020C1
:100A700004F80B000B98099AC0F80880C0E9002B15
:100A80007AE711264FF0000857E72DE9F04F884626
:100A90000446D21D22F0070191B0D1E90001CDE951
:100AA0000A0103F021FD02460B98C00F01D02D2052
:100AB00007E02068810701D52B2002E0202101EA10
:100AC000C000032A099001D0072A05DB03464146EE
:100AD000204600F01BFB0BE12078800601D5E06981
:100AE00000E00620B8F1650F814606D0B8F1660F28
:100AF00018D0B8F1670F70D131E00020B9F1110FB3
:100B0000009001DB112301E009F101030AAA01A908
:100B10000CA8FFF7E2FEDDE90C70002609F10105E3
:100B2000834647E001204B4600904FF000470AAA59
:100B300001A90CA8FFF7D1FEDDE90DB00C995D46C7
:100B4000002610B909F101000D18B9EB050003D416
:100B5000C0F1FF3609F10105A5EB09002BE0B9F161
:100B6000010F01DA4FF001090020B9F1110F0090D7
:100B7000484601DD112300E003460AAA01A90CA89A
:100B8000FFF7ABFEDDE90C704D460026834620786A
:100B900000070AD4AB4500DA5D4601A8012D04DD4B
:100BA000411911F8011C302907D04F4502DA17F11D
:100BB000040F04DA012082460FE06D1EEEE7002FDD
:100BC00002DCED1B3E4403E0781CA84200DD7D1CE6
:100BD000B81B00F1010A4FF000472078000703D44A
:100BE000AA4501DB4FF0FF3A0021B7F1004F0DF1AC
:100BF00043088DF8431024D002202B23002F01DA64
:100C00007F422D230A21021EA0F1010000DC5FB10A
:100C100097FBF1FC97FBF1F201FB1C7C17460CF1F2
:100C2000300C08F801CDEEE7A8F10100037021882F
:100C3000090501D5452100E06521A0F1010800F872
:100C4000011C09980FA9A1EB0807FF1D00B10120A5
:100C5000411901EBEA70A1693844081A401EA061ED
:100C60002078C00602D42046FFF7D0FB099828B1AF
:100C7000D4E901219047206A401C20622078C006F8
:100C800022D52046FFF7C2FB1EE0002E04DBB34551
:100C900002DD01A8805D00E03020D4E90121904709
:100CA000206A401C2062761CAAF101005FEA000A5B
:100CB0000AD100F0E1F9C0680168405CD4E9012183
:100CC0009047206A401C2062281EA5F10105DCDC4B
:100CD00007E0D4E9012118F8010B9047206A401C75
:100CE0002062381EA7F10107F3DC2046FFF7A4FBC2
:100CF000032011B041E6000001694A1C0261087836
:100D0000704700B58FB0CDE901310021059105494B
:100D10007944CDE9031011466846FFF703FC0FB094
:100D200000BD0000E5FFFFFF0A6802F8010B0A6042
:100D30007047D1E900239A4202D2531C0B60107015
:100D4000704710B5436913B1AFF3008001E0FFF7BE
:100D500084FB012010BD127800F124010A700022EA
:100D60004A700122EDE711684FF0FF32E9E7000019
:100D7000074B70B50D467B44FFF7C3FF044628467A
:100D800000F08CFA10B14FF0FF3070BD204670BDFE
:100D9000A73800002DE9FF5F15468A460446DFF8B4
:100DA000AC80F8440027D8E900103E46CDE9001099
:100DB00010E03AF816106A4602A800F073FA411CD7
:100DC00007D02178890603D5E269391891420DD8F8
:100DD0000744761C2078800602D5E069B84205DD1C
:100DE000AE42E6DB3AF816000028E2D1A069C01B4B
:100DF000A0612046FFF70AFBD8E90010CDE90010FA
:100E0000002017E03AF818106A4602A800F04AFAE3
:100E1000B0F1FF3F81460BD000250DF1080B05E036
:100E2000D4E901211BF8050090476D1C4D45F7D30F
:100E300008F10100B0428046E4DB206A38442062B9
:100E40002046FFF7F9FABDE8FF9F0000D2810000BD
:100E50002DE9F0418046D21D22F007020025D2E99B
:100E60000002F52915A614D0011E72F1000106DA60
:100E70000023D0EB030063EB020211A608E0D8F8D0
:100E800000108B0701D50FA602E0490701D50EA679
:100E900001251146002408F1240704E000F0F0F8D1
:100EA00030323A55641C50EA0102F7D12B463246E3
:100EB00021464046BDE8F041FFF7A1BC000000001C
:100EC0002D0000002B0000002000000030B40021A5
:100ED00000F1240408E002F00705D208303542EAA8
:100EE0004372DB086554491C52EA0305F3D10468D8
:100EF000002310A2250707D5A40600D421B1C46998
:100F000001230DA2641EC46130BCFFF778BC10B58C
:100F1000044621461068FFF769FC02462046BDE8FA
:100F200010400023D2E7D21D22F00701D1E90023AF
:100F3000CCE700000000000030000000F0B40D46D7
:100F40000188090502D5214C7C4402E01F4C7C44F9
:100F50000E34002100F1240608E002F00F07120908
:100F6000E75D42EA03721B097754491C52EA030702
:100F7000F3D102780023120704D5702D06D009B1F1
:100F8000022311342246F0BCFFF739BC0123103490
:100F9000F8E770B504460D4621461068FFF726FCB9
:100FA000024629462046BDE870400023C6E7D21D10
:100FB00022F00703D3E90023C0E70368126843F077
:100FC000200303600823C3610023B7E734800000D7
:100FD00010B5203AC0F00B80B1E81850203AA0E8D4
:100FE0001850B1E81850A0E81850BFF4F5AF5FEA08
:100FF000027C24BFB1E81850A0E8185044BF18C9BB
:1010000018C0BDE810405FEA827C24BF51F8043B61
:1010100040F8043B08BF7047D20728BF31F8023BB5
:1010200048BF11F8012B28BF20F8023B48BF00F849
:10103000012B70474FF000020429C0F0128010F01D
:10104000030C3FF4A1ABCCF1040CBCF1020F18BFB0
:1010500000F8012BA8BF20F8022BA1EB0C01FFF731
:1010600093BB5FEAC17C24BF00F8012B00F8012B81
:1010700048BF00F8012B704700487047445D0020CE
:1010800030B5B0F10A024FEA900E71F100034EEA5A
:10109000817EB0EB0E0061EB91014FEA101E4EEA2B
:1010A000017E10EB0E0041EB11114FEA102E4EEABB
:1010B000016E10EB0E0041EB11214FEA104E4EEA8B
:1010C000014E10EB0E0041EB1141401841F10001BF
:1010D0004FEAD00040EA41704FEAD10110EB8005A1
:1010E0004FEA810444EA907444EB01046D1944EB27
:1010F0000404521BA3414FF0000348BF0A3200D53D
:1011000030BD401C41F1000130BD00002DE9F0412F
:101110001F46044603260168072A01F4006004DB29
:1011200008B116A505E016A503E008B115A500E075
:1011300015A521F010002060A069C01EA0610FB1AC
:10114000401EA0612046FFF761F94FB1D4E90121AB
:1011500038469047206A401C2062C01C206206E08E
:10116000206AFAE7D4E9012115F8010B9047761EB1
:10117000F8D22046FFF760F9BDE8F0814E414E00FD
:101180006E616E00494E4600696E660010B5436997
:1011900013B1AFF3008001E0FFF7FCFD012010BDAB
:1011A000128800F1240182840022C2840122EDE72A
:1011B00011684FF0FF32E9E72DE9F0478146164606
:1011C0008AB0354878440DC88DE80D00324878441F
:1011D000801C03AC0DC884E80D0041F69B30084428
:1011E000372190FBF1F290FBF1F5A5F1800501FBB1
:1011F00012041B3C02D56442012000E00020DFF80D
:1012000098A080460027FA44AAF1BE0A0EE0E00743
:101210000AD03246684607EB470101230AEB8101F9
:1012200000F06DFB8DE8070064107F1C002CEED1F0
:10123000194F7F44AE3F19E0E80715D007EB0410C3
:101240000DF1180A90E80E008AE80E00C068F0421E
:1012500001D1981908903246012306A903A800F08D
:101260004EFB03AB83E807006D10641C002DE3D137
:101270004FF0010332466946B8F1000F03A802D0CF
:1012800000F028FB01E000F03AFBC9E90001C9F8D1
:1012900008200AB0BDE8F0875C7E0000007B00F00B
:1012A0008000704770B516460C46054600F044F8BD
:1012B000036893F80101012806D0FF2C0FD8185DB0
:1012C00068B101202C7070BDD3F807013246214669
:1012D00003F2071303442846BDE8704018474FF057
:1012E000FF3070BD00487047245D00207546FFF751
:1012F000F9FFAE4605006946534620F007008546D3
:1013000018B020B5FFF732F8BDE820404FF00006D6
:101310004FF000074FF000084FF0000B21F00701DD
:10132000AC46ACE8C009ACE8C009ACE8C009ACE820
:10133000C0098D467047000010B5FFF79DFE001DE7
:1013400010BD00BF9D67000010B50446AFF30080DC
:101350002046BDE81040FEF7A8BF00004FF0013C5A
:1013600050F8042B51F8043B9A4221D1A2EB0C0314
:10137000934313EACC1317D150F8042B51F8043BD4
:101380009A4215D1A2EB0C03934313EACC130BD171
:1013900050F8042B51F8043B9A4209D1A2EB0C03FC
:1013A000934313EACC13DBD04FF00000704700BF2B
:1013B000D01A01BAB1FA81F101F0180122FA01F054
:1013C000CB40C1F12001DBB2C0B2C01A2CFA01F34C
:1013D000D11A914311EAC311E6D170475FEA400C7C
:1013E00008BF91F0000F4FEA8C234FEAC12243EA75
:1013F00051514FEA1C5018BF00F5F0404FEA300041
:1014000018BF41F000415FEA6C5C00F02980BCF13C
:10141000FF3F08BF40F080407047130C06BF120426
:101420004FF0100C4FF0000C130E04BF12020CF121
:10143000080C130F04BF12010CF1040C930F04BF2E
:1014400092000CF1020CD30F04BF52000CF1010CFE
:1014500011464FF00002A0F11F00A0EB0C007047F6
:1014600011F0004F08BF704731F000413FF4D5AF95
:101470000B0C06BF09044FF0100C4FF0000C0B0EC4
:1014800004BF09020CF1080C0B0F04BF09010CF199
:10149000040C8B0F04BF89000CF1020CCB0F04BFAE
:1014A00049000CF1010CCCF12003A0EB0C0022FA56
:1014B00003F302FA0CF241EA030100F10100704764
:1014C00020F07F4C80EA030023F07F47ACEB07035A
:1014D00003F57C5300F0004003F1FF032DE9804940
:1014E0004FEA154B09B44FEA144325EA0B4E24EAA0
:1014F00003480FF2042606EB132749083E785FEAFB
:10150000320203FB0667C7F5000707FB06F64FEA42
:1015100054374FEAD64606F1020607FB066CCCF1BB
:10152000005C4FEA1C472CEA074C07FB06F40CFB57
:1015300006F504EB15464FEA961634BF00204FF02F
:1015400000404FEAD13706FB07FC4FEA1C4C0CFB6E
:101550000BF7D21B03FB0CF761EB07010CFB0EF73B
:10156000B0EB074072EB17420CFB08F734BFA2EB5D
:101570000742B2EB074261EB17414FEA0C444FEAD6
:10158000910706FB07FC4FEA1C4C0CFB0BF7B0EB7A
:10159000C74072EB573203FB0CF734BFA2EBC742D4
:1015A000B2EBC74261EB57310CFB0EF7B0EBC70053
:1015B00072EB57720CFB08F734BFA2EBC702B2EB19
:1015C000C70261EB5771039F4FEA816141EA9211B3
:1015D00004EBCC044FEAD1374FEA826206FB07FCEA
:1015E00042EA90124FEA80604FEA1C4C0CFB0BF76A
:1015F000D21B03FB0CF761EB07010CFB0EF7B0EB02
:10160000074072EB17420CFB08F734BFA2EB07420E
:10161000B2EB074261EB17414FEA8C554FEA910755
:1016200004EB9C2406FB07FC4FEA1C4C0CFB0BF75D
:10163000B0EBC74072EB573203FB0CF734BFA2EBA1
:10164000C742B2EBC74261EB57310CFB0EF7B0EB70
:10165000C70072EB57720CFB08F734BFA2EBC7024E
:10166000B2EBC70261EB577115EB4C254FEA816174
:1016700041EA92114FEA82624FEAD13742EA901270
:1016800006FB07FC44F100044FEA80604FEA1C4C63
:101690000CFB0BF7D21B03FB0CF761EB07010CFBF8
:1016A0000EF7B0EB074072EB17420CFB08F734BFA4
:1016B000A2EB0742B2EB074261EB174115EB1C1599
:1016C0004FEA813141EA92414FEA823242EA904246
:1016D0004FEA80304FEA0C7644F1000448EA0343B5
:1016E0004EEA0B484FF0000EB2EB080C71EB03070B
:1016F00024BF624639464EEB0E0E4FF0000B001829
:10170000524149414BEB0B0BB2EB080C71EB030759
:101710007BF1000B24BF624639464EEB0E0E4FF0B4
:10172000000B0018524149414BEB0B0BB2EB080C7C
:1017300071EB03077BF1000B24BF624639464EEB89
:101740000E0E51EA020718BF46F0010616EB0E76A0
:1017500055F1000254F1000103D5BDE88901BDE84F
:101760000088BDE88901BDE80048B619524141EB47
:101770000101A3F10103704780807F7E7D7C7B7A2D
:101780007978777676757473727171706F6E6E6D2D
:101790006C6C6B6A6A6968686766666564646363D3
:1017A00062616160605F5F5E5E5D5D5C5C5B5B5A59
:1017B0005A595958585757565655555554545353C6
:1017C00052525251515050504F4F4F4E4E4D4D4D21
:1017D0004C4C4C4B4B4B4A4A4A494949484848476C
:1017E00047474746464645454544444444434343AA
:1017F0004342424242414141002B9C4630D4770053
:101800002BD01CB54FEA370703B44FF010004FF050
:101810001001BAF1000F06D0BCF1000FDCBF40F0A0
:10182000080040F008014FF000000FBCBDE8104078
:101830000BF1010BBBF1010F08BF5FEA170722BFD5
:1018400012F1010211F101014FF0004143F10003D7
:1018500000F0004043EA00007047F9D35708D0E792
:1018600046EA064613F1400F4FEA16461FDD13F114
:10187000200FDFBF16430A46002120335B42BED053
:10188000C3F1200746EA064602FA07F74FEA164672
:1018900046EA0706C3F1200722FA03F201FA07F726
:1018A00021FA03F14FF0000342EA0702A7E746EAF4
:1018B000020646EA06464FEA164646EA0106BCBF5D
:1018C00046EA0646360C4FF000034FF000024FF098
:1018D000000194E72DE9804C9A46934670B491E854
:1018E000380007C831EA400C48BF34EA430C03D53E
:1018F000FFF7E6FDFFF780FFF0BCBDE8008C2DE9A7
:10190000804C9A46934670B491E8380007C810F0AE
:10191000804F08BF13F0804F03D100F005F8FFF7A8
:101920006BFFF0BCBDE8008C20F07F4780EA03002D
:1019300023F07F4C07EB0C03A3F57C5300F0004031
:10194000A3F1FE0392F0000F00F0B38095F0000FBA
:1019500000F077802DE901494FEA11404FEA144623
:1019600021EA004800FB06FC24EA064708FB06F6CD
:1019700007FB08F800FB07F718EB06484CEB164C82
:101980004FEA124B18EB07484FEA15464CEB17404D
:1019900022EA0B4E0BFB06FC25EA06470EFB06F679
:1019A00007FB0EFE0BFB07F71EEB064E4CEB164C2F
:1019B0004FF000061EEB074E4CEB174B18EB0B08D5
:1019C00040F1000018EB0E0B58EB000840F100004E
:1019D0008F1A4FF000013CBFC943661B14BFB5EB23
:1019E000040C00213CBFC943F61B4FEA17444EEAE2
:1019F0008E0E27EA04454FEA1C4704FB07622CEAD7
:101A0000074C05FB07F70CFB05F604FB0CFC16EB7B
:101A1000074642EB174216EB0C4642EB1C421BEB0F
:101A2000060658EB0202414146EA9E0601D5BDE892
:101A30000189B619524141EB0101A3F10103BDE84F
:101A400001894FEA14454FEA114724EA054621EA85
:101A5000074C05FB07F406FB07F70CFB06F105FB3B
:101A60000CFC11EB074144EB17444FEA124711EB12
:101A70000C4144EB1C4422EA074C05FB07F206FB31
:101A800007F70CFB06F605FB0CFC16EB074642EBD2
:101A9000174216EB0C4642EB1C456A1854F1000144
:101AA00048BF7047B619524141EB0101A3F1010350
:101AB000704795F0000F37D04FEA11424FEA1447B4
:101AC00021EA024624EA074C02FB07F106FB07F76E
:101AD0000CFB06F402FB0CFC14EB074441EB174132
:101AE0004FEA154714EB0C4441EB1C4125EA074C27
:101AF00002FB07F506FB07F70CFB06F602FB0CFCE6
:101B000016EB074645EB174516EB0C4645EB1C421A
:101B1000121951F1000148BF7047B619524141EB0B
:101B20000101A3F1010370474FEA14454FEA114741
:101B300024EA054621EA074C05FB07F106FB07F7F7
:101B40000CFB06F24FF0000605FB0CFC12EB074203
:101B500041EB174112EB0C4251EB1C4148BF70475F
:101B6000921841EB0101A3F10103704700B587B062
:101B700001214FF4017001F03DF94FF4004001F0F4
:101B8000FDF81020ADF8040000208DF8070001A931
:101B9000224800F08BFC224800F05EF80020029002
:101BA0008DF80C0001208DF80D004FF4602004909A
:101BB0000020059001208DF8180002A9184800F0B7
:101BC0008DF80123174A16494C31174800F006FFDB
:101BD000022301220421124800F0A8F80121104834
:101BE00000F02FF801210E4800F020F80C4800F01A
:101BF000F9F800BF0A4800F067F80028FAD1084851
:101C000000F000F900BF064800F054F80028FAD1AF
:101C10000121034800F0EBF807B000BD00080140C7
:101C200000240140A40700200800024021B182687E
:101C300042F00102826003E0826822F001028260C9
:101C4000704721B1826842F48072826003E082684A
:101C500022F480728260704710B5044612488442B4
:101C600008D10121401501F0D5F80021601501F0DF
:101C7000D1F817E00D48844208D10121001501F088
:101C8000C9F80021201501F0C5F80BE0084884428E
:101C900008D10121C80301F0BDF800214FF4004034
:101CA00001F0B8F810BD00000024014000280140F8
:101CB000003C0140014600208A6802F004020AB19B
:101CC000012000E000207047014600208A6802F0F1
:101CD00008020AB1012000E00020704730B502463A
:101CE0000020002350680F4C20400D790C6844EA16
:101CF00005242043506090680B4C2040D1E90254E9
:101D00002C434D7944EA450420439060D06A20F486
:101D100070000C7C641EE4B2234340EA0350D0629E
:101D200030BD0000FFFEF0FFFDF7F1FFF0B5044607
:101D30000D4600200021092D11DDE068A5F10A06FD
:101D400006EB4607072606FA07F18843A5F10A06BF
:101D500006EB460603FA06F10843E0600CE0206952
:101D600005EB4507072606FA07F1884305EB45060C
:101D700003FA06F108432061072A0FDA606B561E4A
:101D800006EB86071F2606FA07F18843561E06EB68
:101D9000860605FA06F10843606322E00D2A0FDA91
:101DA000206BD61F06EB86071F2606FA07F188432D
:101DB000D61F06EB860605FA06F10843206310E0FD
:101DC000E06AA2F10D0606EB86071F2606FA07F168
:101DD0008843A2F10D0606EB860605FA06F10843D4
:101DE000E062F0BD816841F008018160704721B177
:101DF000826842F4A002826003E0826822F4A002BA
:101E000082607047816841F00401816070472DE96C
:101E1000F04104460D4616461F462A2000F08EFD6E
:101E2000C4F3072000F07CFDE0B200F079FDC6F3BA
:101E3000072000F075FDF0B200F072FD2B2000F0DD
:101E40007DFDC5F3072000F06BFDE8B200F068FDF2
:101E5000C7F3072000F064FDF8B200F061FD2C200C
:101E600000F06CFDBDE8F08108B50121082000F00C
:101E7000C1FF4FF40040ADF8000010208DF80300C2
:101E800003208DF802006946064800F00FFB4FF46E
:101E90000041044800F0E9FB4721092001F06AFEF7
:101EA00008BD0000000C01402DE9F04F87B004464A
:101EB0000E4691461D460120A07549464FF07E50C2
:101EC00006F0DEFA834606F0AFFA074600222F4BF3
:101ED00006F0C2F8C4E90001C6F1640006F0A5F8F6
:101EE000CDE90001D4E900733A4606F0B5F80022C6
:101EF000274BCDE9020105F0E3FECDE9040106F030
:101F000067F81FFA80FAA4F812A0D4E90001C4E926
:101F1000020149464FF07E5006F0B2FA1D49059085
:101F200006F0B8FB80464FF47A7105FB01F006F02D
:101F300085FB8346414606F0A3FA074606F062FB9E
:101F4000208249464FF07E5006F09AFA11490490DB
:101F500006F0A0FB83464FF47A7105FB01F006F012
:101F60006DFB5946059006F08BFA804606F04AFB59
:101F700007463A46514608A0FEF726FA01210A48CC
:101F800001F060FA07B0BDE8F08F000080842E41B8
:101F90000000594000247449766F3A25642C206A69
:101FA000703A25640D0A0000002C014010B54FF472
:101FB0009673034A46210348FFF776FF10BD0000E1
:101FC00000007A45A807002000BFFEE770B5044670
:101FD0000D46012D06D0022D24D0032D45D0042D11
:101FE0007DD162E054B901203E49086000203E499D
:101FF000C1F884013DA0FEF7E7F912E0012C0AD1F7
:1020000000203849086001203749C1F8840138A010
:10201000FEF7DAF905E00020324908603249C1F8DC
:1020200084015CE05CB901202E4908310860002081
:102030002D49C1F88C012FA0FEF7C6F914E0012C40
:102040000BD1002027490831086001202649C1F83A
:102050008C0129A0FEF7B8F906E0002021490831DB
:1020600008602149C1F88C0139E05CB901201D49A3
:102070001031086000201C49C1F894011FA0FEF730
:10208000A3F911E0012C08D1002016491031086095
:1020900001201549C1F8940106E0002011491031D2
:1020A00008601149C1F8940119E03CB901201449B4
:1020B000086000201349C1F884010FE0012C07D10A
:1020C00000200F49086001200E49C1F8840105E095
:1020D00000200B4908600B49C1F8840100BF00BF14
:1020E00070BD00008001224200002242310D0A0032
:1020F000320D0A00330D0A00340D0A00350D0A00B6
:10210000808121420080214210B54FF4005000F040
:10211000D7F870B14FF4005000F012F84021054894
:1021200002F048F80021044800F018F800200349A4
:10213000087010BD0038014044000240E90400204E
:1021400000F0805111B10349086001E00249486084
:1021500070470000040402400000024021B1026800
:1021600042F00102026004E002684FF6FE731A407A
:102170000260704701684FF6FE7211400160002155
:10218000016041608160C1604B49884208D14A4981
:102190000839496841F00F01474A083A51608AE01E
:1021A00045491431884208D143490839496841F00A
:1021B000F001414A083A51607DE03F4928318842A8
:1021C00008D13D490839496841F470613A4A083AF2
:1021D000516070E038493C31884208D136490839AD
:1021E000496841F47041344A083A516063E0324929
:1021F0005031884208D130490839496841F470218A
:102200002D4A083A516056E02B496431884208D182
:1022100029490839496841F47001274A083A516050
:1022200049E025497831884208D12349083949686D
:1022300041F07061204A083A51603CE01F498842F1
:1022400006D1011F096841F00F01021F116032E041
:102250001A491431884208D11849091F096841F008
:10226000F001164A121F116025E0144928318842F6
:1022700008D11249091F096841F470610F4A121F01
:10228000116018E00D493C31884208D10B49091F03
:10229000096841F47041094A121F11600BE00749B7
:1022A0005031884207D10549091F096841F470215E
:1022B000024A121F116070470800024008040240E1
:1022C00001460020002201F0805313B1054B1A682B
:1022D00001E0054B1A6802EA01030BB1012000E09E
:1022E0000020704700040240000002401AB1036859
:1022F0000B43036002E003688B430360704710B533
:102300000022026847F6F0739A430C6A8B682343F5
:102310000C6923434C6923438C692343CC692343D1
:102320004C6A23438C6A23431A430260CB684360A0
:102330000B6883604B68C36010BD000070B5054634
:102340000C4600BF074800780028FBD10120054952
:102350000870054805658464012103484430FFF78F
:10236000FDFE70BDE904002000000240704700003F
:1023700008B50A2002F048F94FF400710D4800F04A
:1023800069F928B96A4601210B48006804F092F9FE
:102390004FF48071074800F05DF928B96A460221C0
:1023A0000548006804F086F94FF4407000F006F824
:1023B00008BD0000001001407000002001490860C5
:1023C0007047000014040140002123498279002A4B
:1023D0003AD00A46126803689A430B461A600A1DEF
:1023E000126803689A430B1D1A60027911440A6847
:1023F00003681A430A60184A0832126803689A434D
:10240000154B08331A601A1D126803689A43124B61
:102410000C331A604279102A0ED11A1F1268036811
:102420001A430D4B08331A601A1D126803681A43C9
:10243000094B0C331A600DE00749427911440A68D0
:1024400003681A430A6005E0027911440A680368C8
:102450009A430A607047000000040140024901608D
:102460006421C16070470000C807002030B5002219
:102470008B071C0F0F2303FA04F20B4B8C1053F83D
:1024800024309343084C8D1044F8253023468C109B
:1024900053F824308C07240F00FA04F42343024C31
:1024A0008D1044F8253030BD080001402DE9F04181
:1024B000024600250026002000230024002791F872
:1024C00003C00CF00F0591F803C00CF0100CBCF128
:1024D000000F03D091F802C04CEA050591F800C046
:1024E000BCF1000F31D0146800202BE04FF0010C3C
:1024F0000CFA00F3B1F800C00CEA03069E4220D1AA
:1025000083004FF00F0C0CFA03F7BC4305FA03FCF1
:102510004CEA040491F803C0BCF1280F06D14FF037
:10252000010C0CFA00FCC2F814C00AE091F803C0D8
:10253000BCF1480F05D14FF0010C0CFA00FCC2F8B9
:1025400010C0401C0828D1D31460B1F800C0BCF101
:10255000FF0F34DD546800202EE000F1080C4FF02E
:10256000010808FA0CF3B1F800C00CEA03069E4219
:1025700021D183004FF00F0C0CFA03F7BC4305FA8E
:1025800003FC4CEA040491F803C0BCF1280F05D108
:1025900000F1080C08FA0CF8C2F8148091F803C096
:1025A000BCF1480F07D100F1080C4FF0010808FA00
:1025B0000CF8C2F81080401C0828CED35460BDE847
:1025C000F0810000F0B50A46002300240021002518
:1025D00000F00046B6F1004F02D11D4EF16901E056
:1025E0001B4E7168C0F3034583B200F44016B6F584
:1025F000401F08D121F07061154E766826F0706694
:10260000134F7E6012E000F48016B6F5801F06D1ED
:10261000032606FA05F4A14341F0706106E0460D79
:10262000360103FA06F6B14341F0706122B1460D5E
:10263000360103FA06F6314300F00046B6F1004FCA
:1026400002D1034EF16101E0014E7160F0BD000066
:10265000000001400246002093680B400BB10120AE
:1026600000E000207047416170470161704700BF82
:10267000FEE7000010B510210748FFF7F6FF202104
:102680000548FFF7F2FF20210348FFF7ECFF102178
:102690000148FFF7E8FF10BD000C014010B5102104
:1026A0000548FFF7E2FF20210348FFF7DCFF202168
:1026B0000148FFF7DAFF10BD000C014010B51021F2
:1026C0000348FFF7D2FF10210148FFF7CCFF10BDF0
:1026D000000C01401FB50121142000F08BFB0121EB
:1026E000084600F087FB01212748FFF76BFF4FF4F6
:1026F0000070ADF80C0048208DF80F0003A92348A6
:10270000FFF7D4FE4FF48070ADF80C0048208DF830
:102710000F0003A91D48FFF7C9FE09210220FFF79A
:10272000A5FE4FF40070019000208DF808000C20E9
:102730008DF8090001208DF80A0001A8FFF744FE7A
:1027400008210220FFF792FE4FF4807001900020D4
:102750008DF808000C208DF8090001208DF80A0082
:1027600001A8FFF731FE17208DF8000008208DF832
:10277000010000208DF8020001208DF8030068465A
:1027800000F058F91FBD00000002300000100140A9
:1027900070B50646EF231A4600210846FFF737FBBF
:1027A000002408E0002503E0304600F0A7F86D1C87
:1027B000F02DF9D3641CF02CF4D370BD70B5044631
:1027C0000D462B46224629462046FFF720FB0248AD
:1027D000006800F093F870BDE00400202DE9F84F88
:1027E00005460F4616469A46AB46324800680090AA
:1027F000E02D01D8E02F01D9BDE8F88FA6F1200027
:10280000C6B207F10F03EA1D39462846FFF7FFFA63
:10281000BAF1000F29D1002424E004EB0610264968
:1028200011F800904FF0000815E009F0010018B110
:1028300020490098086003E0204800681D490860AE
:102840001C48006800F05AF84FEA69096D1C08F14D
:10285000010000F0FF08B8F1080FE6DB5D467F1CC1
:10286000601CC4B2102CD8DB1EE000241AE004EB7C
:102870000610114911F800904FF000080DE009F022
:10288000010020B1391905EB0800FFF797FF4FEA67
:10289000690908F1010000F0FF08B8F1080FEEDB4C
:1028A000601CC4B2102CE2DB02490098086000BF33
:1028B000A2E70000E004002074890008DC04002086
:1028C00070B505460E46144614E0E02D01D90025EA
:1028D0001036E02E06D90020054606464FF4784013
:1028E000FFF756FF2278002331462846FFF776FF90
:1028F0000835641C20780028E7D170BD10B5044667
:102900004FF400610548FFF7B0FEC4F3072000F064
:1029100023F8E0B200F020F810BD000000080140EC
:1029200010B504464FF400610348FFF79EFE2046B1
:1029300000F012F810BD00000008014010B5044678
:102940004FF400610348FFF78EFE204600F004F8C4
:1029500010BD00000008014070B5044600251BE0D2
:102960004FF480410E48FFF77EFE04F0800028B14E
:102970004FF400510A48FFF778FE04E04FF400518D
:102980000748FFF770FE4FF480410548FFF76DFEE2
:102990006006040E681CC5B2082DE1DB70BD0000A6
:1029A0000008014008B50121042000F023FA4FF48B
:1029B0008070ADF8000010208DF8030003208DF822
:1029C000020069460448FFF771FD4FF48071024828
:1029D000FFF74BFE08BD000000080140F0B58BB0CA
:1029E00007460C4615461E460121084600F0D2F95E
:1029F0003846FFF7BFFB0094019500200290039634
:102A0000049005904FF4807006908000079020207D
:102A100008900002099000200A9069463846FFF7A6
:102A20006EFC01213846FFF799FB0BB0F0BD00BFEB
:102A3000FEE7704770B5002100230F22C47804B36D
:102A4000154C246804F4E064C4F5E064210AC1F183
:102A50000403CA40447804FA03F184781440214303
:102A600009010E4C0678A155047804F01F050124D5
:102A7000AC4005786D11AD0005F1E025C5F80041C9
:102A800009E0047804F01F050124AC40044D0678E9
:102A9000761145F8264070BD0CED00E000E400E042
:102AA00080E100E002490143024A116070470000E2
:102AB0000000FA050CED00E070B5002418E004F108
:102AC000B000002100F0BAF80021084600F0B6F886
:102AD0000021102000F0B2F8002505E001210020BF
:102AE00000F0ACF8681CC5B2802DF7DB601CC4B2E6
:102AF000082CE4DB70BD000008B50121082000F0BF
:102B000079F90121084600F075F901214448FFF7E1
:102B100059FD3020ADF8000010208DF8030003208F
:102B20008DF8020069463F48FFF7C0FC30213D4860
:102B3000FFF79BFD4FF4C87001F066FD0021AE2049
:102B400000F07CF80021084600F078F80021102001
:102B500000F074F80021402000F070F80021B0204F
:102B600000F06CF80021812000F068F80021FF20BF
:102B700000F064F80021A12000F060F80021A620F8
:102B800000F05CF80021A82000F058F800213F2058
:102B900000F054F80021C82000F050F80021D320A4
:102BA00000F04CF80021084600F048F80021D5203C
:102BB00000F044F80021802000F040F80021D820E7
:102BC00000F03CF80021052000F038F80021D92061
:102BD00000F034F80021F12000F030F80021DA2074
:102BE00000F02CF80021122000F028F80021DB2052
:102BF00000F024F80021302000F020F800218D2082
:102C000000F01CF80021142000F018F80021AF207B
:102C100000F014F8FFF750FF03A0FDF7D5FB08BD47
:102C200000023000000C01404F4C454420696E69A1
:102C30007420737563636573730D0A0070B5044681
:102C40000D461DB1E0B201F039FC02E0E0B201F046
:102C50001FFC70BD002146488163C163016441646B
:102C60004165444981640021C16401658161C1619C
:102C70000162416241634FF07E5181623E49C1620F
:102C80004FF07F5101630021C0F88C10C0F8901004
:102C9000C0F89410C0F89810C0F8A8103549C0F8D2
:102CA0009C100021C0F8A010C0F8A410C1660167F4
:102CB00041678167C0F888104FF07E51C1672E4987
:102CC000C0F880104FF07F51C0F884100021C0F888
:102CD000E010C0F8E410C0F8E810C0F8EC10C0F83C
:102CE000FC102449C0F8F0100021C0F8F410C0F81E
:102CF000F810C0F8C010C0F8C410C0F8C810C0F870
:102D0000CC10C0F8DC104FF07E51C0F8D0101A493A
:102D1000C0F8D4104FF07F51C0F8D8100021C0F88F
:102D20003411C0F83811C0F83C11C0F84011C0F897
:102D300050111049C0F844110021C0F84811C0F8E2
:102D40004C11C0F81411C0F81811C0F81C11C0F8CB
:102D50002011C0F830114FF07E51C0F824110649FF
:102D6000C0F828114FF07F51C0F82C1170470000B7
:102D7000500600208FC2753ECDCCCC3E01460020CF
:102D8000034A506820F440400843506070470000F8
:102D90000010024029B1064A52690243044B5A61AD
:102DA00004E0034A52698243014B5A6170470000B4
:102DB0000010024029B1064AD2690243044BDA618D
:102DC00004E0034AD2698243014BDA617047000094
:102DD0000010024029B1064A12690243044B1A61ED
:102DE00004E0034A12698243014B1A6170470000F4
:102DF0000010024029B1064A92690243044B9A61CD
:102E000004E0034A92698243014B9A6170470000D3
:102E10000010024029B1064AD2680243044BDA602E
:102E200004E0034AD2688243014BDA607047000035
:102E30000010024030B500210022002400232D4D57
:102E40006D6805F00C0121B1042905D0082923D1B2
:102E500005E0294D056022E0274D05601FE0254D66
:102E60006D6805F47012234D6D6805F480340225F9
:102E700005EB92421CB9214D554305600BE01D4DF9
:102E80006D6805F400351DB11C4D5543056002E029
:102E9000194D5543056002E0174D056000BF00BFA6
:102EA000144D6D6805F0F0010909154D6B5C05685E
:102EB000DD4045600F4D6D6805F4E061090A104D75
:102EC0006B5C4568DD4085600A4D6D6805F46051B6
:102ED000C90A0B4D6B5C4568DD40C560054D6D68EA
:102EE00005F44041890B074D6B5CC568B5FBF3F5F4
:102EF000056130BD0010024000127A0000093D005B
:102F0000F20400200205002010B500F001F810BD09
:102F10000CB50020019000903348006840F48030E8
:102F20003149086000BF3048006800F4003000906C
:102F30000198401C0190009818B90198B0F5A06F55
:102F4000F1D12948006800F4003010B10120009050
:102F500001E0002000900098012843D12348006838
:102F600040F01000214908600846006820F0030086
:102F700008600846006840F0020008601A4840688F
:102F8000194948600846406848600846406840F46F
:102F9000806048600846406820F47C10486008461D
:102FA000406840F4E81048600846006840F08070CF
:102FB000086000BF0C48006800F000700028F9D0DD
:102FC0000948406820F00300074948600846406807
:102FD00040F00200486000BF0348406800F00C0069
:102FE0000828F9D10CBD000000100240002002406A
:102FF000042808D14FF0E021096941F004014FF0A5
:10300000E022116107E04FF0E021096921F004019D
:103010004FF0E0221161704710B504F09BF90128D0
:1030200001D003F0A7FC10BD10B51348006840F0B4
:1030300001001149086008464068104908400E49DF
:103040004860084600680E4908400B490860084679
:10305000006820F4802008600846406820F4FE00E4
:1030600048604FF41F008860FFF74EFF4FF000608C
:103070000449086010BD0000001002400000FFF885
:10308000FFFFF6FE08ED00E008B501211020FFF774
:10309000B1FE01210820FFF7ADFE3F20ADF8000092
:1030A00010208DF8030003208DF8020069460948BE
:1030B000FFF7FCF93F210748FFF7D5FA0320ADF8E9
:1030C000000069460448FFF7F1F903210248FFF7C1
:1030D000CCFA08BD00100140000C0140F0B50C46D0
:1030E000154600220021068C4FF6FE773E400684EE
:1030F000028B018C4FF60C7632407E1C06EA0316DA
:103100002E433243104EB0420ED0104EB0420BD080
:10311000B0F1804F08D00E4EB04205D00D4EB042F7
:1031200002D00D4EB04206D14FF6FD76314044F04C
:103130000106314305E04FF6F576314044F00106D3
:10314000314302830184F0BD002C01400034014072
:103150000004004000080040000C0040F0B50C46A0
:103160001546002200210026078C4FF6EF7C07EA67
:103170000C070784028B018C4FF6FF7707EA0416D1
:1031800040F6FF473A404FF6FF7707EA03373A43E6
:103190004FF6FF7707EA05273A43114FB8420ED0A2
:1031A000104FB8420BD0B0F1804F08D00E4FB8424C
:1031B00005D00E4FB84202D00D4FB84206D14FF69F
:1031C000DF77394046F01007394305E04FF65F7767
:1031D000394044F01007394302830184F0BD0000F8
:1031E000002C014000340140000400400008004071
:1031F000000C0040F0B50C461546002200210026C8
:10320000078C4FF6FF6C07EA0C070784828B018C52
:103210004FF6FF7707EA04264FF60C773A404FF651
:10322000FF7707EA03172F433A43114FB8420ED0F6
:10323000104FB8420BD0B0F1804F08D00E4FB842BB
:1032400005D00E4FB84202D00D4FB84206D14FF60E
:10325000FF57394046F48077394305E04FF2FF5776
:10326000394044F48077394382830184F0BD000003
:10327000002C0140003401400004004000080040E0
:10328000000C0040F0B50C46154600220021002637
:10329000078C4EF6FF7C07EA0C070784828B018CB3
:1032A0004FF6FF7707EA043640F6FF473A404FF6FD
:1032B000FF7707EA05273A434FF6FF7707EA033718
:1032C0003A43114FB8420ED0104FB8420BD0B0F174
:1032D000804F08D00E4FB84205D00E4FB84202D0F2
:1032E0000D4FB84206D14DF6FF77394046F480576E
:1032F000394305E047F6FF57394044F480573943D6
:1033000082830184F0BD0000002C014000340140A4
:103310000004004000080040000C0040F8B5002404
:103320000121384800F0BFF900285ED0012135485E
:1033300000F085F83448807D012803D03248807D34
:1033400002282FD13048D0E90021104604F010FEA9
:10335000002827DB2C4800222C4BD0E900512846BE
:1033600004F078FF284A03C229480088401C2849F5
:1033700008800220244988750846D0E900211046BB
:1033800004F0F6FD2049498A884205DD4FF40041EA
:103390002048FFF76AF928E04FF400411D48FFF785
:1033A00062F922E01848008A00280BDD1648008ADE
:1033B000401E154908820846D0E90210124AC2E9A7
:1033C000001012E000210F4800F03CF800201049E6
:1033D00008800D48C07D012804D169460E48006868
:1033E00003F01CFD00200849887500BF3CB14FF078
:1033F00080500A490860BFF34F8FBFF36F8F00BF43
:10340000F8BD0000002C0140A80700200000244067
:1034100090000020000C01406C00002004ED00E052
:1034200021B1028842F08002028004E002884FF657
:103430007F731A4002807047CA4302827047CA43B2
:103440000282704721B1028842F00102028004E04A
:1034500002884FF6FE731A400280704731B1B0F80F
:10346000442042F40042A0F8442005E0B0F8442093
:10347000C2F30E02A0F844207047000010B50446C5
:103480006848844208D10121C014FFF7C3FC002121
:10349000E014FFF7BFFCC4E0B4F1804F08D1012174
:1034A0000846FFF797FC00210120FFF793FCB8E0E6
:1034B0005D48844208D101210220FFF78BFC0021E6
:1034C0000220FFF787FCACE05848844208D1012174
:1034D0000420FFF77FFC00210420FFF77BFCA0E025
:1034E0005348844208D101210820FFF773FC0021D2
:1034F0000820FFF76FFC94E04E48844208D1012178
:103500001020FFF767FC00211020FFF763FC88E024
:103510004948844208D101212020FFF75BFC0021AB
:103520002020FFF757FC7CE04448844208D1012169
:103530004014FFF76FFC00216014FFF76BFC70E094
:103540003F48844209D10121C804FFF763FC0021F0
:103550004FF40020FFF75EFC63E03A48844209D153
:1035600001210805FFF756FC00214FF48010FFF7FA
:1035700051FC56E03448844209D101214805FFF747
:1035800049FC00214FF40010FFF744FC49E02F48AC
:10359000844208D101214020FFF71CFC002140207B
:1035A000FFF718FC3DE02A48844208D10121802021
:1035B000FFF710FC00218020FFF70CFC31E02548CC
:1035C000844208D101218015FFF704FC0021A015D9
:1035D000FFF700FC25E02048844209D101210804BE
:1035E000FFF718FC00214FF48030FFF713FC18E0C0
:1035F0001A48844209D101214804FFF70BFC00213D
:103600004FF40030FFF706FC0BE01548844208D168
:1036100001218804FFF7FEFB00214FF48020FFF713
:10362000F9FB10BD002C01400004004000080040E0
:10363000000C004000100040001400400034014025
:10364000004C01400050014000540140001800406F
:10365000001C0040002000400040014000440140A8
:1036600000480140F0B50C4615461E4600210022D8
:1036700000230189028B038C4FF6F87739402143F0
:103680004FF6FC473A4040F201173A434FF6DD77D8
:103690003B404FF6FF7707EA06172F433B43018174
:1036A00002830384F0BD30B50246002000230024CD
:1036B000158A05EA0103958905EA010413B10CB1E5
:1036C000012000E0002030BD70B505460C462448BE
:1036D00085420ED0234885420BD0B5F1804F08D0EB
:1036E0002148854205D02148854202D020488542A4
:1036F00000D100E000BF208850B92389A2886188EA
:103700002846FFF7EBFCE188284600F0ABF925E0FE
:10371000208804280AD12389A28861882846FFF7D7
:103720001DFDE188284600F0A6F917E0208808284A
:103730000AD12389A28861882846FFF75BFDE188CA
:10374000284600F0A5F909E02389A2886188284667
:10375000FFF798FDE188284600F0A3F970BD00004E
:10376000002C0140003401400004004000080040EB
:10377000000C004000210180418001218180002156
:10378000C180018170471AB183890B43838102E0B4
:1037900083898B438381704770B500240022002306
:1037A000058C4FF6FE7635400584028C8388048BA9
:1037B0004FF68F752C40B51E2C400D882C43751E7E
:1037C0002A400D892A434D882A43144DA8420BD024
:1037D000134DA84208D0134DA84205D0124DA8425F
:1037E00002D0124DA84213D14FF6F7752A404D89E9
:1037F0002A434FF6FB752A408D882A434FF6FF6512
:103800002B404FF6FF552B408D892B43CD892B4301
:1038100083800483CD888586028470BD002C01409E
:103820000034014000400140004401400048014094
:103830000A460021018B4FF6F773194011430183AB
:103840007047000070B5002400220023058C4FF65D
:10385000EF7635400584028C8388048B48F6FF752B
:103860002C404FF6FF452C400D884FF6FF7606EAB8
:1038700005252C434FF6DF752A400D8906EA05150C
:103880002A434D8806EA05152A43154DA84202D061
:10389000144DA8421DD14FF67F752A404D894FF631
:1038A000FF7606EA05152A434FF6BF752A408D8834
:1038B00006EA05152A434FF6FF352B404FF2FF75F8
:1038C0002B408D8906EA85052B43CD8906EA8505BF
:1038D0002B4383800483CD880587028470BD00005C
:1038E000002C0140003401400A460021018B4FF2B8
:1038F000FF7319404FF6FF7303EA02231943018354
:103900007047000070B5002400220023058C4FF69C
:10391000FF6635400584028C8388848B4FF68F7553
:103920002C404FF6FC752C400D882C434FF6FF556C
:103930002A400D894FF6FF7606EA05252A434D8871
:1039400006EA05252A43154DA84202D0144DA84287
:103950001DD14FF2FF752A404D894FF6FF7606EADA
:1039600005252A434FF6FF352A408D8806EA0525AE
:103970002A434EF6FF752B404DF6FF752B408D897F
:1039800006EA05152B43CD8906EA05152B438380EE
:103990008483CD888587028470BD0000002C01409F
:1039A000003401400A460021818B4FF6F77319401D
:1039B000114381837047000070B50022002300246A
:1039C000058C4EF6FF7635400584038C8488828B07
:1039D00048F6FF752A404FF6FF452A400D884FF6FE
:1039E000FF7606EA05252A434DF6FF752B400D8923
:1039F00006EA05352B434D8806EA05352B430B4D6A
:103A0000A84202D00A4DA84208D14BF6FF752C40BF
:103A10008D894FF6FF7606EA85152C4384808283D4
:103A2000CD88A0F84050038470BD0000002C0140F8
:103A3000003401400A460021818B4FF2FF73194088
:103A40004FF6FF7303EA022319438183704781868F
:103A500070470187704781877047A0F84010704712
:103A600081847047028B4FF6F3731A400283028BF6
:103A70000A4302837047028B4FF2FF331A400283DE
:103A8000028B4FF6FF7303EA01231A430283704748
:103A9000828B4FF6F3731A408283828B0A438283B0
:103AA0007047828B4FF2FF331A408283828B4FF62E
:103AB000FF7303EA01231A438283704700220288BE
:103AC0001D4B98420ED01D4B98420BD0B0F1804F49
:103AD00008D01B4B984205D01A4B984202D01A4B83
:103AE000984204D14FF68F731A404B881A43174BF4
:103AF000984207D0164B984204D04FF6FF431A4025
:103B0000CB881A4302808B8883850B8803850A4BF8
:103B100098420BD0094B984208D00E4B984205D0E2
:103B20000D4B984202D00D4B984201D10B7A03867F
:103B30000123838270470000002C014000340140C3
:103B40000004004000080040000C0040001000404D
:103B50000014004000400140004401400048014082
:103B60004FF6FF71818000210180C1804180017288
:103B7000704700007FB505460C460121C802FFF7DB
:103B800039F9ADF80850ADF804400020ADF80A004E
:103B9000ADF806008DF80C0001A90E48FFF78EFF66
:103BA00001210C48FFF748FC012211460948FFF7A4
:103BB000EAFD19208DF8000001208DF80300062091
:103BC0008DF8010000208DF802006846FEF732FFF4
:103BD0007FBD0000002C014030B589B005460C4681
:103BE00001210846FFF7E6F801210D20FFF702F951
:103BF00001213648FEF7E6FC01213548FEF7E2FCDC
:103C00004FF40040ADF8040003208DF806001820A2
:103C10008DF8070001A92F48FEF748FC40F6084040
:103C2000ADF8040001A92C48FEF740FC4FF080409D
:103C3000FFF724FCADF81C50ADF818400020ADF89B
:103C40001E00ADF81A0006A94FF08040FFF736FFBE
:103C50007020ADF808000120ADF80A000020ADF892
:103C60000E000220ADF8100002A94007FFF794FDF6
:103C700002A94FF08040FFF7E5FD02A94FF0804018
:103C8000FFF740FE02A94FF08040FFF795FE0821A4
:103C9000C806FFF7CDFD0821C806FFF725FE08215D
:103CA000C806FFF77FFE0821C806FFF7C3FE012103
:103CB0008807FFF7D3FB01218807FFF7B1FB01213C
:103CC0008807FFF7BFFB09B030BD000000031800F4
:103CD0000002300000080140000C014030B587B000
:103CE00004460D4601210220FFF764F8012104205B
:103CF000FFF780F8C020ADF8000004208DF8030025
:103D000069461B48FEF7D2FB04A8FFF729FFADF870
:103D10001050ADF814400020ADF81600ADF81200B8
:103D200004A91448FFF7CAFE00231A4603211148CC
:103D3000FFF798FC01A8FFF71DFD0A20ADF80C0065
:103D400001A90C48FFF7C0FC01210A48FFF774FBEA
:103D5000012211460748FFF716FD00210548FFF72D
:103D60007FFE01210348FFF76DFB07B030BD000067
:103D7000000801400004004030B587B004460D46FD
:103D800001210420FFF716F801210820FFF732F87F
:103D9000C020ADF8000004208DF8030069461B48E0
:103DA000FEF784FB04A8FFF7DBFEADF81050ADF87A
:103DB00014400020ADF81600ADF8120004A9144814
:103DC000FFF77CFE00231A4603211148FFF74AFC47
:103DD00001A8FFF7CFFC0A20ADF80C0001A90C48A0
:103DE000FFF772FC01210A48FFF726FB012211466A
:103DF0000748FFF7C8FC00210548FFF731FE012105
:103E00000348FFF71FFB07B030BD0000000C014066
:103E10000008004030B587B004460D460121082057
:103E2000FEF7C8FF01210420FEF7E4FF0320ADF8F0
:103E3000000004208DF8030069461B48FEF736FB9E
:103E400004A8FFF78DFEADF81050ADF81440002027
:103E5000ADF81600ADF8120004A91448FFF72EFEC5
:103E600000231A4603211148FFF7FCFB01A8FFF7C6
:103E700081FC0A20ADF80C0001A90C48FFF724FCD6
:103E800001210A48FFF7D8FA012211460748FFF737
:103E90007AFC00210548FFF7E3FD01210348FFF705
:103EA000D1FA07B030BD000000080140000C00400E
:103EB00030B587B004460D4601214803FEF79AFF4E
:103EC00001210420FEF796FFC020ADF80000042079
:103ED0008DF8030069461B48FEF7E8FA04A8FFF7CF
:103EE0003FFEADF81050ADF814400020ADF81600BC
:103EF000ADF8120004A91448FFF7E0FD00231A46AC
:103F000003211148FFF7AEFB01A8FFF733FC0A209D
:103F1000ADF80C0001A90C48FFF7D6FB01210A48B7
:103F2000FFF78AFA012211460748FFF72CFC00210F
:103F30000548FFF795FD01210348FFF783FA07B015
:103F400030BD0000001001400034014010B540F2C7
:103F50002551084800F0AAF930B106488088C4B25B
:103F60002146054800F063FA40F22551014800F06F
:103F70002AF910BD005000400048004010B540F242
:103F800025511D4800F092F910B31B4800F04AFA81
:103F9000C4B21A48008800F40040C8B91748008825
:103FA00000F4804060B10A2C03D00020134908803F
:103FB00020E01248008840F400401049088019E0D1
:103FC0000D2C06D10D48008840F480400B49088034
:103FD00010E00A480088C0F30D0009490C54074856
:103FE0000088401C0549088008460088C72801DD74
:103FF0000020088010BD000000380140F0040020BF
:104000001009002000B58DB001210846FEF7C2FE60
:1040100023480190102003900020059080200690F6
:1040200000200790089009904FF480500A900020DB
:104030000B9001A91B48FEF762F90E208DF83000A5
:1040400003208DF8310000208DF8320001208DF81A
:1040500033000CA8FEF7EEFC0F208DF83000032093
:104060008DF8310001208DF832008DF833000CA856
:10407000FEF7E0FC012202210A48FEF737F9012190
:104080000848FEF76BF800210648FEF767F80122A2
:10409000C0210348001F00F0B1F80DB000BD0000C2
:1040A000043801404400024010B540F2255109484F
:1040B00000F0FCF838B1074800F0B4F9C4B221466A
:1040C000044800F0B4F940F22551024800F07BF8B2
:1040D00010BD00000044004010B586B00446012128
:1040E0000420FEF787FE01214804FEF763FE234803
:1040F00000F08EF80420ADF8100003208DF81200B7
:1041000018208DF8130004A91D48FEF7CFF90820E8
:10411000ADF8100048208DF8130004A91848FEF7E8
:10412000C5F900940020ADF80400ADF80600ADF824
:104130000800ADF80C000C20ADF80A0069460F48E5
:1041400000F004F901210D4800F04CF8012240F282
:1041500025510A4800F0D4F826208DF814000820D4
:104160008DF8150000208DF8160001208DF817003D
:1041700005A8FEF75FFC06B010BD0000004400403B
:104180000008014010B540F22551094800F08EF8B2
:1041900038B1074800F046F9C4B22146044800F09F
:1041A00046F940F22551024800F00DF810BD00001C
:1041B0000048004001F40072B2F5007F00D100BF5A
:1041C000CA430280704710B50022002340F66A14EB
:1041D000A14200D100BF0A1201249440A3B2DC43E3
:1041E000048010BD21B1828942F40052828104E032
:1041F00082894DF6FF731A40828170471AB1838A13
:104200000B43838202E0838A8B43838270470000E2
:1042100010B504462048844209D101218803FEF7E5
:10422000F9FD00214FF48040FEF7F4FD32E01B4819
:10423000844209D101214804FEF7CCFD00214FF44E
:104240000030FEF7C7FD25E01548844209D1012161
:104250008804FEF7BFFD00214FF48020FEF7BAFD71
:1042600018E01048844209D10121C804FEF7B2FDCC
:1042700000214FF40020FEF7ADFD0BE00A48844218
:1042800008D101210805FEF7A5FD00214FF480109B
:10429000FEF7A0FD10BD00000038014000440040C2
:1042A00000480040004C00400050004070B50246FD
:1042B000002400230025002040F66A16B14200D1F8
:1042C00000BFC1F3421501F01F03012606FA03F3F4
:1042D000012D02D19689334006E0022D02D1168AC3
:1042E000334001E0968A33400C12012606FA04F4AA
:1042F0001688344013B10CB1012000E0002070BDDD
:10430000F0B50346002400260025002040F66A1779
:10431000B94200D100BF1846C1F3421401F01F0694
:10432000012707FA06F5012C01D10C3004E0022C1C
:1043300001D1103000E014301AB107682F43076034
:1043400002E00768AF430760F0BD00002DE9F047C9
:1043500086B005460E460024A24600BFA1460027AF
:10436000B08900B100BF2F462C8A4CF6FF70044084
:10437000F08804432C82AC894EF6F3100440B088D8
:1043800031890843718908430443AC81AC8A4FF6F4
:10439000FF400440B0890443AC8201A8FEF74AFD07
:1043A0001F48874202D1DDF810A001E0DDF80CA023
:1043B000A88900F4004040B10AEBCA0000EB0A10E3
:1043C00031684900B0FBF1F807E00AEBCA0000EBE6
:1043D0000A1031688900B0FBF1F86420B8FBF0F0F6
:1043E00004012009642101FB1089A88900F4004020
:1043F00040B1322000EBC900B0FBF1F000F0070043
:10440000044308E0322000EB09106421B0FBF1F016
:1044100000F00F0004432C8106B0BDE8F0870000D7
:104420000038014001468888C0F308007047C1F396
:1044300008028280704700BFFEE700002DE9F041CE
:1044400005462C4610211148FEF70DF9002619E00B
:10445000274607F08007802F04D120210B48FEF764
:1044600004F903E020210948FEF7FDF86006040E78
:1044700010210648FEF7F9F810210448FEF7F3F87A
:10448000701CC6B2082EE3DBBDE8F081000C0140D1
:1044900010B50446FEF7EEF87820FFF7CFFFFEF7E1
:1044A0000DF90020FFF7CAFFFEF708F92046FFF7D5
:1044B000C5FFFEF703F9FEF7F1F810BD10B504468D
:1044C000FEF7D8F87820FFF7B9FFFEF7F7F840209D
:1044D000FFF7B4FFFEF7F2F82046FFF7AFFFFEF755
:1044E000EDF8FEF7DBF810BD490050EAC12018BF17
:1044F00004204A0D18BF40F0010040F2FF72B2EBF9
:10450000515F08BF40F00200012808BF0520704736
:1045100030380A2801D2012070470020704700BFC0
:104520007047000010B50420FEF762FD10480068D7
:104530001049B0FBF1F0104908700D4800680D49B2
:10454000B0FBF1F44FF47A70444301200B4908802A
:104550004FF0E020006940F002004FF0E0210861D8
:1045600008464461006940F00100086110BD000088
:104570007C00002040420F00E4040020E6040020FC
:1045800070B5044602F0E6FE012810D00B48008802
:10459000844206D309480088B4FBF0F5284601F0B0
:1045A0009FFC06480088B4FBF0F100FB11444FF477
:1045B0007A7104FB01F000F003F870BDE6040020FE
:1045C00070B5034600224FF0E02675690D4E36782F
:1045D00003FB06F44FF0E026B16910E04FF0E0264F
:1045E000B06988420BD0884202D20E1A324402E0EF
:1045F0002E1A0E4432440146A24200D300E0EDE7F9
:1046000000BF70BDE404002030B50446002504E07E
:104610004FF47A70FFF7D4FF6D1CA542F8D330BD7C
:1046200000BF054A128802F04002002AF9D0C2B247
:10463000014B1B1D1A8070470038014008B500244B
:1046400031E01948006858B34FF0FF3000230122D1
:10465000032100901448006802F03EF80446FCB1C3
:10466000012C02D0022C19D114E010A0FBF7ACFEF3
:1046700000231A4619461048006802F04BFA012040
:104680000E49C8754FF4FA730D4A50210B48FDF7D7
:104690000BFC04E00BA0FBF797FE00E000BF00BF9F
:1046A0002820FFF76DFFCCE770000020737733B14F
:1046B000BBB0B4CFC20D0A006C000020A8070020D8
:1046C00000008343737734B1BBB0B4CFC20D0A008E
:1046D0002AE016480068C0431549C1F8A00100202F
:1046E0001449086009E051201349124A126888549D
:1046F00010480068401C0F4908600E480068642894
:10470000F1DB0C4801680DA001F0B2F80020094966
:1047100008600D480068642802DD00200A4908602E
:104720004FF4FA70FFF72CFFD3E70000A0012142FD
:104730000000214278000020EC05002061636B64DA
:104740006A3A25640D0A0000740000201CB54FF47D
:104750004070FEF7A7F9FFF7E5FE4FF4612001F086
:10476000A7F8FFF74FFC3E48FDF778FE4FF4E13025
:10477000FFF7B2FC4FF4E13001F0EAF84FF4E1301A
:1047800001F048F9FEF70EF9FEF7B6F9FDF7A2FFC2
:10479000FEF77AFCFEF75EFAFDF7E8F9FDF764FB39
:1047A000002140F60F60FFF717FA00214FF6FF7067
:1047B000FFF794FA00214FF6FF70FFF7DDFA0021B2
:1047C0004FF6FF70FFF726FB00214FF6FF70FFF753
:1047D0006FFB00214FF08040FFF739F900214FF0C7
:1047E0008040FFF736F900214FF08040FFF733F9A2
:1047F00000214FF08040FFF730F901210620FDF73E
:10480000E5FB02210620FDF7E1FB03210620FDF771
:10481000DDFB04210620FDF7D9FB01234122002105
:104820000846FDF7DBFF4FF6FF70FDF7B1FF4FF6CF
:10483000FF700C4908604FF478400B4908600BA0EA
:10484000FBF7C2FD0E48012100238022CDE90010B4
:104850000CA10F4802F04EFD01F0F4FD00201CBD3C
:10486000F4080020DC040020E004002020B3F5CA96
:10487000BCBBAFCDEAB3C92121210D0A0000000065
:104880005000002073746172745F7461736B000078
:10489000B156000886B016E00B49B1F8540100F09B
:1048A00019F8064603F0C0FD044622460B4607A150
:1048B00001A8FBF795FD01AA00210846FEF700F8C4
:1048C000C820FFF75DFEE7E75006002025322E32B4
:1048D000665600002DE9F05F8246504603F0C6FEA2
:1048E00004460C4903F0D6FE8346584603F09CFD6F
:1048F0008046094A094B03F0E3F906464FF033328C
:10490000074B03F0A9FB044603F000F98346584621
:10491000BDE8F09F3333533A295C8FC2F528044039
:104920003333294002E01420FFF72AFEFBE70000A2
:104930004B242AE04FF0FF311448006802F0B0FB2E
:10494000134951F8240003F091FE05461148005D1B
:10495000D02100FB01F32A4602210F48FDF7A4FAFB
:1049600021460EA0FBF730FD641C0A48FBF79EFEB3
:10497000801EA04206D1002400200749C87509A066
:10498000FBF722FD6420FFF7FBFDD3E76C0000205E
:104990003088000800000020A8070020693A25643C
:1049A0000D0A0000BDE1CAF80D0A00002DE9F04132
:1049B00005460E462648076826480068001D01F097
:1049C00087F850B92348006890F82C1001208840DF
:1049D00021490968814320480160681CD8B9D6B1D3
:1049E0001E4948681B49096888601A498268096835
:1049F000CA6018490968091D82685160154909682B
:104A0000091D8160154A134909684A611146096800
:104A1000491C11601AE07C190E4800684460BC42D1
:104A200007D20C480168091D0D48006801F08AF89A
:104A30000CE008480168091D0A48006801F082F886
:104A400009480068844201D207480460BDE8F0814B
:104A50001C0500200805002020050020E80C00208F
:104A6000100500200C0500203805002010B5044674
:104A700001F08EF831480068401C30490860304829
:104A8000006840B92E4804600846006801280DD12E
:104A900000F016FA0AE02B48006838B92848006888
:104AA000C06AE16A884201D8254804602648006847
:104AB000401C2549086008460068606494F82C1082
:104AC0000120884021490968084320490860E16ABB
:104AD00001EB81011E4A02EB81014868A0608268F7
:104AE000E260211D826851608160E16A01EB810111
:104AF000174A02EB81026261E16A01EB8101144A0B
:104B000052F82110491CE26A02EB8202104B43F872
:104B1000221001F081F80B48006868B1084800686D
:104B2000C06AE16A884207D24FF0805009490860A4
:104B3000BFF34F8FBFF36F8F10BD0000180500202B
:104B40000805002024050020340500202005002051
:104B5000180A002004ED00E010B501F019F8104823
:104B60000068D0B90F4800F0DDFF0F4800F0DAFF11
:104B70000C480E4908600C480D49086000221021BD
:104B8000052001F011FF064908600846006820B1C1
:104B900008A10348006801F03FF901F03DF810BD9D
:104BA00050050020FC0C0020100D002048050020BE
:104BB0004C050020546D72510000000010B516E045
:104BC00000F0E6FF0C48C068C468201D00F080FFBC
:104BD0000A480068401E0949086009480068401EEC
:104BE0000749086001F018F8204600F05FF8044813
:104BF00000680028E4D110BDD40C00201805002066
:104C00001405002070B504460D46206C70B1216C6F
:104C1000E0680144E160D4E90210884201D32168D0
:104C2000E1602846226CE168FBF75FFD70BD2DE96D
:104C3000F04104460F4615464FF00008A66B206C65
:104C400048B9206800282CD1A06802F083FC804677
:104C50000020A06025E07DB93946226C6068FBF732
:104C600044FD216C606808446060D4E90101884219
:104C700017D32068606014E03946226CE068FBF7C7
:104C800034FD216CE068411AE1602168E0688842E7
:104C900003D2216CA068411AE160022D01D106B156
:104CA000761E701CA0634046BDE8F08110B5044636
:104CB000206B00F0E9FF204600F0E6FF10BD014642
:104CC0004A6A22B10A6B1268C2F1200000E000209B
:104CD000704700000146084A126812680AB90122AA
:104CE00000E000220A600A6822B9034A1268D2680A
:104CF000106800E0002070474805002030B54FF4F0
:104D0000A043174800F007042CB1C01D20F0070095
:104D1000134C041B1B1B0246124C22600024114D35
:104D20006C60D018083820F007000F4C2060002479
:104D30000D4D2D686C600C4D2D682C601146441A89
:104D40004C60094C24680C60084D4C682C60084D80
:104D50004C682C604FF00044064D2C6030BD0000C4
:104D6000240D00205C050020640500206C05002057
:104D7000680500207805002000BFFFF71FFF0648E8
:104D800000680128F9D94FF0805004490860BFF34A
:104D90004F8FBFF36F8FF0E7180A002004ED00E09B
:104DA0002DE9F04106460D4617469846069C0DB97A
:104DB000246000E02760E66325640121204601F0BD
:104DC00033FE84F850800020A064BDE8F08100002C
:104DD0002DE9F05F82460F4690469B460A9E0C9C4A
:104DE0004FEA8801A522206BFBF7C4FCA8F1010063
:104DF000216B01EB800929F0070909F0070008B9C8
:104E0000012000E0002028B94FF4587223A128A007
:104E1000FBF7DAFA87B1002507E0795D04F1340089
:104E20004155785D00B902E06D1C102DF5D300BF2F
:104E300000214320015502E0002084F83400202E98
:104E400001D2012000E0002028B940F2973213A1DE
:104E500017A0FBF7B9FA202E00D31F26E662E664FE
:104E600000202065201D00F06AFE04F1180000F00B
:104E700066FE2461C6F12000A061646200206065C6
:104E800084F858005A465146484600F0FFFB20601F
:104E90000B9808B10B980460BDE8F09F2E2E5C467D
:104EA00072656552544F535C7461736B732E63006B
:104EB0004572726F723A25732C25640D0A0000004A
:104EC00010B5002407E004EB84010F4A02EB8100D7
:104ED00000F028FE641C202CF5D30C4800F022FEC4
:104EE0000B4800F01FFE0B4800F01CFE0A4800F0C3
:104EF00019FE0A4800F016FE0448094908600448F3
:104F00000849086010BD0000180A0020980C002015
:104F1000AC0C0020C00C0020D40C0020E80C0020B9
:104F20000C0500201005002010B50146164800E0D1
:104F3000006803688B42FBD30246436813448B42EC
:104F400004D143684C682344436001460A464B68D9
:104F500013440468A34211D10C4C03682468A34293
:104F600008D04B680468646823444B6003681B687E
:104F70000B6005E0054B1B680B6001E003680B60EC
:104F8000884200D0016010BD5C050020640500204F
:104F90002DE9F04104460D4616461F464FF0000825
:104FA00065602461B5420CD8F01BA169884202D328
:104FB0004FF0010811E0211D0948006800F0C2FD12
:104FC0000BE0BE4204D2BD4202D34FF0010804E020
:104FD000211D0448006800F0B5FD4046BDE8F081A1
:104FE0004C0500204805002070B5054600F0D0FDB6
:104FF000A86B08B9012400E0002400F00DFE204653
:1050000070BD70B5054600F0C3FDA86BE96B884222
:1050100001D1012400E0002400F0FEFD204670BD17
:10502000F1B50098846C00262CB940F6D73220A147
:1050300024A0FBF7C9F9A06BE16B884201D20120E3
:1050400000E0002028B940F6D83219A11DA0FBF7D6
:10505000BBF9A06BE16B884227D294F9455000223E
:1050600069462046FFF7E3FD0646681C60B9606AA2
:1050700008B9012000E00020B0B904F1240002F0DA
:105080005FFB88B101260FE07F2D01D0012000E0F9
:10509000002028B940F6F83205A10AA0FBF794F9E0
:1050A000681C40B284F8450000BF3046F8BD0000DF
:1050B0002E2E5C4672656552544F535C7175657552
:1050C000652E63004572726F723A25732C25640D4C
:1050D0000A00000070B505460E460E480068C0681C
:1050E000C468201D00F0F4FC94F8280000F00400CF
:1050F00028B132462946204600F0F8F805E094F839
:10510000280000F0FE0084F828002046216A884725
:1051100070BD00004805002070B586B08AE0029896
:1051200000280CDA03AE2EB940F2063247A14DA09A
:10513000FBF74AF9D6E90020B168904700BF029812
:10514000002877DB049C606908B9012000E000209A
:1051500010B9201D00F0BCFC01A800F0F3F80546D2
:1051600002980A2864D2DFE800F06305072E365360
:1051700006082F3700BF00BF00BF94F8280040F09A
:10518000010084F828000398A269811803462A4682
:105190002046FFF7FDFEA8B194F8280000F00400B7
:1051A00038B10398A26981182A46204600F09EF87B
:1051B00005E094F8280000F0FE0084F8280020465E
:1051C000216A884735E000BF94F8280000F0FE000F
:1051D00084F828002DE000BF94F8280040F001007A
:1051E00084F828000398A061A06908B1012000E0BC
:1051F000002028B940F2593214A11AA0FBF7E4F8B4
:10520000A06941192B462A462046FFF7C1FE10E04F
:1052100094F8280000F0020018B9204600F034FD90
:1052200005E094F8280000F0FE0084F8280000E073
:1052300000BF00BF002202A90E48006801F078FEFE
:1052400000287FF46CAF06B070BD00002E2E5C46C7
:1052500072656552544F535C74696D6572732E6349
:10526000000000004572726F723A25732C25640DA0
:105270000A00000050050020F8B505460C4601F074
:105280003BF9684600F05EF80646009820BB44B93A
:10529000B54206D802F0F2FA31462846FFF71AFF67
:1052A0001CE03CB10E480068006808B9012000E02D
:1052B00000200446A91B22460A48006800F0EAFDC7
:1052C00002F0DCFA50B94FF0805007490860BFF394
:1052D0004F8FBFF36F8F01E002F0D0FAF8BD0000EE
:1052E0004C0500205005002004ED00E070B5044698
:1052F0000D46164604E0A06905442046216A884709
:10530000A06941192B4632462046FFF741FE00288E
:10531000F1D170BD09480068006808B9012000E0BB
:10532000002020B14FF0FF300549086005E0034838
:105330000068C06800680249086070470C050020DA
:105340003805002070B5044602F014F805460748F9
:105350000068854204D200F00BF80120206001E0D3
:105360000020206001480560284670BD58050020D7
:1053700070B508E00D480068C06804684FF0FF3160
:105380002046FFF7A7FE09480068006808B9012019
:1053900000E000200028EDD00448056804480068BB
:1053A000024908600248056070BD00004805002001
:1053B0004C0500200B480068401C08B9012000E0A3
:1053C000002020B9CE2208A112A0FAF7FDFF00BFED
:1053D000502080F31188BFF34F8FBFF36F8F00BF52
:1053E00000BFFEE77C0500202E2E5C4672656552EC
:1053F000544F535C706F727461626C655C525644BA
:10540000535C41524D5F434D335C706F72742E6339
:10541000000000004572726F723A25732C25640DEE
:105420000A00000010B50346002022B903EA010477
:1054300034B1012004E003EA01048C4200D10120D0
:1054400010BD08B500BF6846FFF744FC044620467F
:105450000099FFF711FFFFF75FFEF4E770B5044610
:1054600000F096FB94F9455019E0A06C30B120464D
:10547000FFF7D6FD88B100F003FE0EE0606A08B9C0
:10548000012000E0002038B904F1240002F058F9AE
:1054900018B100F0F5FD00E003E0681E45B2002DF4
:1054A000E3DC00BFFF2084F8450000F0B5FB00F00E
:1054B0006FFB94F9445010E0206908B9012000E026
:1054C000002048B904F1100002F03AF908B100F0E8
:1054D000D7FD681E45B200E001E0002DECDC00BF06
:1054E000FF2084F8440000F097FB70BD2DE9F041E7
:1054F00004464FF0000800F0FFFF4848006808B974
:10550000FFF7FCFB464800682040002873D114B325
:1055100004F10800A0421ED9083404F00700D8B1F5
:1055200004F00700C0F108002044A04211D904F0A3
:105530000700C0F10800044404F0070008B9012086
:1055400000E0002040B99C2236A140A0FAF73CFFC1
:1055500002E0002400E00024002C4CD03F4800680A
:10556000844248D83E4E3046056801E02E462D68FC
:105570006868A04202D228680028F7D1274800684E
:10558000854238D0306800F10808286830606868C3
:10559000001B102813D92F1907F0070008B90120A4
:1055A00000E0002020B9CF221EA128A0FAF70CFFAE
:1055B0006868001B78606C603846FFF7B5FC2749C7
:1055C00068680968081A254908600846006825497E
:1055D0000968884203D221480068224908601049BE
:1055E0006868096808436860002028601E480068F1
:1055F000401C1D49086002F041F908F0070008B995
:10560000012000E0002028B94FF4887205A10FA006
:10561000FAF7DAFE4046BDE8F0810000640500209C
:10562000780500202E2E5C4672656552544F535CFF
:10563000706F727461626C655C4D656D4D616E6713
:105640005C686561705F342E630000004572726FA4
:10565000723A25732C25640D0A00000068050020AD
:105660005C0500206C0500207005002006480068DD
:1056700030B10549096801F15000096D491C01600C
:10568000014800687047000008050020001F4FF027
:1056900080730360001F21F001030360001F034BB0
:1056A000036014380260203870470000B5530008CA
:1056B0001CB5044600F06CFA304802210023322267
:1056C000CDE900102EA1314801F014FE304802212E
:1056D00000239622CDE900102EA1314801F00AFEE8
:1056E0003048142100234FF48272CDE900102EA11E
:1056F000304801F0FFFD3048032100235022CDE95E
:1057000000102EA1304801F0F5FD304803210023A0
:105710004FF48C72CDE900102DA1304801F0EAFD64
:1057200003220021012001F03FF92D4908600846BD
:10573000006810B92BA0FAF747FE032200210120D0
:1057400001F032F9324908600846006810B931A00A
:10575000FAF73AFE00F02CFF394908600846006865
:1057600010B938A0FAF730FEFCF720FC3F4800687B
:1057700000F0F0FB00F050FA1CBD000054000020C7
:105780006C6564305F7461736B000000D146000883
:10579000580000206F6C65645F7461736B000000DB
:1057A000954800085C0000207069645F7461736B49
:1057B0000000000025490008600000206B65795F4B
:1057C0007461736B000000003D4600086400002017
:1057D0006D757369635F7461736B00003149000814
:1057E00068000020436F756C646E277420637265D7
:1057F000617465204F4C45445F42696E5F53656D2F
:105800006170686F726548616E646C650D0A27008F
:105810006C000020436F756C646E277420637265A2
:1058200061746520424545505F42696E5F53656D06
:105830006170686F726548616E646C650D0A27005F
:1058400070000020436F756C646E2774206372656E
:10585000617465204B65795F4576656E7447726F3C
:10586000757048616E646C650D0A00005000002080
:105870000FB438B500BF0C4800780028FBD105A84C
:10588000009065210948009B049AFAF783FD0020E7
:1058900000900648FAF70AFF044621460348FCF741
:1058A0004DFD38BC5DF814FBE9040020C80700205A
:1058B00010B586B00446012144F20400FDF79AFABF
:1058C0004FF40070ADF8140003208DF81600182076
:1058D0008DF8170005A91C48FCF7E8FD4FF480601F
:1058E000ADF8140004208DF8170005A91648FCF740
:1058F000DDFD25208DF8000008208DF80100012035
:105900008DF802008DF803006846FDF793F80194C6
:105910000020ADF80800ADF80A00ADF80C00ADF8B5
:1059200010000C20ADF80E0001A90848FEF70EFD8E
:10593000012240F225510548FEF7E2FC012103480F
:10594000FEF750FC06B010BD0008014000380140D1
:1059500010B586B0044601211120FDF74BFA012154
:105960008804FDF727FA01212648FCF72BFE26487C
:10597000FEF74EFC4FF48060ADF8100003208DF868
:10598000120018208DF8130004A92048FCF78EFDA2
:105990004FF40060ADF8100004208DF8130004A946
:1059A0001A48FCF783FD00940020ADF80400ADF820
:1059B0000600ADF80800ADF80C000C20ADF80A00A8
:1059C00069461148FEF7C2FC01210F48FEF70AFCA8
:1059D000012240F225510C48FEF792FC27208DF859
:1059E000140007208DF8150000208DF81600012006
:1059F0008DF8170005A8FDF71DF800200449088060
:105A000006B010BD10001400004800400010014016
:105A10009400002010B586B0044601210805FDF76A
:105A2000C9F901213020FDF7E5F92548FEF7F0FB23
:105A30004FF48050ADF8040001208DF806001820C6
:105A40008DF8070001A91F48FCF730FD0420ADF8D0
:105A5000040048208DF8070001A91B48FCF726FD2B
:105A600035208DF8000001208DF8010003208DF80D
:105A7000020001208DF803006846FCF7DBFF02946A
:105A80000020ADF80C00ADF80E00ADF81000ADF838
:105A900014000C20ADF8120002A90948FEF756FCCC
:105AA000012240F225510648FEF72AFC0121044854
:105AB000FEF798FB01210548FCF784FD06B010BDF8
:105AC000005000400010014000140140000230006E
:105AD00001460A69D1E901309860D1E901035860B3
