:020000040800F2
:1000000068610020C9020008FF260008C721000817
:10001000FB260008F51B0008533D00080000000007
:100020000000000000000000000000003102000895
:10003000D51E00080000000075020008492B0008CA
:10004000E3020008E3020008E3020008E3020008FC
:10005000E3020008E3020008E3020008E3020008EC
:10006000E3020008E3020008E3020008E3020008DC
:10007000E3020008E3020008E3020008E3020008CC
:10008000E3020008E3020008E3020008E3020008BC
:10009000E3020008E3020008E3020008D91E00089A
:1000A000E30200084D2E0008E3020008E302000806
:1000B000E3020008E3020008E3020008E30200088C
:1000C000E3020008E3020008E3020008E30200087C
:1000D000E3020008AD3A0008353B0008653B000824
:1000E000E3020008E3020008E3020008E30200085C
:1000F000E3020008E3020008E3020008E30200084C
:10010000E3020008E3020008E3020008E30200083B
:10011000E30200087D3A0008E3020008E302000859
:10012000E3020008E3020008E3020008E30200081B
:1001300000F002F800F06DF80AA090E8000C82448C
:100140008344AAF10107DA4501D100F062F8AFF269
:10015000090EBAE80F0013F0010F18BFFB1A43F0A5
:1001600001031847A8840000C88400000A444FF027
:10017000000C10F8013B13F0070408BF10F8014B06
:100180001D1108BF10F8015B641E05D010F8016B4B
:10019000641E01F8016BF9D113F0080F1EBF10F8AF
:1001A000014BAD1C0C1B09D16D1E58BF01F801CBD2
:1001B000FAD505E014F8016B01F8016B6D1EF9D555
:1001C0009142D6D37047000000230024002500266A
:1001D000103A28BF78C1FBD8520728BF30C148BFAA
:1001E0000B607047662907F02186642900F00081C2
:1001F000732900F02C85002070471FB500F092FD98
:1002000004000020002106F06BFFE0601FBD10B568
:1002100010BD00F08BFE1146FFF7EFFF03F09EFECE
:1002200000F0A9FE03B4FFF7F2FF03BC03F0AEFD3C
:10023000224B19680868B0E8F00F80F30988BFF313
:100240006F8F4FF0000080F311884EF00D0E704755
:100250000000000006480068006880F3088862B665
:1002600061B6BFF34F8FBFF36F8F00DF00BF00BFDA
:1002700008ED00E0EFF30980BFF36F8F0F4B1A68B2
:1002800020E9F00F106008B54FF0500080F311889E
:10029000BFF34F8FBFF36F8F05F04CFC4FF00000A2
:1002A00080F31188BDE8084019680868B0E8F00FCD
:1002B00080F30988BFF36F8F704700BFF4040020FC
:1002C000EFF3058070470000094880470948004760
:1002D000FEE7FEE7FEE7FEE7FEE7FEE7FEE7FEE7F6
:1002E000FEE7FEE704480549054A064B7047000053
:1002F000592B000831010008685B0020686100206C
:10030000685D0020685D0020704700000FB404495C
:1003100010B503AA029800F09FFC10BC5DF814FB16
:10032000D80400200FB41CB5084B06AA7B446946CC
:100330000090059800F061FC04460020694600F03A
:100340006FFC20461CBC5DF814FB0000F1080000A7
:1003500070B5044685690068C10601D5302600E005
:100360002026C00707D070BDD4E901213046904750
:10037000206A401C20626D1EF6D570BD70B5044623
:1003800085690078C00707D170BDD4E9012120201C
:100390009047206A401C20626D1EF6D570BD70B576
:1003A0000C460546012A05D02878800600D5EA6962
:1003B000002302E0012305E05B1C934202D2E05CD3
:1003C0000028F9D1A869E618C01AA861286A18445B
:1003D00028622846FFF7BCFF04E0D5E9012114F8A4
:1003E000010B9047B442F8D32846FFF7C7FF70BD12
:1003F0002DE9F0410646002410687529314616A5FE
:1004000010D0AFF30080002802DA404213A507E0C5
:1004100031688A0701D512A502E0490704D511A564
:10042000012401E0AFF3008000210A2206F1240735
:1004300009E0B0FBF2FCB0FBF2F302FB1C00303031
:1004400078541846491C0028F3D123462A463046E2
:10045000BDE8F04100F063B9000000002D0000008D
:100460002B000000200000002DE9F05F89460446C3
:100470004FF0000ADFF874B1FB44C0F820A020461A
:10048000E1688847002874D0252806D0D4E90121E6
:100490009047206A401C2062F1E700265F46204614
:1004A000E16888472028054607DB312D05D27819F9
:1004B00010F8200C08B10643F1E7B00701D526F08B
:1004C0000406C4F81CA00027C4F818A02A2D09D0DF
:1004D000284603F054FC38B304EB8708303DC8F8D5
:1004E000185019E059F8041B204604EB870291616B
:1004F000E1688847012F054618D1E069002820DA15
:1005000026F020061DE0D8F8180000EB800005EB6F
:1005100040003038C8F818002046E1688847054692
:1005200003F02DFC0028EED1012F0AD02E2D08D18A
:100530002046E16888477F1C0546022F46F02006CA
:10054000C4DBA069002803DA404246F00106A0613E
:10055000F00701D026F010066C2D0BD0682D09D0C5
:100560004C2D39D06A2D35D0742D35D07A2D33D01D
:1005700016E038E0E1682F4620468847B842054635
:1005800009D16C2F26D04FF48060E16806432046E5
:100590008847054604E06C2F1AD04FF4807006435C
:1005A0000DB3A5F14100192802D8203546F40066A4
:1005B0004A462946204626604E46FFF713FE80B184
:1005C00001280BD0F61D26F0070000F1080956E7B8
:1005D0004020E4E78020D8E70020D6E706F10409B0
:1005E0004DE7284652E7206ABDE8F09FE88000000A
:1005F00010B5431C02E010F8011B71B18107FAD15C
:100600004FF0013202C88C1A8C4314EAC211F9D09F
:10061000C01A0A0603D0C01E10BDC01A10BD0A04BD
:1006200001D0801E10BD0902FCD0401E10BD032A5F
:1006300040F2308010F0030C00F0158011F8013BFF
:10064000BCF1020F624498BF11F801CB00F8013BE6
:1006500038BF11F8013BA2F1040298BF00F801CBAA
:1006600038BF00F8013B11F0030300F00783083A9C
:10067000C0F0088051F8043B083A51F804CBA0E8D8
:100680000810F5E7121D5CBF51F8043B40F8043B2D
:10069000AFF30080D20724BF11F8013B11F801CB62
:1006A00048BF11F8012B24BF00F8013B00F801CB33
:1006B00048BF00F8012B704702F0FF0343EA032212
:1006C00042EA024200F00EBB4FF0000200B51346B2
:1006D00094469646203922BFA0E80C50A0E80C5062
:1006E000B1F12001BFF4F7AF090728BFA0E80C5013
:1006F00048BF0CC05DF804EB890028BF40F8042B0C
:1007000008BF704748BF20F8022B11F0804F18BF78
:1007100000F8012B704770477047704770472DE90C
:10072000F0470D4699469246044600F124080168B8
:10073000880604D5E06921F01001216000E0012065
:10074000A84201DD471B00E00027A1697A1902EBEE
:100750000900081AA0612078C00602D42046FFF7DD
:10076000F7FD002608E0D4E901211AF806009047B9
:10077000206A401C761C20624E45F4DB2078C006BF
:100780000AD52046FFF7E4FD06E0D4E90121302038
:100790009047206A401C2062381EA7F10107F4DC54
:1007A00007E0D4E9012118F805009047206A401CB1
:1007B0002062281EA5F10105F3DC2046FFF7DEFDCF
:1007C0002078000602D50220BDE8F0870120FBE773
:1007D00070472DE9FF4F0C461E464FF0FF378BB098
:1007E000D2E90001DDF860800A908A46C1F30A551B
:1007F00005B93D46002108464FF00000BAF1000F50
:1008000000F4400005DA00EB80004FF4400101EAFB
:1008100050004FEA9059B9F1010F00DDB9460A982E
:1008200050EA4A000ED044F61050A5F2FF35454379
:100830002F14B8F1000F1ED07542291E1EDDC9F11C
:1008400000021CE0B8F1010F4FF0000001D0302190
:1008500003E0F24305E02154401CB042FBDB30468C
:100860000022002121540B99C1F80880C1E9002021
:100870000FB0BDE8F08FBD1B6D1CDEE74A4600DA05
:10088000694206A800F0D8FA06AB93E8070003AB6C
:1008900083E8070050460A9900F0B6FB8DE8070090
:1008A000A0F500501F3800900398002D0ADD42F299
:1008B0001F014A460844002303A90390684600F03C
:1008C0001FFE09E0A0F500504A461F38002303A987
:1008D0000390684600F029FE8DE807000004000C34
:1008E00003D04FF0FF30410800E01046B8F1000F90
:1008F00003D00022009215461EE0751E05D400F0BC
:1009000015FA303262556D1EF9D5B34601220843FF
:1009100002D000227F1C04E02078302801D1002280
:100920007F1E002A099784D01DE0112D07DA00F000
:10093000FDF9303262556D1C50EA0102F5D10843D1
:1009400002D00098C8B10EE00021681E05E0235CCB
:10095000625C63542254401E491C8142F7DBAB4663
:10096000A81B401E0990002004F80B000B98099A60
:10097000C0F80880C0E9002B7AE711264FF0000884
:1009800057E72DE9F04F88460446D21D22F00701B3
:1009900091B0D1E90001CDE90A0103F0DCF902468A
:1009A0000B98C00F01D02D2007E02068810701D5EA
:1009B0002B2002E0202101EAC000032A099001D087
:1009C000072A05DB03464146204600F0F5F90BE116
:1009D0002078800601D5E06900E00620B8F1650FB7
:1009E000814606D0B8F1660F18D0B8F1670F70D104
:1009F00031E00020B9F1110F009001DB112301E07B
:100A000009F101030AAA01A90CA8FFF7E2FEDDE93A
:100A10000C70002609F10105834647E001204B4692
:100A200000904FF000470AAA01A90CA8FFF7D1FED9
:100A3000DDE90DB00C995D46002610B909F1010001
:100A40000D18B9EB050003D4C0F1FF3609F101051B
:100A5000A5EB09002BE0B9F1010F01DA4FF0010914
:100A60000020B9F1110F0090484601DD112300E08C
:100A700003460AAA01A90CA8FFF7ABFEDDE90C703A
:100A80004D4600268346207800070AD4AB4500DA9D
:100A90005D4601A8012D04DD411911F8011C302922
:100AA00007D04F4502DA17F1040F04DA012082461D
:100AB0000FE06D1EEEE7002F02DCED1B3E4403E06D
:100AC000781CA84200DD7D1CB81B00F1010A4FF024
:100AD00000472078000703D4AA4501DB4FF0FF3A16
:100AE0000021B7F1004F0DF143088DF8431024D0D9
:100AF00002202B23002F01DA7F422D230A21021E20
:100B0000A0F1010000DC5FB197FBF1FC97FBF1F273
:100B100001FB1C7C17460CF1300C08F801CDEEE708
:100B2000A8F1010003702188090501D5452100E0E5
:100B30006521A0F1010800F8011C09980FA9A1EB9B
:100B40000807FF1D00B10120411901EBEA70A169FE
:100B50003844081A401EA0612078C00602D42046FE
:100B6000FFF7F6FB099828B1D4E901219047206AE4
:100B7000401C20622078C00622D52046FFF7E8FB03
:100B80001EE0002E04DBB34502DD01A8805D00E01D
:100B90003020D4E901219047206A401C2062761C55
:100BA000AAF101005FEA000A0AD100F0BBF8C068B0
:100BB0000168405CD4E901219047206A401C206212
:100BC000281EA5F10105DCDC07E0D4E9012118F8B5
:100BD000010B9047206A401C2062381EA7F10107D4
:100BE000F3DC2046FFF7CAFB032011B041E600000A
:100BF00001694A1C02610878704700B58FB0CDE9E1
:100C000001310021059105497944CDE903101146D0
:100C10006846FFF729FC0FB000BD0000E5FFFFFFAD
:100C20000A6802F8010B0A60704710B5436913B1F6
:100C3000AFF3008001E0FFF7B2FB012010BD127896
:100C400000F124010A7000224A700122EDE71168C8
:100C50004FF0FF32E9E70000074B70B50D467B44CB
:100C6000FFF7CBFF0446284600F058F910B14FF0CB
:100C7000FF3070BD204670BD2B32000010B5203A09
:100C8000C0F00B80B1E81850203AA0E81850B1E845
:100C90001850A0E81850BFF4F5AF5FEA027C24BFFB
:100CA000B1E81850A0E8185044BF18C918C0BDE8F2
:100CB00010405FEA827C24BF51F8043B40F8043BBB
:100CC00008BF7047D20728BF31F8023B48BF11F870
:100CD000012B28BF20F8023B48BF00F8012B7047CA
:100CE0004FF000020429C0F0128010F0030C3FF412
:100CF000EDACCCF1040CBCF1020F18BF00F8012BD5
:100D0000A8BF20F8022BA1EB0C01FFF7DFBC5FEAC4
:100D1000C17C24BF00F8012B00F8012B48BF00F86C
:100D2000012B704700487047245B002030B5B0F1BC
:100D30000A024FEA900E71F100034EEA817EB0EB99
:100D40000E0061EB91014FEA101E4EEA017E10EB9E
:100D50000E0041EB11114FEA102E4EEA016E10EB1E
:100D60000E0041EB11214FEA104E4EEA014E10EBFE
:100D70000E0041EB1141401841F100014FEAD00053
:100D800040EA41704FEAD10110EB80054FEA81043F
:100D900044EA907444EB01046D1944EB0404521BC3
:100DA000A3414FF0000348BF0A3200D530BD401CBC
:100DB00041F1000130BD00002DE9F0411F4604461D
:100DC00003260168072A01F4006004DB08B116A5B8
:100DD00005E016A503E008B115A500E015A521F072
:100DE00010002060A069C01EA0610FB1401EA0616C
:100DF0002046FFF7ADFA4FB1D4E9012138469047BC
:100E0000206A401C2062C01C206206E0206AFAE7CB
:100E1000D4E9012115F8010B9047761EF8D220463F
:100E2000FFF7ACFABDE8F0814E414E006E616E00F6
:100E3000494E4600696E66002DE9F0478146164628
:100E40008AB0354878440DC88DE80D0032487844A2
:100E5000801C03AC0DC884E80D0041F69B300844AB
:100E6000372190FBF1F290FBF1F5A5F1800501FB34
:100E700012041B3C02D56442012000E00020DFF890
:100E800098A080460027FA44AAF1BE0A0EE0E007C7
:100E90000AD03246684607EB470101230AEB81017D
:100EA00000F043FB8DE8070064107F1C002CEED19E
:100EB000194F7F44AE3F19E0E80715D007EB041047
:100EC0000DF1180A90E80E008AE80E00C068F042A2
:100ED00001D1981908903246012306A903A800F011
:100EE00024FB03AB83E807006D10641C002DE3D1E5
:100EF0004FF0010332466946B8F1000F03A802D053
:100F000000F0FEFA01E000F010FBC9E90001C9F8A9
:100F100008200AB0BDE8F087AC770000007B00F045
:100F20008000704700487047045B00207546FFF75B
:100F3000F9FFAE4605006946534620F00700854696
:100F400018B020B5FFF7CEF9BDE820404FF00006FD
:100F50004FF000074FF000084FF0000B21F00701A1
:100F6000AC46ACE8C009ACE8C009ACE8C009ACE8E4
:100F7000C0098D46704710B50446AFF30080204687
:100F8000BDE81040FFF74EB94FF0013C50F8042B7C
:100F900051F8043B9A4221D1A2EB0C03934313EA8C
:100FA000CC1317D150F8042B51F8043B9A4215D1B9
:100FB000A2EB0C03934313EACC130BD150F8042B90
:100FC00051F8043B9A4209D1A2EB0C03934313EA74
:100FD000CC13DBD04FF00000704700BFD01A01BA2D
:100FE000B1FA81F101F0180122FA01F0CB40C1F110
:100FF0002001DBB2C0B2C01A2CFA01F3D11A91431E
:1010000011EAC311E6D170475FEA400C08BF91F0C6
:10101000000F4FEA8C234FEAC12243EA51514FEAB5
:101020001C5018BF00F5F0404FEA300018BF41F0E7
:1010300000415FEA6C5C00F02980BCF1FF3F08BF13
:1010400040F080407047130C06BF12044FF0100CA4
:101050004FF0000C130E04BF12020CF1080C130F1A
:1010600004BF12010CF1040C930F04BF92000CF1A9
:10107000020CD30F04BF52000CF1010C11464FF0CB
:101080000002A0F11F00A0EB0C00704711F0004F10
:1010900008BF704731F000413FF4D5AF0B0C06BFDD
:1010A00009044FF0100C4FF0000C0B0E04BF0902A6
:1010B0000CF1080C0B0F04BF09010CF1040C8B0F91
:1010C00004BF89000CF1020CCB0F04BF49000CF1E6
:1010D000010CCCF12003A0EB0C0022FA03F302FA7E
:1010E0000CF241EA030100F10100704720F07F4C4F
:1010F00080EA030023F07F47ACEB070303F57C5342
:1011000000F0004003F1FF032DE980494FEA154B41
:1011100009B44FEA144325EA0B4E24EA03480FF2C0
:10112000042606EB132749083E785FEA320203FBE8
:101130000667C7F5000707FB06F64FEA54374FEA84
:10114000D64606F1020607FB066CCCF1005C4FEABE
:101150001C472CEA074C07FB06F40CFB06F504EBD6
:1011600015464FEA961634BF00204FF000404FEA74
:10117000D13706FB07FC4FEA1C4C0CFB0BF7D21BCC
:1011800003FB0CF761EB07010CFB0EF7B0EB07401C
:1011900072EB17420CFB08F734BFA2EB0742B2EB2D
:1011A000074261EB17414FEA0C444FEA910706FBF7
:1011B00007FC4FEA1C4C0CFB0BF7B0EBC74072EB83
:1011C000573203FB0CF734BFA2EBC742B2EBC74266
:1011D00061EB57310CFB0EF7B0EBC70072EB5772A7
:1011E0000CFB08F734BFA2EBC702B2EBC70261EBFE
:1011F0005771039F4FEA816141EA921104EBCC04DD
:101200004FEAD1374FEA826206FB07FC42EA9012AE
:101210004FEA80604FEA1C4C0CFB0BF7D21B03FB20
:101220000CF761EB07010CFB0EF7B0EB074072EB1C
:1012300017420CFB08F734BFA2EB0742B2EB0742A0
:1012400061EB17414FEA8C554FEA910704EB9C2460
:1012500006FB07FC4FEA1C4C0CFB0BF7B0EBC7403E
:1012600072EB573203FB0CF734BFA2EBC742B2EB71
:10127000C74261EB57310CFB0EF7B0EBC70072EBC6
:1012800057720CFB08F734BFA2EBC702B2EBC702E0
:1012900061EB577115EB4C254FEA816141EA9211E0
:1012A0004FEA82624FEAD13742EA901206FB07FC0E
:1012B00044F100044FEA80604FEA1C4C0CFB0BF732
:1012C000D21B03FB0CF761EB07010CFB0EF7B0EB35
:1012D000074072EB17420CFB08F734BFA2EB074242
:1012E000B2EB074261EB174115EB1C154FEA813158
:1012F00041EA92414FEA823242EA90424FEA80301C
:101300004FEA0C7644F1000448EA03434EEA0B48E6
:101310004FF0000EB2EB080C71EB030724BF6246DE
:1013200039464EEB0E0E4FF0000B0018524149416A
:101330004BEB0B0BB2EB080C71EB03077BF1000BD3
:1013400024BF624639464EEB0E0E4FF0000B0018DC
:10135000524149414BEB0B0BB2EB080C71EB03070D
:101360007BF1000B24BF624639464EEB0E0E51EA6C
:10137000020718BF46F0010616EB0E7655F1000283
:1013800054F1000103D5BDE88901BDE80088BDE83E
:101390008901BDE80048B619524141EB0101A3F1B2
:1013A0000103704780807F7E7D7C7B7A79787776B9
:1013B00076757473727171706F6E6E6D6C6C6B6A32
:1013C0006A696868676666656464636362616160D0
:1013D000605F5F5E5E5D5D5C5C5B5B5A5A5959584D
:1013E00058575756565555555454535352525251B7
:1013F000515050504F4F4F4E4E4D4D4D4C4C4C4B0D
:101400004B4B4A4A4A494949484848474747474653
:10141000464645454544444444434343434242428F
:1014200042414141002B9C4630D477002BD01CB563
:101430004FEA370703B44FF010004FF01001BAF134
:10144000000F06D0BCF1000FDCBF40F0080040F0F8
:1014500008014FF000000FBCBDE810400BF1010B7C
:10146000BBF1010F08BF5FEA170722BF12F10102AB
:1014700011F101014FF0004143F1000300F0004081
:1014800043EA00007047F9D35708D0E746EA06461A
:1014900013F1400F4FEA16461FDD13F1200FDFBF97
:1014A00016430A46002120335B42BED0C3F1200719
:1014B00046EA064602FA07F74FEA164646EA0706E4
:1014C000C3F1200722FA03F201FA07F721FA03F128
:1014D0004FF0000342EA0702A7E746EA020646EA9F
:1014E00006464FEA164646EA0106BCBF46EA0646ED
:1014F000360C4FF000034FF000024FF0000194E76C
:101500002DE9804C9A46934670B491E8380007C89C
:1015100031EA400C48BF34EA430C03D5FFF7E6FD3F
:10152000FFF780FFF0BCBDE8008C2DE9804C9A46A7
:10153000934670B491E8380007C810F0804F08BF98
:1015400013F0804F03D100F005F8FFF76BFFF0BCFC
:10155000BDE8008C20F07F4780EA030023F07F4C39
:1015600007EB0C03A3F57C5300F00040A3F1FE034E
:1015700092F0000F00F0B38095F0000F00F077803C
:101580002DE901494FEA11404FEA144621EA00488B
:1015900000FB06FC24EA064708FB06F607FB08F8F2
:1015A00000FB07F718EB06484CEB164C4FEA124BC2
:1015B00018EB07484FEA15464CEB174022EA0B4E52
:1015C0000BFB06FC25EA06470EFB06F607FB0EFEA4
:1015D0000BFB07F71EEB064E4CEB164C4FF00006CC
:1015E0001EEB074E4CEB174B18EB0B0840F10000BD
:1015F00018EB0E0B58EB000840F100008F1A4FF06B
:1016000000013CBFC943661B14BFB5EB040C0021AD
:101610003CBFC943F61B4FEA17444EEA8E0E27EA39
:1016200004454FEA1C4704FB07622CEA074C05FB04
:1016300007F70CFB05F604FB0CFC16EB074642EB28
:10164000174216EB0C4642EB1C421BEB060658EB0E
:101650000202414146EA9E0601D5BDE80189B6195C
:10166000524141EB0101A3F10103BDE801894FEAB9
:1016700014454FEA114724EA054621EA074C05FBC9
:1016800007F406FB07F70CFB06F105FB0CFC11EB5E
:10169000074144EB17444FEA124711EB0C4144EB6E
:1016A0001C4422EA074C05FB07F206FB07F70CFB7C
:1016B00006F605FB0CFC16EB074642EB174216EB51
:1016C0000C4642EB1C456A1854F1000148BF7047B4
:1016D000B619524141EB0101A3F10103704795F0A6
:1016E000000F37D04FEA11424FEA144721EA024671
:1016F00024EA074C02FB07F106FB07F70CFB06F494
:1017000002FB0CFC14EB074441EB17414FEA154771
:1017100014EB0C4441EB1C4125EA074C02FB07F596
:1017200006FB07F70CFB06F602FB0CFC16EB074664
:1017300045EB174516EB0C4645EB1C42121951F1CF
:10174000000148BF7047B619524141EB0101A3F1B6
:10175000010370474FEA14454FEA114724EA054652
:1017600021EA074C05FB07F106FB07F70CFB06F225
:101770004FF0000605FB0CFC12EB074241EB174152
:1017800012EB0C4251EB1C4148BF7047921841EBE1
:101790000101A3F10103704700B587B001214FF4A7
:1017A000017001F0BFF84FF4004001F07FF8102005
:1017B000ADF8040000208DF8070001A9224800F0D0
:1017C00021FC224800F05EF8002002908DF80C0009
:1017D00001208DF80D004FF460200490002005904A
:1017E00001208DF8180002A9184800F08DF8012397
:1017F000174A16494C31174800F056FF02230122C0
:101800000421124800F0A8F80121104800F02FF838
:1018100001210E4800F020F80C4800F0F9F800BF54
:101820000A4800F067F80028FAD1084800F000F9EB
:1018300000BF064800F054F80028FAD101210348FF
:1018400000F0EBF807B000BD0008014000240140A3
:10185000C80600200800024021B1826842F001025F
:10186000826003E0826822F001028260704721B149
:10187000826842F48072826003E0826822F480729F
:101880008260704710B504461248844208D1012195
:10189000401501F057F80021601501F053F817E0EA
:1018A0000D48844208D10121001501F04BF80021B8
:1018B000201501F047F80BE00848844208D10121C7
:1018C000C80301F03FF800214FF4004001F03AF85E
:1018D00010BD00000024014000280140003C0140F0
:1018E000014600208A6802F004020AB1012000E0EB
:1018F00000207047014600208A6802F008020AB101
:10190000012000E00020704730B50246002000238F
:1019100050680F4C20400D790C6844EA05242043A0
:10192000506090680B4C2040D1E902542C434D7913
:1019300044EA450420439060D06A20F470000C7C97
:10194000641EE4B2234340EA0350D06230BD00007D
:10195000FFFEF0FFFDF7F1FFF0B504460D46002055
:101960000021092D11DDE068A5F10A0606EB460706
:10197000072606FA07F18843A5F10A0606EB460694
:1019800003FA06F10843E0600CE0206905EB450727
:10199000072606FA07F1884305EB450603FA06F128
:1019A00008432061072A0FDA606B561E06EB860794
:1019B0001F2606FA07F18843561E06EB860605FA2F
:1019C00006F10843606322E00D2A0FDA206BD61F70
:1019D00006EB86071F2606FA07F18843D61F06EB9B
:1019E000860605FA06F10843206310E0E06AA2F1DA
:1019F0000D0606EB86071F2606FA07F18843A2F1BB
:101A00000D0606EB860605FA06F10843E062F0BD16
:101A1000816841F008018160704721B1826842F419
:101A2000A002826003E0826822F4A0028260704714
:101A3000816841F00401816070472DE9F04104465E
:101A40000D4616461F462A2000F0F4FCC4F307207A
:101A500000F0E2FCE0B200F0DFFCC6F3072000F08B
:101A6000DBFCF0B200F0D8FC2B2000F0E3FCC5F367
:101A7000072000F0D1FCE8B200F0CEFCC7F307204D
:101A800000F0CAFCF8B200F0C7FC2C2000F0D2FC39
:101A9000BDE8F08108B50121082000F043FF4FF4B4
:101AA0000040ADF8000010208DF8030003208DF8F1
:101AB00002006946064800F0A5FA4FF400410448C8
:101AC00000F07FFB4721092001F0ECFD08BD00007C
:101AD000000C01402DE9F04F87B004460E469146B8
:101AE0001D460120A07549464FF07E5005F0C8FF05
:101AF000834605F099FF074600222F4B05F0ACFD09
:101B0000C4E90001C6F1640005F08FFDCDE90001D4
:101B1000D4E900733A4605F09FFD0022274BCDE93A
:101B2000020105F0CDFBCDE9040105F051FD1FFADE
:101B300080FAA4F812A0D4E90001C4E902014946E0
:101B40004FF07E5005F09CFF1D49059006F0A2F86D
:101B500080464FF47A7105FB01F006F06FF883467A
:101B6000414605F08DFF074606F04CF820824946B5
:101B70004FF07E5005F084FF1149049006F08AF87A
:101B800083464FF47A7105FB01F006F057F8594689
:101B9000059005F075FF804606F034F807463A4692
:101BA000514608A0FEF7B2FB01210A4801F0E2F914
:101BB00007B0BDE8F08F000080842E41000059403E
:101BC00000247449766F3A25642C206A703A2564A3
:101BD0000D0A0000002C014010B54FF49673034A23
:101BE00046210348FFF776FF10BD000000007A454C
:101BF000D006002000BFFEE770B504460D46012D5B
:101C000006D0022D24D0032D45D0042D7DD162E0D5
:101C100054B901203E49086000203E49C1F88401C2
:101C20003DA0FEF773FB12E0012C0AD100203849D9
:101C3000086001203749C1F8840138A0FEF766FB2F
:101C400005E00020324908603249C1F884015CE0B7
:101C50005CB901202E490831086000202D49C1F8E7
:101C60008C012FA0FEF752FB14E0012C0BD10020B9
:101C700027490831086001202649C1F88C0129A0B4
:101C8000FEF744FB06E000202149083108602149A5
:101C9000C1F88C0139E05CB901201D4910310860A0
:101CA00000201C49C1F894011FA0FEF72FFB11E092
:101CB000012C08D100201649103108600120154977
:101CC000C1F8940106E00020114910310860114963
:101CD000C1F8940119E03CB90120144908600020C2
:101CE0001349C1F884010FE0012C07D100200F49EE
:101CF000086001200E49C1F8840105E000200B496D
:101D000008600B49C1F8840100BF00BF70BD00002E
:101D10008001224200002242310D0A00320D0A00E9
:101D2000330D0A00340D0A00350D0A00808121426E
:101D30000080214221B1026842F00102026004E009
:101D400002684FF6FE731A400260704701684FF652
:101D5000FE72114001600021016041608160C1603C
:101D60004B49884208D14A490839496841F00F0176
:101D7000474A083A51608AE045491431884208D1FF
:101D800043490839496841F0F001414A083A516035
:101D90007DE03F492831884208D13D4908394968EA
:101DA00041F470613A4A083A516070E038493C3178
:101DB000884208D136490839496841F47041344AAB
:101DC000083A516063E032495031884208D13049C5
:101DD0000839496841F470212D4A083A516056E0AB
:101DE0002B496431884208D129490839496841F4AE
:101DF0007001274A083A516049E025497831884204
:101E000008D123490839496841F07061204A083AED
:101E100051603CE01F49884206D1011F096841F02A
:101E20000F01021F116032E01A491431884208D1B3
:101E30001849091F096841F0F001164A121F116084
:101E400025E014492831884208D11249091F096840
:101E500041F470610F4A121F116018E00D493C31C6
:101E6000884208D10B49091F096841F47041094AA9
:101E7000121F11600BE007495031884207D1054914
:101E8000091F096841F47021024A121F116070474E
:101E9000080002400804024010B50022026847F61C
:101EA000F0739A430C6A8B6823430C6923434C6993
:101EB00023438C692343CC6923434C6A23438C6AB4
:101EC00023431A430260CB6843600B6883604B680E
:101ED000C36010BD7047000008B50A2001F0CAFFBA
:101EE0004FF400710D4800F061F928B96A460121EC
:101EF0000B48006803F0F4FE4FF48071074800F0CF
:101F000055F928B96A4602210548006803F0E8FE41
:101F10004FF4407000F006F808BD000000100140CA
:101F2000700000200149086070470000140401405F
:101F3000002123498279002A3AD00A4612680368B0
:101F40009A430B461A600A1D126803689A430B1DD8
:101F50001A60027911440A6803681A430A60184A31
:101F60000832126803689A43154B08331A601A1D29
:101F7000126803689A43124B0C331A604279102A94
:101F80000ED11A1F126803681A430D4B08331A60EA
:101F90001A1D126803681A43094B0C331A600DE0CE
:101FA0000749427911440A6803681A430A6005E048
:101FB000027911440A6803689A430A607047000076
:101FC0000004014030B500228B071C0F0F2303FAD9
:101FD00004F20B4B8C1053F824309343084C8D10B3
:101FE00044F8253023468C1053F824308C07240FF6
:101FF00000FA04F42343024C8D1044F8253030BD20
:10200000080001402DE9F04102460025002600208D
:1020100000230024002791F803C00CF00F0591F86D
:1020200003C00CF0100CBCF1000F03D091F802C0FB
:102030004CEA050591F800C0BCF1000F31D01468DE
:1020400000202BE04FF0010C0CFA00F3B1F800C0B7
:102050000CEA03069E4220D183004FF00F0C0CFACD
:1020600003F7BC4305FA03FC4CEA040491F803C0EF
:10207000BCF1280F06D14FF0010C0CFA00FCC2F89D
:1020800014C00AE091F803C0BCF1480F05D14FF02D
:10209000010C0CFA00FCC2F810C0401C0828D1D377
:1020A0001460B1F800C0BCF1FF0F34DD54680020AB
:1020B0002EE000F1080C4FF0010808FA0CF3B1F81B
:1020C00000C00CEA03069E4221D183004FF00F0CA2
:1020D0000CFA03F7BC4305FA03FC4CEA040491F83C
:1020E00003C0BCF1280F05D100F1080C08FA0CF868
:1020F000C2F8148091F803C0BCF1480F07D100F179
:10210000080C4FF0010808FA0CF8C2F81080401CC7
:102110000828CED35460BDE8F0810000F0B50A462F
:10212000002300240021002500F00046B6F1004FF6
:1021300002D11D4EF16901E01B4E7168C0F30345E9
:1021400083B200F44016B6F5401F08D121F070614B
:10215000154E766826F07066134F7E6012E000F42C
:102160008016B6F5801F06D1032606FA05F4A143B2
:1021700041F0706106E0460D360103FA06F6B14300
:1021800041F0706122B1460D360103FA06F6314383
:1021900000F00046B6F1004F02D1034EF16101E0BC
:1021A000014E7160F0BD00000000014002460020B9
:1021B00093680B400BB1012000E0002070474161A3
:1021C00070470161704700BFFEE700001FB50121A5
:1021D000142000F0A7FB0121084600F0A3FB012119
:1021E0002748FFF79BFF4FF40070ADF80C00482024
:1021F0008DF80F0003A92348FFF704FF4FF4807008
:10220000ADF80C0048208DF80F0003A91D48FFF71A
:10221000F9FE09210220FFF7D5FE4FF4007001906E
:1022200000208DF808000C208DF8090001208DF8A1
:102230000A0001A8FFF77CFE08210220FFF7C2FE7A
:102240004FF48070019000208DF808000C208DF86C
:10225000090001208DF80A0001A8FFF769FE172088
:102260008DF8000008208DF8010000208DF8020094
:1022700001208DF80300684600F042FA1FBD0000FF
:10228000000230000010014070B50646EF231A46E8
:1022900000210846FFF7D1FB002408E0002503E0F9
:1022A000304600F0A7F86D1CF02DF9D3641CF02C1B
:1022B000F4D370BD70B504460D462B462246294620
:1022C0002046FFF7BAFB0248006800F093F870BDA3
:1022D000D00400202DE9F84F05460F4616469A46D1
:1022E000AB46324800680090E02D01D8E02F01D9BC
:1022F000BDE8F88FA6F12000C6B207F10F03EA1D72
:1023000039462846FFF799FBBAF1000F29D100247E
:1023100024E004EB0610264911F800904FF0000865
:1023200015E009F0010018B120490098086003E0A9
:10233000204800681D4908601C48006800F05AF8F1
:102340004FEA69096D1C08F1010000F0FF08B8F1BF
:10235000080FE6DB5D467F1C601CC4B2102CD8DB86
:102360001EE000241AE004EB0610114911F8009059
:102370004FF000080DE009F0010020B1391905EB1C
:102380000800FFF797FF4FEA690908F1010000F024
:10239000FF08B8F1080FEEDB601CC4B2102CE2DBC2
:1023A00002490098086000BFA2E70000D0040020A6
:1023B000747F0008CC04002070B505460E46144614
:1023C00014E0E02D01D900251036E02E06D90020BA
:1023D000054606464FF47840FFF756FF2278002363
:1023E00031462846FFF776FF0835641C2078002820
:1023F000E7D170BD10B504464FF400610548FFF702
:10240000E0FEC4F3072000F023F8E0B200F020F86B
:1024100010BD00000008014010B504464FF40061F3
:102420000348FFF7CEFE204600F012F810BD000072
:102430000008014010B504464FF400610348FFF75F
:10244000BEFE204600F004F810BD00000008014068
:1024500070B5044600251BE04FF480410E48FFF79D
:10246000AEFE04F0800028B14FF400510A48FFF797
:10247000A8FE04E04FF400510748FFF7A0FE4FF418
:1024800080410548FFF79DFE6006040E681CC5B23A
:10249000082DE1DB70BD00000008014008B50121F6
:1024A000042000F03FFA4FF48070ADF800001020D7
:1024B0008DF8030003208DF8020069460448FFF7F9
:1024C000A1FD4FF480710248FFF77BFE08BD0000BC
:1024D0000008014008B50121052000F023FA47F665
:1024E0002000ADF8000010208DF8030003208DF8C7
:1024F000020069466A48FFF785FD47F620016848F3
:10250000FFF75FFE01216748FFF708FE4FF4805197
:102510006348FFF754FE142001F068FC4FF480512B
:102520005F48FFF74EFE142001F060FC20215C485C
:10253000FFF747FE3620FFF77DFF0020FFF76CFF17
:102540003A20FFF777FF0520FFF766FFB220FFF77D
:1025500071FF0C20FFF760FF0C20FFF75DFF0020EC
:10256000FFF75AFF3320FFF757FF3320FFF754FFE1
:10257000B720FFF75FFF3520FFF74EFFBB20FFF7C7
:1025800059FF1920FFF748FFC020FFF753FF2C2009
:10259000FFF742FFC220FFF74DFF0120FFF73CFF8E
:1025A000C320FFF747FF1220FFF736FFC420FFF7D5
:1025B00041FF2020FFF730FFC620FFF73BFF0F2031
:1025C000FFF72AFFD020FFF735FFA420FFF724FFF5
:1025D000A120FFF721FFE020FFF72CFFD020FFF71D
:1025E0001BFF0420FFF718FF0D20FFF715FF112038
:1025F000FFF712FF1320FFF70FFF2B20FFF70CFF51
:102600003F20FFF709FF5420FFF706FF4C20FFF79C
:1026100003FF1820FFF700FF0D20FFF7FDFE0B2042
:10262000FFF7FAFE1F20FFF7F7FE2320FFF7F4FE67
:10263000E120FFF7FFFED020FFF7EEFE0420FFF7BA
:10264000EBFE0C20FFF7E8FE1120FFF7E5FE13205C
:10265000FFF7E2FE2C20FFF7DFFE3F20FFF7DCFE56
:102660004420FFF7D9FE5120FFF7D6FE2F20FFF7B9
:10267000D3FE1F20FFF7D0FE1F20FFF7CDFE202046
:10268000FFF7CAFE2320FFF7C7FE2120FFF7D2FE87
:102690001120FFF7CFFE2920FFF7CCFE08BD000078
:1026A0000008014000043000F0B58BB007460C462E
:1026B00015461E460121084600F004F93846FFF78A
:1026C00045FB00940195002002900396049005902C
:1026D0004FF4807006908000079020200890000240
:1026E000099000200A9069463846FFF7D5FB012182
:1026F0003846FFF71FFB0BB0F0BD00BFFEE7704789
:1027000070B5002100230F22C47804B3154C24684F
:1027100004F4E064C4F5E064210AC1F10403CA4092
:10272000447804FA03F184781440214309010E4CE3
:102730000678A155047804F01F050124AC40057803
:102740006D11AD0005F1E025C5F8004109E0047800
:1027500004F01F050124AC40044D0678761145F8BD
:10276000264070BD0CED00E000E400E080E100E0F8
:1027700002490143024A1160704700000000FA0557
:102780000CED00E0002146488163C16301644164AF
:102790004165444981640021C16401658161C16171
:1027A0000162416241634FF07E5181623E49C162E4
:1027B0004FF07F5101630021C0F88C10C0F89010D9
:1027C000C0F89410C0F89810C0F8A8103549C0F8A7
:1027D0009C100021C0F8A010C0F8A410C1660167C9
:1027E00041678167C0F888104FF07E51C1672E495C
:1027F000C0F880104FF07F51C0F884100021C0F85D
:10280000E010C0F8E410C0F8E810C0F8EC10C0F810
:10281000FC102449C0F8F0100021C0F8F410C0F8F2
:10282000F810C0F8C010C0F8C410C0F8C810C0F844
:10283000CC10C0F8DC104FF07E51C0F8D0101A490F
:10284000C0F8D4104FF07F51C0F8D8100021C0F864
:102850003411C0F83811C0F83C11C0F84011C0F86C
:1028600050111049C0F844110021C0F84811C0F8B7
:102870004C11C0F81411C0F81811C0F81C11C0F8A0
:102880002011C0F830114FF07E51C0F824110649D4
:10289000C0F828114FF07F51C0F82C11704700008C
:1028A000740500208FC2753ECDCCCC3E0146002081
:1028B000034A506820F440400843506070470000CD
:1028C0000010024029B1064A52690243044B5A6182
:1028D00004E0034A52698243014B5A617047000089
:1028E0000010024029B1064AD2690243044BDA6162
:1028F00004E0034AD2698243014BDA617047000069
:102900000010024029B1064A12690243044B1A61C1
:1029100004E0034A12698243014B1A6170470000C8
:102920000010024029B1064A92690243044B9A61A1
:1029300004E0034A92698243014B9A6170470000A8
:102940000010024029B1064AD2680243044BDA6003
:1029500004E0034AD2688243014BDA60704700000A
:102960000010024030B500210022002400232D4D2C
:102970006D6805F00C0121B1042905D0082923D187
:1029800005E0294D056022E0274D05601FE0254D3B
:102990006D6805F47012234D6D6805F480340225CE
:1029A00005EB92421CB9214D554305600BE01D4DCE
:1029B0006D6805F400351DB11C4D5543056002E0FE
:1029C000194D5543056002E0174D056000BF00BF7B
:1029D000144D6D6805F0F0010909154D6B5C056833
:1029E000DD4045600F4D6D6805F4E061090A104D4A
:1029F0006B5C4568DD4085600A4D6D6805F460518B
:102A0000C90A0B4D6B5C4568DD40C560054D6D68BE
:102A100005F44041890B074D6B5CC568B5FBF3F5C8
:102A2000056130BD0010024000127A0000093D002F
:102A3000DE040020EE04002010B500F001F810BD07
:102A40000CB50020019000903348006840F48030BD
:102A50003149086000BF3048006800F40030009041
:102A60000198401C0190009818B90198B0F5A06F2A
:102A7000F1D12948006800F4003010B10120009025
:102A800001E0002000900098012843D1234800680D
:102A900040F01000214908600846006820F003005B
:102AA00008600846006840F0020008601A48406864
:102AB000194948600846406848600846406840F444
:102AC000806048600846406820F47C1048600846F2
:102AD000406840F4E81048600846006840F08070A4
:102AE000086000BF0C48006800F000700028F9D0B2
:102AF0000948406820F003000749486008464068DC
:102B000040F00200486000BF0348406800F00C003D
:102B10000828F9D10CBD000000100240002002403E
:102B2000042808D14FF0E021096941F004014FF079
:102B3000E022116107E04FF0E021096921F0040172
:102B40004FF0E0221161704710B503F019FF012822
:102B500001D003F025FA10BD10B51348006840F00D
:102B600001001149086008464068104908400E49B4
:102B70004860084600680E4908400B49086008464E
:102B8000006820F4802008600846406820F4FE00B9
:102B900048604FF41F008860FFF74EFF4FF0006061
:102BA0000449086010BD0000001002400000FFF85A
:102BB000FFFFF6FE08ED00E008B501211020FFF749
:102BC000B1FE01210820FFF7ADFE3F20ADF8000067
:102BD00010208DF8030003208DF802006946094893
:102BE000FFF710FA3F210748FFF7E9FA0320ADF895
:102BF000000069460448FFF705FA03210248FFF781
:102C0000E0FA08BD00100140000C0140F0B50C4690
:102C1000154600220021068C4FF6FE773E400684C2
:102C2000028B018C4FF60C7632407E1C06EA0316AE
:102C30002E433243104EB0420ED0104EB0420BD055
:102C4000B0F1804F08D00E4EB04205D00D4EB042CC
:102C500002D00D4EB04206D14FF6FD76314044F021
:102C60000106314305E04FF6F576314044F00106A8
:102C7000314302830184F0BD002C01400034014047
:102C80000004004000080040000C0040F0B50C4675
:102C90001546002200210026078C4FF6EF7C07EA3C
:102CA0000C070784028B018C4FF6FF7707EA0416A6
:102CB00040F6FF473A404FF6FF7707EA03373A43BB
:102CC0004FF6FF7707EA05273A43114FB8420ED077
:102CD000104FB8420BD0B0F1804F08D00E4FB84221
:102CE00005D00E4FB84202D00D4FB84206D14FF674
:102CF000DF77394046F01007394305E04FF65F773C
:102D0000394044F01007394302830184F0BD0000CC
:102D1000002C014000340140000400400008004045
:102D2000000C0040F0B50C4615460022002100269C
:102D3000078C4FF6FF6C07EA0C070784828B018C27
:102D40004FF6FF7707EA04264FF60C773A404FF626
:102D5000FF7707EA03172F433A43114FB8420ED0CB
:102D6000104FB8420BD0B0F1804F08D00E4FB84290
:102D700005D00E4FB84202D00D4FB84206D14FF6E3
:102D8000FF57394046F48077394305E04FF2FF574B
:102D9000394044F48077394382830184F0BD0000D8
:102DA000002C0140003401400004004000080040B5
:102DB000000C0040F0B50C4615460022002100260C
:102DC000078C4EF6FF7C07EA0C070784828B018C88
:102DD0004FF6FF7707EA043640F6FF473A404FF6D2
:102DE000FF7707EA05273A434FF6FF7707EA0337ED
:102DF0003A43114FB8420ED0104FB8420BD0B0F149
:102E0000804F08D00E4FB84205D00E4FB84202D0C6
:102E10000D4FB84206D14DF6FF77394046F4805742
:102E2000394305E047F6FF57394044F480573943AA
:102E300082830184F0BD0000002C01400034014079
:102E40000004004000080040000C0040F8B50024D9
:102E50000121384800F0BFF900285ED00121354833
:102E600000F085F83448807D012803D03248807D09
:102E700002282FD13048D0E90021104604F078FB19
:102E8000002827DB2C4800222C4BD0E90051284693
:102E900004F0E0FC284A03C229480088401C284965
:102EA00008800220244988750846D0E90021104690
:102EB00004F05EFB2049498A884205DD4FF4004159
:102EC0002048FFF77EF928E04FF400411D48FFF746
:102ED00076F922E01848008A00280BDD1648008A9F
:102EE000401E154908820846D0E90210124AC2E97C
:102EF000001012E000210F4800F03CF800201049BB
:102F000008800D48C07D012804D169460E4800683C
:102F100003F09AFA00200849887500BF3CB14FF0D1
:102F200080500A490860BFF34F8FBFF36F8F00BF17
:102F3000F8BD0000002C0140D00600200000244015
:102F400088000020000C01406C00002004ED00E02F
:102F500021B1028842F08002028004E002884FF62C
:102F60007F731A4002807047CA4302827047CA4387
:102F70000282704721B1028842F00102028004E01F
:102F800002884FF6FE731A400280704731B1B0F8E4
:102F9000442042F40042A0F8442005E0B0F8442068
:102FA000C2F30E02A0F844207047000010B504469A
:102FB0006848844208D10121C014FFF7C3FC0021F6
:102FC000E014FFF7BFFCC4E0B4F1804F08D1012149
:102FD0000846FFF797FC00210120FFF793FCB8E0BB
:102FE0005D48844208D101210220FFF78BFC0021BB
:102FF0000220FFF787FCACE05848844208D1012149
:103000000420FFF77FFC00210420FFF77BFCA0E0F9
:103010005348844208D101210820FFF773FC0021A6
:103020000820FFF76FFC94E04E48844208D101214C
:103030001020FFF767FC00211020FFF763FC88E0F9
:103040004948844208D101212020FFF75BFC002180
:103050002020FFF757FC7CE04448844208D101213E
:103060004014FFF76FFC00216014FFF76BFC70E069
:103070003F48844209D10121C804FFF763FC0021C5
:103080004FF40020FFF75EFC63E03A48844209D128
:1030900001210805FFF756FC00214FF48010FFF7CF
:1030A00051FC56E03448844209D101214805FFF71C
:1030B00049FC00214FF40010FFF744FC49E02F4881
:1030C000844208D101214020FFF71CFC0021402050
:1030D000FFF718FC3DE02A48844208D101218020F6
:1030E000FFF710FC00218020FFF70CFC31E02548A1
:1030F000844208D101218015FFF704FC0021A015AE
:10310000FFF700FC25E02048844209D10121080492
:10311000FFF718FC00214FF48030FFF713FC18E094
:103120001A48844209D101214804FFF70BFC002111
:103130004FF40030FFF706FC0BE01548844208D13D
:1031400001218804FFF7FEFB00214FF48020FFF7E8
:10315000F9FB10BD002C01400004004000080040B5
:10316000000C0040001000400014004000340140FA
:10317000004C014000500140005401400018004044
:10318000001C00400020004000400140004401407D
:1031900000480140F0B50C4615461E4600210022AD
:1031A00000230189028B038C4FF6F87739402143C5
:1031B0004FF6FC473A4040F201173A434FF6DD77AD
:1031C0003B404FF6FF7707EA06172F433B43018149
:1031D00002830384F0BD30B50246002000230024A2
:1031E000158A05EA0103958905EA010413B10CB1BA
:1031F000012000E0002030BD70B505460C46244893
:1032000085420ED0234885420BD0B5F1804F08D0BF
:103210002148854205D02148854202D02048854278
:1032200000D100E000BF208850B92389A2886188BE
:103230002846FFF7EBFCE188284600F0ABF925E0D3
:10324000208804280AD12389A28861882846FFF7AC
:103250001DFDE188284600F0A6F917E0208808281F
:103260000AD12389A28861882846FFF75BFDE1889F
:10327000284600F0A5F909E02389A288618828463C
:10328000FFF798FDE188284600F0A3F970BD000023
:10329000002C0140003401400004004000080040C0
:1032A000000C00400021018041800121818000212B
:1032B000C180018170471AB183890B43838102E089
:1032C00083898B438381704770B5002400220023DB
:1032D000058C4FF6FE7635400584028C8388048B7E
:1032E0004FF68F752C40B51E2C400D882C43751E53
:1032F0002A400D892A434D882A43144DA8420BD0F9
:10330000134DA84208D0134DA84205D0124DA84233
:1033100002D0124DA84213D14FF6F7752A404D89BD
:103320002A434FF6FB752A408D882A434FF6FF65E6
:103330002B404FF6FF552B408D892B43CD892B43D6
:1033400083800483CD888586028470BD002C014073
:103350000034014000400140004401400048014069
:103360000A460021018B4FF6F77319401143018380
:103370007047000070B5002400220023058C4FF632
:10338000EF7635400584028C8388048B48F6FF7500
:103390002C404FF6FF452C400D884FF6FF7606EA8D
:1033A00005252C434FF6DF752A400D8906EA0515E1
:1033B0002A434D8806EA05152A43154DA84202D036
:1033C000144DA8421DD14FF67F752A404D894FF606
:1033D000FF7606EA05152A434FF6BF752A408D8809
:1033E00006EA05152A434FF6FF352B404FF2FF75CD
:1033F0002B408D8906EA85052B43CD8906EA850594
:103400002B4383800483CD880587028470BD000030
:10341000002C0140003401400A460021018B4FF28C
:10342000FF7319404FF6FF7303EA02231943018328
:103430007047000070B5002400220023058C4FF671
:10344000FF6635400584028C8388848B4FF68F7528
:103450002C404FF6FC752C400D882C434FF6FF5541
:103460002A400D894FF6FF7606EA05252A434D8846
:1034700006EA05252A43154DA84202D0144DA8425C
:103480001DD14FF2FF752A404D894FF6FF7606EAAF
:1034900005252A434FF6FF352A408D8806EA052583
:1034A0002A434EF6FF752B404DF6FF752B408D8954
:1034B00006EA05152B43CD8906EA05152B438380C3
:1034C0008483CD888587028470BD0000002C014074
:1034D000003401400A460021818B4FF6F7731940F2
:1034E000114381837047000070B50022002300243F
:1034F000058C4EF6FF7635400584038C8488828BDC
:1035000048F6FF752A404FF6FF452A400D884FF6D2
:10351000FF7606EA05252A434DF6FF752B400D89F7
:1035200006EA05352B434D8806EA05352B430B4D3E
:10353000A84202D00A4DA84208D14BF6FF752C4094
:103540008D894FF6FF7606EA85152C4384808283A9
:10355000CD88A0F84050038470BD0000002C0140CD
:10356000003401400A460021818B4FF2FF7319405D
:103570004FF6FF7303EA0223194381837047818664
:1035800070470187704781877047A0F840107047E7
:1035900081847047028B4FF6F3731A400283028BCB
:1035A0000A4302837047028B4FF2FF331A400283B3
:1035B000028B4FF6FF7303EA01231A43028370471D
:1035C000828B4FF6F3731A408283828B0A43828385
:1035D0007047828B4FF2FF331A408283828B4FF603
:1035E000FF7303EA01231A43828370470022028893
:1035F0001D4B98420ED01D4B98420BD0B0F1804F1E
:1036000008D01B4B984205D01A4B984202D01A4B57
:10361000984204D14FF68F731A404B881A43174BC8
:10362000984207D0164B984204D04FF6FF431A40F9
:10363000CB881A4302808B8883850B8803850A4BCD
:1036400098420BD0094B984208D00E4B984205D0B7
:103650000D4B984202D00D4B984201D10B7A038654
:103660000123838270470000002C01400034014098
:103670000004004000080040000C00400010004022
:103680000014004000400140004401400048014057
:103690004FF6FF71818000210180C180418001725D
:1036A000704700007FB505460C460121C802FFF7B0
:1036B00039F9ADF80850ADF804400020ADF80A0023
:1036C000ADF806008DF80C0001A90E48FFF78EFF3B
:1036D00001210C48FFF748FC012211460948FFF779
:1036E000EAFD19208DF8000001208DF80300062066
:1036F0008DF8010000208DF802006846FFF700F801
:103700007FBD0000002C014030B589B005460C4655
:1037100001210846FFF7E6F801210D20FFF702F925
:1037200001213648FEF7FAFC01213548FEF7F6FC88
:103730004FF40040ADF8040003208DF80600182077
:103740008DF8070001A92F48FEF75CFC40F6084001
:10375000ADF8040001A92C48FEF754FC4FF080405E
:10376000FFF724FCADF81C50ADF818400020ADF870
:103770001E00ADF81A0006A94FF08040FFF736FF93
:103780007020ADF808000120ADF80A000020ADF867
:103790000E000220ADF8100002A94007FFF794FDCB
:1037A00002A94FF08040FFF7E5FD02A94FF08040ED
:1037B000FFF740FE02A94FF08040FFF795FE082179
:1037C000C806FFF7CDFD0821C806FFF725FE082132
:1037D000C806FFF77FFE0821C806FFF7C3FE0121D8
:1037E0008807FFF7D3FB01218807FFF7B1FB012111
:1037F0008807FFF7BFFB09B030BD000000031800C9
:103800000002300000080140000C014030B587B0D4
:1038100004460D4601210220FFF764F8012104202F
:10382000FFF780F8C020ADF8000004208DF80300F9
:1038300069461B48FEF7E6FB04A8FFF729FFADF831
:103840001050ADF814400020ADF81600ADF812008D
:1038500004A91448FFF7CAFE00231A4603211148A1
:10386000FFF798FC01A8FFF71DFD0A20ADF80C003A
:1038700001A90C48FFF7C0FC01210A48FFF774FBBF
:10388000012211460748FFF716FD00210548FFF702
:103890007FFE01210348FFF76DFB07B030BD00003C
:1038A000000801400004004030B587B004460D46D2
:1038B00001210420FFF716F801210820FFF732F854
:1038C000C020ADF8000004208DF8030069461B48B5
:1038D000FEF798FB04A8FFF7DBFEADF81050ADF83B
:1038E00014400020ADF81600ADF8120004A91448E9
:1038F000FFF77CFE00231A4603211148FFF74AFC1C
:1039000001A8FFF7CFFC0A20ADF80C0001A90C4874
:10391000FFF772FC01210A48FFF726FB012211463E
:103920000748FFF7C8FC00210548FFF731FE0121D9
:103930000348FFF71FFB07B030BD0000000C01403B
:103940000008004030B587B004460D46012108202C
:10395000FEF7C8FF01210420FEF7E4FF0320ADF8C5
:10396000000004208DF8030069461B48FEF74AFB5F
:1039700004A8FFF78DFEADF81050ADF814400020FC
:10398000ADF81600ADF8120004A91448FFF72EFE9A
:1039900000231A4603211148FFF7FCFB01A8FFF79B
:1039A00081FC0A20ADF80C0001A90C48FFF724FCAB
:1039B00001210A48FFF7D8FA012211460748FFF70C
:1039C0007AFC00210548FFF7E3FD01210348FFF7DA
:1039D000D1FA07B030BD000000080140000C0040E3
:1039E00030B587B004460D4601214803FEF79AFF23
:1039F00001210420FEF796FFC020ADF8000004204E
:103A00008DF8030069461B48FEF7FCFA04A8FFF78F
:103A10003FFEADF81050ADF814400020ADF8160090
:103A2000ADF8120004A91448FFF7E0FD00231A4680
:103A300003211148FFF7AEFB01A8FFF733FC0A2072
:103A4000ADF80C0001A90C48FFF7D6FB01210A488C
:103A5000FFF78AFA012211460748FFF72CFC0021E4
:103A60000548FFF795FD01210348FFF783FA07B0EA
:103A700030BD0000001001400034014010B540F29C
:103A80002551084800F0A1F830B106488088C4B23A
:103A90002146054800F059F940F22551014800F04F
:103AA00079F810BD005000400048004010B540F2C9
:103AB00025511D4800F089F810B31B4800F040F96B
:103AC000C4B21A48008800F40040C8B917480088FA
:103AD00000F4804060B10A2C03D000201349088014
:103AE00020E01248008840F400401049088019E0A6
:103AF0000D2C06D10D48008840F480400B49088009
:103B000010E00A480088C0F30D0009490C5407482A
:103B10000088401C0549088008460088C72801DD48
:103B20000020088010BD000000380140DC040020A7
:103B3000F006002010B540F22551094800F045F884
:103B400038B1074800F0FCF8C4B22146044800F040
:103B5000FCF840F22551024800F01CF810BD0000AE
:103B60000044004010B540F22551094800F02DF8FE
:103B700038B1074800F0E4F8C4B22146044800F028
:103B8000E4F840F22551024800F004F810BD0000AE
:103B90000048004010B50022002340F66A14A142FC
:103BA00000D100BF0A1201249440A3B2DC43048078
:103BB00010BD21B1828942F40052828104E08289E1
:103BC0004DF6FF731A408281704770B5024600249B
:103BD00000230025002040F66A16B14200D100BF44
:103BE000C1F3421501F01F03012606FA03F3012D6C
:103BF00002D19689334006E0022D02D1168A334065
:103C000001E0968A33400C12012606FA04F4168865
:103C1000344013B10CB1012000E0002070BDF0B5BC
:103C20000346002400260025002040F66A17B9420A
:103C300000D100BF1846C1F3421401F01F0601274E
:103C400007FA06F5012C01D10C3004E0022C01D159
:103C5000103000E014301AB107682F43076002E00B
:103C60000768AF430760F0BD2DE9F04786B0054611
:103C70000E460024A24600BFA1460027B08900B12D
:103C800000BF2F462C8A4CF6FF700440F088044396
:103C90002C82AC894EF6F3100440B0883189084379
:103CA000718908430443AC81AC8A4FF6FF4004405D
:103CB000B0890443AC8201A8FEF754FE1F48874236
:103CC00002D1DDF810A001E0DDF80CA0A88900F415
:103CD000004040B10AEBCA0000EB0A10316849000D
:103CE000B0FBF1F807E00AEBCA0000EB0A103168FC
:103CF0008900B0FBF1F86420B8FBF0F00401200962
:103D0000642101FB1089A88900F4004040B13220F1
:103D100000EBC900B0FBF1F000F00700044308E03D
:103D2000322000EB09106421B0FBF1F000F00F002D
:103D300004432C8106B0BDE8F08700000038014044
:103D400001468888C0F308007047C1F308028280EA
:103D5000704700BFFEE7490050EAC12018BF0420A9
:103D60004A0D18BF40F0010040F2FF72B2EB515F04
:103D700008BF40F00200012808BF05207047303816
:103D80000A2801D2012070470020704700BF704709
:103D900010B50420FEF7C4FE104800681049B0FBBF
:103DA000F1F0104908700D4800680D49B0FBF1F4BE
:103DB0004FF47A70444301200B4908804FF0E02013
:103DC000006940F002004FF0E021086108464461BC
:103DD000006940F00100086110BD0000740000207F
:103DE00040420F00D4040020D604002070B50446E1
:103DF00002F0C6FD012810D00B480088844206D38B
:103E000009480088B4FBF0F5284601F07FFB06481E
:103E10000088B4FBF0F100FB11444FF47A7104FB0D
:103E200001F000F003F870BDD604002070B5034621
:103E300000224FF0E02675690D4E367803FB06F43C
:103E40004FF0E026B16910E04FF0E026B0698842FB
:103E50000BD0884202D20E1A324402E02E1A0E44CF
:103E600032440146A24200D300E0EDE700BF70BD3E
:103E7000D404002030B50446002504E04FF47A70E5
:103E8000FFF7D4FF6D1CA542F8D330BD00BF054A33
:103E9000128802F04002002AF9D0C2B2014B1B1D69
:103EA0001A8070470038014008B5002431E01948F5
:103EB000006858B34FF0FF30002301220321009027
:103EC0001448006801F01EFF0446FCB1012C02D02A
:103ED000022C19D114E010A0FCF718FA00231A469E
:103EE00019461048006802F02BF901200E49C875E8
:103EF0004FF4FA730D4A50210B48FDF7EBFD04E037
:103F00000BA0FCF703FA00E000BF00BF2820FFF77A
:103F10006DFFCCE770000020737733B1BBB0B4CF36
:103F2000C20D0A006C000020D00600200000834370
:103F3000737734B1BBB0B4CFC20D0A0009E00548B5
:103F40000068C0430449C1F8A0014FF4FA70FFF7BC
:103F50004DFFF4E7A0012142000021421CB54FF4BF
:103F60004070FEF705FCFFF713FF4FF4612001F0EE
:103F700075F8FEF793FAFEF729F9FEF71DFEFEF736
:103F800001FCFDF709FCFDF785FD002140F60F60FF
:103F9000FFF7BAFB00214FF6FF70FFF737FC002157
:103FA0004FF6FF70FFF780FC00214FF6FF70FFF720
:103FB000C9FC00214FF6FF70FFF712FD00214FF002
:103FC0008040FFF7DCFA00214FF08040FFF7D9FA7C
:103FD00000214FF08040FFF7D6FA00214FF08040DB
:103FE000FFF7D3FA01210620FDF706FE0221062085
:103FF000FDF702FE03210620FDF7FEFD0421062049
:10400000FDF7FAFD0123412200210846FEF762F97F
:10401000FEF760FA4FF6FF70FEF736F94FF6FF70C5
:104020000B4908604FF478400A4908600AA0FCF781
:104030006DF90E48012100238022CDE900100CA16A
:104040000E4802F06DFC01F013FD00201CBD0000C5
:10405000CC040020D004002020B3F5CABCBBAFCDF7
:10406000EAB3C92121210D0A000000005000002000
:1040700073746172745F7461736B00009D4E00080D
:1040800086B016E00B49B1F8540100F019F8064665
:1040900003F0CAFC044622460B4607A101A8FCF720
:1040A00041F901AA00210846FEF786F9C820FFF76A
:1040B0009DFEE7E77405002025322E32665600008B
:1040C0002DE9F05F8246504603F0D0FD04460C49CE
:1040D00003F0E0FD8346584603F0A6FC8046094AFB
:1040E000094B03F0EDF806464FF03332074B03F06F
:1040F000B3FA044603F00AF883465846BDE8F09F39
:104100003333533A295C8FC2F528044033332940B6
:1041100002E01420FFF76AFEFBE700004B242AE0D0
:104120004FF0FF311448006802F0D0FA134951F8FB
:10413000240003F09BFD05461148005DD02100FBE3
:1041400001F32A4602210F48FDF7C4FC21460EA0C8
:10415000FCF7DCF8641C0A48FCF74AFA801EA0420F
:1041600006D1002400200749C87509A0FCF7CEF845
:104170006420FFF73BFED3E76C000020307E000890
:1041800000000020D0060020693A25640D0A0000D6
:10419000BDE1CAF80D0A00002DE9F04105460E46C2
:1041A0002648076826480068001D00F0A7FF50B9A0
:1041B0002348006890F82C100120884021490968A4
:1041C000814320480160681CD8B9D6B11E494868AF
:1041D0001B49096888601A4982680968CA601849D9
:1041E0000968091D8268516015490968091D8160C7
:1041F000154A134909684A6111460968491C11604A
:104200001AE07C190E4800684460BC4207D20C4892
:104210000168091D0D48006800F0AAFF0CE008487D
:104220000168091D0A48006800F0A2FF09480068FB
:10423000844201D207480460BDE8F08108050020EF
:10424000F40400200C050020C80A0020FC04002013
:10425000F80400202405002010B5044600F0AEFF4D
:1042600031480068401C304908603048006840B957
:104270002E4804600846006801280DD100F016FAA7
:104280000AE02B48006838B928480068C06AE16A2B
:10429000884201D82548046026480068401C25490A
:1042A000086008460068606494F82C10012088407B
:1042B00021490968084320490860E16A01EB81014E
:1042C0001E4A02EB81014868A0608268E260211DFD
:1042D000826851608160E16A01EB8101174A02EB5B
:1042E00081026261E16A01EB8101144A52F82110F6
:1042F000491CE26A02EB8202104B43F8221000F0E4
:10430000A1FF0B48006868B108480068C06AE16A0C
:10431000884207D24FF0805009490860BFF34F8FA1
:10432000BFF36F8F10BD000004050020F4040020CF
:1043300010050020200500200C050020F8070020B3
:1043400004ED00E010B500F039FF10480068D0B966
:104350000F4800F0FDFE0F4800F0FAFE0C480E4931
:1043600008600C480D49086000221021052001F06A
:1043700031FE064908600846006820B108A10348DC
:10438000006801F05FF800F05DFF10BD3C05002003
:10439000DC0A0020F00A0020340500203805002047
:1043A000546D72510000000010B516E000F006FFD9
:1043B0000C48C068C468201D00F0A0FE0A480068D0
:1043C000401E0949086009480068401E0749086006
:1043D00000F038FF204600F05FF80448006800282D
:1043E000E4D110BDB40A002004050020000500201F
:1043F00070B504460D46206C70B1216CE068014434
:10440000E160D4E90210884201D32168E1602846C6
:10441000226CE168FCF70BF970BD2DE9F041044610
:104420000F4615464FF00008A66B206C48B920686F
:1044300000282CD1A06802F0A3FB80460020A060D9
:1044400025E07DB93946226C6068FCF7F0F8216CF4
:10445000606808446060D4E90101884217D320688D
:10446000606014E03946226CE068FCF7E0F8216CEB
:10447000E068411AE1602168E068884203D2216C5B
:10448000A068411AE160022D01D106B1761E701CB0
:10449000A0634046BDE8F08110B50446206B00F0F3
:1044A00009FF204600F006FF10BD01464A6A22B10E
:1044B0000A6B1268C2F1200000E000207047000083
:1044C0000146084A126812680AB9012200E0002277
:1044D0000A600A6822B9034A1268D268106800E0CC
:1044E000002070473405002030B54FF4A043174832
:1044F00000F007042CB1C01D20F00700134C041B72
:104500001B1B0246124C22600024114D6C60D01817
:10451000083820F007000F4C206000240D4D2D6856
:104520006C600C4D2D682C601146441A4C60094C8F
:1045300024680C60084D4C682C60084D4C682C6059
:104540004FF00044064D2C6030BD0000040B0020ED
:104550004805002050050020580500205405002083
:104560006405002000BFFFF71FFF06480068012810
:10457000F9D94FF0805004490860BFF34F8FBFF363
:104580006F8FF0E7F807002004ED00E02DE9F0411F
:1045900006460D4617469846069C0DB9246000E075
:1045A0002760E66325640121204601F053FD84F86D
:1045B00050800020A064BDE8F08100002DE9F05F8C
:1045C00082460F4690469B460A9E0C9C4FEA880105
:1045D000A522206BFCF770F8A8F10100216B01EB1C
:1045E000800929F0070909F0070008B9012000E057
:1045F000002028B94FF4587223A128A0FBF786FEAB
:1046000087B1002507E0795D04F134004155785DFC
:1046100000B902E06D1C102DF5D300BF002143202E
:10462000015502E0002084F83400202E01D2012040
:1046300000E0002028B940F2973213A117A0FBF741
:1046400065FE202E00D31F26E662E664002020656A
:10465000201D00F08AFD04F1180000F086FD2461A1
:10466000C6F12000A06164620020606584F85800F3
:104670005A465146484600F0FFFB20600B9808B1AF
:104680000B980460BDE8F09F2E2E5C467265655263
:10469000544F535C7461736B732E63004572726F79
:1046A000723A25732C25640D0A00000010B5002411
:1046B00007E004EB84010F4A02EB810000F048FDA3
:1046C000641C202CF5D30C4800F042FD0B4800F090
:1046D0003FFD0B4800F03CFD0A4800F039FD0A4858
:1046E00000F036FD0448094908600448084908609C
:1046F00010BD0000F8070020780A00208C0A002076
:10470000A00A0020B40A0020C80A0020F8040020F3
:10471000FC04002010B50146164800E0006803685C
:104720008B42FBD30246436813448B4204D1436857
:104730004C682344436001460A464B6813440468AE
:10474000A34211D10C4C03682468A34208D04B68E3
:104750000468646823444B6003681B680B6005E0D1
:10476000054B1B680B6001E003680B60884200D0BA
:10477000016010BD48050020500500202DE9F041E2
:1047800004460D4616461F464FF00008656024613A
:10479000B5420CD8F01BA169884202D34FF0010842
:1047A00011E0211D0948006800F0E2FC0BE0BE4268
:1047B00004D2BD4202D34FF0010804E0211D044899
:1047C000006800F0D5FC4046BDE8F08138050020C7
:1047D0003405002070B5054600F0F0FCA86B08B960
:1047E000012400E0002400F02DFD204670BD70B5CE
:1047F000054600F0E3FCA86BE96B884201D1012477
:1048000000E0002400F01EFD204670BDF1B50098C8
:10481000846C00262CB940F6D73220A124A0FBF7E7
:1048200075FDA06BE16B884201D2012000E0002001
:1048300028B940F6D83219A11DA0FBF767FDA06B7F
:10484000E16B884227D294F9455000226946204600
:10485000FFF7E3FD0646681C60B9606A08B90120ED
:1048600000E00020B0B904F1240002F07FFA88B122
:1048700001260FE07F2D01D0012000E0002028B9A3
:1048800040F6F83205A10AA0FBF740FD681C40B2D3
:1048900084F8450000BF3046F8BD00002E2E5C466F
:1048A00072656552544F535C71756575652E630072
:1048B0004572726F723A25732C25640D0A00000050
:1048C00070B505460E460E480068C068C468201DD5
:1048D00000F014FC94F8280000F0040028B13246DF
:1048E0002946204600F0F8F805E094F8280000F08A
:1048F000FE0084F828002046216A884770BD000029
:104900003405002070B586B08AE0029800280CDAE1
:1049100003AE2EB940F2063247A14DA0FBF7F6FCDC
:10492000D6E90020B168904700BF0298002877DBE5
:10493000049C606908B9012000E0002010B9201D26
:1049400000F0DCFB01A800F0F3F8054602980A2805
:1049500064D2DFE800F06305072E365306082F37D0
:1049600000BF00BF00BF94F8280040F0010084F8A9
:1049700028000398A269811803462A462046FFF7BB
:10498000FDFEA8B194F8280000F0040038B10398A7
:10499000A26981182A46204600F09EF805E094F8A6
:1049A000280000F0FE0084F828002046216A88478D
:1049B00035E000BF94F8280000F0FE0084F82800DD
:1049C0002DE000BF94F8280040F0010084F8280092
:1049D0000398A061A06908B1012000E0002028B977
:1049E00040F2593214A11AA0FBF790FCA0694119BA
:1049F0002B462A462046FFF7C1FE10E094F8280017
:104A000000F0020018B9204600F054FC05E094F8CC
:104A1000280000F0FE0084F8280000E000BF00BF7E
:104A2000002202A90E48006801F098FD00287FF4DA
:104A30006CAF06B070BD00002E2E5C4672656552EC
:104A4000544F535C74696D6572732E6300000000EF
:104A50004572726F723A25732C25640D0A000000AE
:104A60003C050020F8B505460C4601F05BF86846A9
:104A700000F05EF80646009820BB44B9B54206D85F
:104A800002F012FA31462846FFF71AFF1CE03CB14B
:104A90000E480068006808B9012000E000200446C4
:104AA000A91B22460A48006800F00AFD02F0FCF942
:104AB00050B94FF0805007490860BFF34F8FBFF3E4
:104AC0006F8F01E002F0F0F9F8BD0000380500201A
:104AD0003C05002004ED00E070B504460D46164686
:104AE00004E0A06905442046216A8847A06941196D
:104AF0002B4632462046FFF741FE0028F1D170BD1B
:104B000009480068006808B9012000E0002020B1D1
:104B10004FF0FF300549086005E003480068C068B1
:104B20000068024908607047F8040020240500204E
:104B300070B5044601F034FF054607480068854219
:104B400004D200F00BF80120206001E0002020607A
:104B500001480560284670BD4405002070B508E096
:104B60000D480068C06804684FF0FF312046FFF729
:104B7000A7FE09480068006808B9012000E000208D
:104B80000028EDD004480568044800680249086020
:104B90000248056070BD0000340500203805002083
:104BA0000B480068401C08B9012000E0002020B933
:104BB000CE2208A112A0FBF7A9FB00BF502080F372
:104BC0001188BFF34F8FBFF36F8F00BF00BFFEE7A9
:104BD000680500202E2E5C4672656552544F535C6A
:104BE000706F727461626C655C525644535C4152E2
:104BF0004D5F434D335C706F72742E630000000094
:104C00004572726F723A25732C25640D0A000000FC
:104C100010B50346002022B903EA010434B1012093
:104C200004E003EA01048C4200D1012010BD08B564
:104C300000BF6846FFF744FC044620460099FFF792
:104C400011FFFFF75FFEF4E770B5044600F0B6FA17
:104C500094F9455019E0A06C30B12046FFF7D6FD1D
:104C600088B100F023FD0EE0606A08B9012000E081
:104C7000002038B904F1240002F078F818B100F0EF
:104C800015FD00E003E0681E45B2002DE3DC00BF27
:104C9000FF2084F8450000F0D5FA00F08FFA94F96F
:104CA000445010E0206908B9012000E0002048B914
:104CB00004F1100002F05AF808B100F0F7FC681E89
:104CC00045B200E001E0002DECDC00BFFF2084F8DD
:104CD000440000F0B7FA70BD2DE9F04104464FF0F2
:104CE000000800F01FFF4848006808B9FFF7FCFB08
:104CF000464800682040002873D114B304F108002E
:104D0000A0421ED9083404F00700D8B104F007000F
:104D1000C0F108002044A04211D904F00700C0F1FE
:104D20000800044404F0070008B9012000E0002056
:104D300040B99C2236A140A0FBF7E8FA02E000242B
:104D400000E00024002C4CD03F480068844248D842
:104D50003E4E3046056801E02E462D686868A04248
:104D600002D228680028F7D127480068854238D049
:104D7000306800F10808286830606868001B102857
:104D800013D92F1907F0070008B9012000E000200F
:104D900020B9CF221EA128A0FBF7B8FA6868001B33
:104DA00078606C603846FFF7B5FC27496868096889
:104DB000081A25490860084600682549096888429C
:104DC00003D22148006822490860104968680968D0
:104DD00008436860002028601E480068401C1D4988
:104DE000086002F061F808F0070008B9012000E04F
:104DF000002028B94FF4887205A10FA0FBF786FAAE
:104E00004046BDE8F0810000500500206405002008
:104E10002E2E5C4672656552544F535C706F7274EF
:104E200061626C655C4D656D4D616E675C68656166
:104E3000705F342E630000004572726F723A257302
:104E40002C25640D0A0000005405002048050020B0
:104E5000580500205C0500200648006830B105496F
:104E6000096801F15000096D491C016001480068A2
:104E700070470000F4040020001F4FF080730360AF
:104E8000001F21F001030360001F034B036014386F
:104E90000260203870470000A14B00081CB5044692
:104EA00000F08CF93048022100233222CDE90010B5
:104EB0002EA1314801F034FD304802210023962212
:104EC000CDE900102EA1314801F02AFD304814210F
:104ED00000234FF48272CDE900102EA1304801F07A
:104EE0001FFD3048032100235022CDE900102EA1E0
:104EF000304801F015FD3048032100234FF48C7237
:104F0000CDE900102DA1304801F00AFD0322002157
:104F1000012001F05FF82D4908600846006810B9CB
:104F20002BA0FBF7F3F903220021012001F052F836
:104F3000324908600846006810B931A0FBF7E6F96D
:104F400000F04CFE394908600846006810B938A0E6
:104F5000FBF7DCF9FCF740FE3F48006800F010FB6F
:104F600000F070F91CBD0000540000206C65643036
:104F70005F7461736B0000003D3F00085800002023
:104F80006F6C65645F7461736B00000081400008A2
:104F90005C0000207069645F7461736B0000000046
:104FA00011410008600000206B65795F7461736BCC
:104FB00000000000A93E0008640000206D757369C0
:104FC000635F7461736B00001D410008680000207E
:104FD000436F756C646E277420637265617465201D
:104FE0004F4C45445F42696E5F53656D6170686FF9
:104FF000726548616E646C650D0A27006C000020C4
:10500000436F756C646E27742063726561746520EC
:10501000424545505F42696E5F53656D6170686FD0
:10502000726548616E646C650D0A2700700000208F
:10503000436F756C646E27742063726561746520BC
:105040004B65795F4576656E7447726F7570486120
:105050006E646C650D0A00005000002010B586B02B
:105060000446012144F20400FDF75CFC4FF400709B
:10507000ADF8140003208DF8160018208DF81700E5
:1050800005A91C48FCF7BEFF4FF48060ADF8140082
:1050900004208DF8170005A91648FCF7B3FF25205A
:1050A0008DF8000003208DF801008DF8020001202A
:1050B0008DF803006846FDF723FB01940020ADF84E
:1050C0000800ADF80A00ADF80C00ADF810000C2097
:1050D000ADF80E0001A90848FEF7C6FD012240F216
:1050E00025510548FEF79BFD01210348FEF761FDB0
:1050F00006B010BD000801400038014001460A69B1
:10510000D1E901309860D1E90103586050688842C4
:1051100001D188685060002008611068401E10604E
:105120001068704705490968886904490968C96AAF
:10513000C1F12001014A126891617047F404002016
:1051400070B504460D462946204600F055FD70BD59
:1051500000F1080141604FF0FF31816000F108016A
:10516000C160016100210160704700210161704749
:1051700010B502460B685C1C0CB9106907E002F11F
:10518000080000E04068446824689C42FAD94468FA
:105190004C604C68A160886041600A611468641CBE
:1051A000146010BD42684A6093688B6093685960D0
:1051B0009160086103685B1C0360704710B500BF15
:1051C000502080F31188BFF34F8FBFF36F8F00BF64
:1051D0000B480068401C0A4908600846006801281E
:1051E0000DD108480068C0B208B9012000E00020D5
:1051F00028B940F2731204A10EA0FBF787F810BD86
:105200006805002004ED00E02E2E5C4672656552B4
:10521000544F535C706F727461626C655C5256449B
:10522000535C41524D5F434D335C706F72742E631B
:10523000000000004572726F723A25732C25640DD0
:105240000A00000010B50B48006828B94FF4BD7281
:1052500009A114A0FBF75AF806480068401E05494A
:1052600008600846006820B9002080F3118800BF5C
:1052700000BF10BD680500202E2E5C467265655289
:10528000544F535C706F727461626C655C5256442B
:10529000535C41524D5F434D335C706F72742E63AB
:1052A000000000004572726F723A25732C25640D60
:1052B0000A00000070B506463546002E3AD0083D7B
:1052C0002C461D4960680968084008B1012000E0CB
:1052D000002028B94FF4927218A122A0FBF716F80B
:1052E000206808B9012000E0002028B940F225120A
:1052F00012A11CA0FBF70AF80F4960680968084072
:10530000C0B12068B0B90C49606809688843606022
:1053100000F008FC174960680968084415490860EE
:105320002046FFF7F7F914480068401C124908604E
:1053300001F0BAFD70BD0000640500202E2E5C4611
:1053400072656552544F535C706F727461626C6524
:105350005C4D656D4D616E675C686561705F342E94
:10536000630000004572726F723A25732C25640D3C
:105370000A000000540500206005002000204FF0C6
:10538000E02108618861064800684FF47A71B0FB3B
:10539000F1F0401E4FF0E02148610720086170479E
:1053A0007400002070B5FAF78BFF0546102D11D35D
:1053B00005F1E02090F8F04310480078844201DBCA
:1053C000012000E0002028B940F2BB220CA117A068
:1053D000FAF79CFF1948006800F4E0601849096872
:1053E000884201D8012000E0002028B940F2CB22F9
:1053F00003A10EA0FAF78AFF70BD00006C05002023
:105400002E2E5C4672656552544F535C706F7274F9
:1054100061626C655C525644535C41524D5F434D32
:10542000335C706F72742E63000000004572726FFF
:10543000723A25732C25640D0A0000000CED00E083
:10544000700500202DE9F04105460F4600262DB9D4
:1054500040F6CA2210A115A0FAF758FFBFB10024E8
:1054600012E0164800EBC4004068A84203D113487C
:1054700000EBC4060AE036B9104850F8340010B901
:105480000E4800EBC406641C082CEAD300BF0EB122
:1054900037607560BDE8F0812E2E5C4672656552FE
:1054A000544F535C71756575652E63004572726F5C
:1054B000723A25732C25640D0A000000B8070020FD
:1054C0002DE9F04105460E4617462C46FFF776FEBD
:1054D00094F94400401C10B9002084F8440094F969
:1054E0004500401C10B9002084F84500FFF7AAFED3
:1054F000A06B28B93A46314604F1240000F006F9C1
:105500002046FFF7A1FBBDE8F081000070B504461E
:105510000025ACB10F48006808B9012000E0002068
:1055200028B940F249520CA110A0FAF7EFFE00F0A2
:10553000F9FA00212046FEF72FFE01F0B5FC0546E2
:105540003DB94FF080500D490860BFF34F8FBFF356
:105550006F8F70BD300500202E2E5C46726565523F
:10556000544F535C7461736B732E63004572726F9A
:10557000723A25732C25640D0A00000004ED00E04A
:1055800070B50546FFF71AFE15B92F48006800E010
:1055900028460446201DFFF7B1FD78B9E06A00EB0C
:1055A00080002A4951F8200040B994F82C100120BD
:1055B000884027490968814325480160A06A18B1DD
:1055C00004F11800FFF79AFD22480068401C2149A9
:1055D00008601D480068844209D1211D1E48FFF75C
:1055E000E1FD1E480068401C1C49086006E01C489C
:1055F0000068401E1A490860FFF782FAFFF722FE92
:1056000011480068844202D02046FEF745FF154845
:105610000068C0B10C480068844214D11248006888
:1056200008B9012000E0002028B940F2DC420FA1B7
:1056300013A0FAF76BFE4FF0805015490860BFF3D6
:105640004F8FBFF36F8F70BDF4040020F807002068
:105650000C05002020050020B40A002000050020D1
:105660000405002010050020300500202E2E5C4689
:1056700072656552544F535C7461736B732E630093
:105680004572726F723A25732C25640D0A00000072
:1056900004ED00E0034909680160034909684160BD
:1056A000704700001C05002008050020012001496A
:1056B000086070471805002070B504460D462CB9E7
:1056C00040F61C4207A10CA0FAF720FE0E48016824
:1056D00018312046FFF74CFD01212846FEF75CFDFE
:1056E00070BD00002E2E5C4672656552544F535CAF
:1056F0007461736B732E63004572726F723A257317
:105700002C25640D0A000000F404002070B5044646
:105710000E4615462CB940F6524211A115A0FAF7D3
:10572000F5FD606817490968C8611649826809680B
:105730000A62144909681831826851601149096880
:10574000183181600F4909688C622168491C216009
:105750000DB14FF0FF3629463046FEF71DFD70BDF6
:105760002E2E5C4672656552544F535C7461736BA8
:10577000732E63004572726F723A25732C25640D87
:105780000A000000F404002070B504460D461646D9
:105790002CB940F6364219A11DA0FAF7B7FD2048F2
:1057A000006808B1012000E0002028B940F63A4224
:1057B00012A117A0FAF7AAFD45F00040194909689F
:1057C0008861606817490968C86116498268096874
:1057D0000A621449096818318268516011490968E0
:1057E000183181600F4909688C622168491C216069
:1057F00001213046FEF7D0FC70BD00002E2E5C4625
:1058000072656552544F535C7461736B732E630001
:105810004572726F723A25732C25640D0A000000E0
:1058200030050020F40400202DE9F04706460F461D
:1058300034464FF00109002E70D0206D28B941F296
:105840009F0237A13BA0FAF761FDE06CB84201D29C
:105850003D4600E0E56CE06AA8425FD0206D01287B
:105860005CD138480068844201D0012000E000206B
:1058700028B941F2BA022AA12EA0FAF747FDD4F8BE
:105880002C80E562A06900F0004010B9C5F120004D
:10589000A06108EB88012C4A02EB81016069884213
:1058A00001D1012000E00020C0B3201DFFF726FC3D
:1058B00040B994F82C10012088402449096881439C
:1058C0002248016094F82C10012088401F49096883
:1058D00008431E490860E16A01EB81011A4A02EBA4
:1058E00081014868A0608268E260211D8268516081
:1058F0008160E16A01EB8101134A02EB810262617E
:10590000E16A01EB8101104A52F82110491CE26A58
:1059100002EB82020C4B43F8221000BFBDE8F08777
:105920002E2E5C4672656552544F535C7461736BE6
:10593000732E63004572726F723A25732C25640DC5
:105940000A000000F4040020F80700200C050020E5
:1059500070B505460E463848006808B1012000E0E1
:10596000002028B940F6BA4234A139A0FAF7CEFC9B
:1059700046F000402860EC682CB940F6C2422FA1E6
:1059800033A0FAF7C3FC2869D5E901219160D5E974
:10599000011251604168A94201D1A968416000210A
:1059A00029610168491E01606069D4E902128A60B8
:1059B000D4E902214A60211D42688A4201D1E1688E
:1059C0004160002262610168491E016094F82C1058
:1059D0000120884022490968084321490860E16A9A
:1059E00001EB81011F4A02EB81014868A0608268D7
:1059F000E260211D826851608160E16A01EB8101F2
:105A0000184A02EB81026261E16A01EB8101154AE9
:105A100052F82110491CE26A02EB8202114B43F852
:105A200022101149E06A0968C96A884202D9012036
:105A30000E49086070BD0000300500202E2E5C4627
:105A400072656552544F535C7461736B732E6300BF
:105A50004572726F723A25732C25640D0A0000009E
:105A60000C050020F8070020F40400201805002091
:105A70001CB51B4800210B468222CDE9001019A15C
:105A80001A4800F04DFF0446012C02D101F0D4FA6F
:105A90000446012C15D100BF502080F31188BFF3BC
:105AA0004F8FBFF36F8F00BF4FF0FF30104908607A
:105AB00001201049086000200F49086000F0D0F96B
:105AC0000BE0601C08B1012000E0002028B94FF471
:105AD00004620AA10EA0FAF719FC114800681CBD67
